:020000040800F2
:100000002004002045010008D1030008C3020008B5
:10001000CD0300088D010008410800080000000021
:10002000000000000000000000000000C9040008FB
:100030009101000800000000D303000841060008F9
:100040005F0100085F0100085F0100085F01000810
:100050005F0100085F0100085F0100085F01000800
:100060005F0100085F0100085F0100085F010008F0
:100070005F0100085F0100085F0100085F010008E0
:100080005F0100085F0100085F0100085F010008D0
:100090005F0100085F0100085F0100085F010008C0
:1000A0005F0100085F0100085F0100085F010008B0
:1000B0005F0100085F0100085F0100085F010008A0
:1000C0005F0100085F0100085F0100085F01000890
:1000D0005F0100085F0100085F0100085F01000880
:1000E0005F0100085F0100085F0100085F01000870
:1000F0005F0100085F0100085F0100085F01000860
:100100005F0100085F0100085F0100085F0100084F
:100110005F0100085F0100085F0100085F0100083F
:100120005F0100085F0100085F0100085F0100082F
:10013000DFF80CD000F018F800480047910C0008D8
:10014000200400200648804706480047FEE7FEE7F7
:10015000FEE7FEE7FEE7FEE7FEE7FEE7FEE7FEE777
:100160007106000831010008064C074D06E0E06802
:1001700040F0010394E8070098471034AC42F6D3EE
:10018000FFF7DAFF780E0008980E000800BFFEE7C0
:1001900070472DE9F041024600250026002000238B
:1001A0000024002791F803C00CF00F0591F803C05C
:1001B0000CF0100CBCF1000F03D091F802C04CEA17
:1001C000050591F800C0BCF1000F31D01468002083
:1001D0002BE04FF0010C0CFA00F3B1F800C00CEA70
:1001E00003069E4220D183004FF00F0C0CFA03F758
:1001F000BC4305FA03FC4CEA040491F803C0BCF1CB
:10020000280F06D14FF0010C0CFA00FCC2F814C004
:100210000AE091F803C0BCF1480F05D14FF0010C82
:100220000CFA00FCC2F810C0401C0828D1D314609E
:10023000B1F800C0BCF1FF0F34DD546800202EE09F
:1002400000F1080C4FF0010808FA0CF3B1F800C0F7
:100250000CEA03069E4221D183004FF00F0C0CFAEA
:1002600003F7BC4305FA03FC4CEA040491F803C00D
:10027000BCF1280F05D100F1080C08FA0CF8C2F8FF
:10028000148091F803C0BCF1480F07D100F1080CAD
:100290004FF0010808FA0CF8C2F81080401C08283A
:1002A000CED35460BDE8F0810246002093680B4035
:1002B0000BB1012000E000207047416170470161EF
:1002C000704700BFFEE7000010B580211748FFF718
:1002D000F4FF012000F044FB4FF480711348FFF756
:1002E000EEFF012000F03CFB4FF400710F48FFF7D8
:1002F000E6FF022000F00AFB012000F0C9FB01210B
:100300000A48FFF7D1FF044600BF01210748FFF765
:10031000CBFF04464FF400710448FFF7CEFF002CDA
:10032000F3D1002000F0B4FB10BD0000000C014030
:1003300010B50446FFF7C8FF80211148FFF7BDFF45
:100340004FF480710E48FFF7B8FF4FF400710C486E
:10035000FFF7B3FF012000F003FB4FF400710848E2
:10036000FFF7ADFF204600F0E5FB4FF400710448B5
:10037000FFF7A3FF4FF4C87000F0F2FA10BD0000C1
:10038000000C014010B50446FFF79EFF80210E4887
:10039000FFF795FF4FF480710B48FFF78EFF1E208B
:1003A00000F0DEFA4FF400710748FFF788FF20469F
:1003B00000F0C0FB4FF400710348FFF77EFF4FF4DD
:1003C000C87000F0CDFA10BD000C014000BFFEE780
:1003D0007047704729B1064A92690243044B9A61FB
:1003E00004E0034A92698243014B9A61704700001E
:1003F0000010024030B500210022002400232D4DC2
:100400006D6805F00C0121B1042905D0082923D11C
:1004100005E0294D056022E0274D05601FE0254DD0
:100420006D6805F47012234D6D6805F48034022563
:1004300005EB92421CB9214D554305600BE01D4D63
:100440006D6805F400351DB11C4D5543056002E093
:10045000194D5543056002E0174D056000BF00BF10
:10046000144D6D6805F0F0010909154D6B5C0568C8
:10047000DD4045600F4D6D6805F4E061090A104DDF
:100480006B5C4568DD4085600A4D6D6805F4605120
:10049000C90A0B4D6B5C4568DD40C560054D6D6854
:1004A00005F44041890B074D6B5CC568B5FBF3F55E
:1004B000056130BD0010024000127A0000093D00C5
:1004C0000500002015000020704710B500F002F86C
:1004D00010BD00000CB5002001900090334800686A
:1004E00040F480303149086000BF3048006800F4B3
:1004F000003000900198401C0190009818B90198B4
:10050000B0F5A06FF1D12948006800F4003010B1B7
:100510000120009001E0002000900098012843D1C4
:100520002348006840F01000214908600846006830
:1005300020F0030008600846006840F002000860F0
:100540001A484068194948600846406848600846AB
:10055000406840F4806048600846406820F47C10A1
:1005600048600846406840F4E81048600846006863
:1005700040F08070086000BF0C48006800F0007018
:100580000028F9D00948406820F003000749486076
:100590000846406840F00200486000BF03484068D9
:1005A00000F00C000828F9D10CBD0000001002403A
:1005B00000200240042808D14FF0E021096941F0F1
:1005C00004014FF0E022116107E04FF0E0210969DA
:1005D00021F004014FF0E02211617047012808D199
:1005E0004FF0E021096941F001014FF0E022116173
:1005F0000EE0811C41B94FF0E021096921F00101B1
:100600004FF0E022116103E000214FF0E022916100
:10061000704710B50146002200230020CB10022BAA
:1006200003D14FF0E024226902E04FF0E024E269B8
:1006300001248C4014400CB1012000E0002010BDCA
:10064000704740B14FF0E021096941F002014FF0DD
:10065000E022116107E04FF0E021096921F0020179
:100660004FF0E022116170474FF0E0214861704780
:1006700010B51348006840F00100114908600846B1
:100680004068104908400E494860084600680E4915
:1006900008400B4908600846006820F48020086084
:1006A0000846406820F4FE0048604FF41F00886050
:1006B000FFF70BFF4FF000600449086010BD000019
:1006C000001002400000FFF8FFFFF6FE08ED00E01A
:1006D00001F40072B2F5007F00D100BFCA4302806E
:1006E000704721B1828942F40052828104E08289FC
:1006F0004DF6FF731A408281704702460020B1F523
:10070000007F00D100BF13880B400BB1012000E037
:1007100000207047F0B50346002400260025002085
:1007200040F66A17B94200D100BF1846C1F342141F
:1007300001F01F06012707FA06F5012C01D10C3044
:1007400004E0022C01D1103000E014301AB1076827
:100750002F43076002E00768AF430760F0BD000069
:100760002DE9F04786B005460E460024A24600BF9C
:10077000A1460027B08900B100BF2F462C8A4CF655
:10078000FF700440F08804432C82AC894EF6F310CD
:100790000440B08831890843718908430443AC811F
:1007A000AC8A4FF6FF400440B0890443AC8201A8F4
:1007B000FFF720FE1F48874202D1DDF810A001E0BC
:1007C000DDF80CA0A88900F4004040B10AEBCA0093
:1007D00000EB0A1031684900B0FBF1F807E00AEBC2
:1007E000CA0000EB0A1031688900B0FBF1F8642000
:1007F000B8FBF0F004012009642101FB1089A889ED
:1008000000F4004040B1322000EBC900B0FBF1F031
:1008100000F00700044308E0322000EB09106421D7
:10082000B0FBF1F000F00F0004432C8106B0BDE8EE
:10083000F087000000380140C1F308028280704751
:1008400000BFFEE7014A024900F013B8A9090008F9
:100850001C00002002E008C8121F08C1002AFAD1BB
:1008600070477047002001E001C1121F002AFBD130
:1008700070472DE9F04116460F460446002503E077
:100880003946B047641C6D1C20780028F8D12846F2
:10089000BDE8F08108B501210820FFF79BFD40204D
:1008A000ADF8000003208DF8020010208DF8030041
:1008B00069460348FFF76DFC01200249086008BD46
:1008C000000C01409881214200B585B06846FFF7D1
:1008D00091FD6FF00400FFF76DFE0020FFF7B1FE01
:1008E00007490198B0FBF1F0064908704FF4FA513E
:1008F0000198B0FBF1F00449088005B000BD00008C
:1009000000127A00000000200200002070B50446AA
:100910001148008800FB04F5B5F1807F01D36FF02A
:100920007F452846FFF7A0FE0020FFF757FE012075
:10093000FFF754FE00BF1020FFF76BFE0749087059
:10094000084600780128F6D1C01EFFF747FE0020B8
:10095000FFF744FE70BD00000200002004000020EC
:1009600010B504460E49097801FB04F0FFF77CFE40
:100970000020FFF733FE0120FFF730FE00BF1020FC
:10098000FFF747FE07490870084600780128F6D1AE
:10099000C01EFFF723FE0020FFF720FE10BD000061
:1009A000000000200400002070B504460D46E1B2AE
:1009B0000548FFF741FF00BF40210348FFF79DFEB8
:1009C0000028F9D0204670BD0038014008B501214B
:1009D0000820FFF7FFFC01210420FFF7FBFC182093
:1009E000ADF8000003208DF8020010208DF8030000
:1009F00069460848FFF7CDFB0120ADF80000032051
:100A00008DF8020048208DF8030069460248FFF780
:100A1000C0FB08BD000C01400008014010B51A4899
:100A2000006860B90A20FFF771FF1748006830B905
:100A300000BF154800680028FBD0012010BD1248F7
:100A4000001F006870B90A20FFF760FF0E48001F02
:100A5000006838B900BF0C48001F00680028FAD0B1
:100A60000220EBE70948006860B90A20FFF74EFF53
:100A70000648006830B900BF044800680028FBD071
:100A80000320DBE70020D9E7108121420001214249
:100A900038B5044634B910208DF8030003208DF8D2
:100AA000020002E048208DF803000120ADF80000AC
:100AB00069460248FFF76DFB38BD0000000C01409D
:100AC00008B501210420FFF785FC01210820FFF76C
:100AD00081FC10208DF8030003208DF8020040F205
:100AE0008130ADF8000069460848FFF752FB10203E
:100AF0008DF8030003208DF80200FE20ADF8000001
:100B000069460348FFF745FB08BD0000000C0140A3
:100B10000008014010B5FFF7D3FF3820FFF708FCAD
:100B20000C20FFF705FC0620FFF702FC0120FFF771
:100B3000FFFB10BD10B5044604F0010020B10221F6
:100B40002E48FFF7BCFB03E002212C48FFF7B5FB62
:100B500004F0020020B104212848FFF7B0FB03E0B5
:100B600004212648FFF7A9FB04F0040020B1082166
:100B70002248FFF7A4FB03E008212048FFF79DFB74
:100B800004F0080020B110211C48FFF798FB03E097
:100B900010211A48FFF791FB04F0100020B120212A
:100BA0001648FFF78CFB03E020211448FFF785FB74
:100BB00004F0200020B140211048FFF780FB03E043
:100BC00040210E48FFF779FB04F0400020B180215E
:100BD0000A48FFF774FB03E080210848FFF76DFB2C
:100BE00004F0800020B101210548FFF768FB03E015
:100BF00001210348FFF761FB10BD00000008014020
:100C0000000C014070B506460D461446012E05D174
:100C100005F18001C8B2FFF78BFB04E005F1C001CC
:100C2000C8B2FFF785FB06E0207800B904E0207821
:100C3000FFF7A8FB641CF7E700BF70BD08B50121F2
:100C40001020FFF7C7FB4FF40050ADF80000032061
:100C50008DF8020010208DF8030069460A48FFF75E
:100C600098FA01210820FFF7B5FB4FF4E040ADF8FA
:100C7000000003208DF8020010208DF80300694663
:100C80000248FFF786FA08BD00100140000C014041
:100C900000270024002500260FF2B408FFF714FEF9
:100CA000FFF7CCFFFFF7F6FD00F09CF8FFF78EFE94
:100CB00029A0FFF7C7FDFFF72DFF42460121084697
:100CC000FFF7A0FF2AA0FFF7BDFD40E0FFF7A6FE5B
:100CD0000746012F04D0022F15D0032F33D125E072
:100CE00029A0FFF7AFFD2CA201210220FFF78AFF08
:100CF000E043C4B22C4804602C48C0F8B041002046
:100D00002B4908601FE02BA0FFF79CFD2DA20121BD
:100D10000220FFF777FFE843C5B223480560234868
:100D2000C0F8B4510120224908600CE029A2012139
:100D30000220FFF767FFF043C6B21B4806601B485E
:100D4000C0F8B86100BF00BF3220FFF7DFFDBDE78C
:100D500068656C6C6F0000006265666F7265206C80
:100D600063643136303220696E6974210D0A0000E7
:100D70006166746572206C63643136303220696E4E
:100D80006974210D0A0000004B657931207072658D
:100D900073736564210D0A004B65793120707265AB
:100DA0007373656421000000B40122420080214277
:100DB000988121424B657932207072657373656446
:100DC000210D0A004B65793220707265737365647A
:100DD000210000004B657933207072657373656480
:100DE0002100000000B585B0012144F20400FFF7A6
:100DF000F1FA4FF40070ADF8100018208DF81300D0
:100E000003208DF8120004A91948FFF7C2F94FF426
:100E10008060ADF8100004208DF8130003208DF8D9
:100E2000120004A91248FFF7B4F94FF4E130009022
:100E30000020ADF80400ADF80600ADF80800ADF8EC
:100E40000C000C20ADF80A0069460A48FFF788FC40
:100E500040210848FFF73CFC012240F2255105489B
:100E6000FFF758FC01210348FFF73BFC05B000BD2C
:100E70000008014000380140980E000800000020E2
:100E80002000000054080008B80E000820000020D0
:100E900000040000640800080000000000000000DA
:100EA0000001020304010203040607080902040604
:080EB000080000000000000032
:0400000508000131BD
:00000001FF
