:020000040800F2
:10000000200400204501000807030008FF02000843
:10001000030300088D010008090600080000000025
:1000200000000000000000000000000001040008C3
:10003000910100080000000009030008790500088C
:100040005F0100085F0100085F0100085F01000810
:100050005F0100085F0100085F0100085F01000800
:100060005F0100085F0100085F0100085F010008F0
:100070005F0100085F0100085F0100085F010008E0
:100080005F0100085F0100085F0100085F010008D0
:100090005F0100085F0100085F0100085F010008C0
:1000A0005F0100085F0100085F0100085F010008B0
:1000B0005F0100085F0100085F0100085F010008A0
:1000C0005F0100085F0100085F0100085F01000890
:1000D0005F0100085F0100085F0100085F01000880
:1000E0005F0100085F0100085F0100085F01000870
:1000F0005F0100085F0100085F0100085F01000860
:100100005F0100085F0100085F0100085F0100084F
:100110005F0100085F0100085F0100085F0100083F
:100120005F0100085F0100085F0100085F0100082F
:10013000DFF80CD000F018F800480047C5060008AA
:10014000200400200648804706480047FEE7FEE7F7
:10015000FEE7FEE7FEE7FEE7FEE7FEE7FEE7FEE777
:10016000A905000831010008064C074D06E0E068CB
:1001700040F0010394E8070098471034AC42F6D3EE
:10018000FFF7DAFF180700083807000800BFFEE78E
:100190007047000008B50121102000F0B7F84FF4B7
:1001A0000050ADF8000003208DF8020010208DF8FB
:1001B000030069460A4800F017F80121082000F002
:1001C000A5F84FF4E040ADF8000003208DF80200E0
:1001D00010208DF803006946024800F005F808BDBC
:1001E00000100140000C01402DE9F04102460025BD
:1001F0000026002000230024002791F803C00CF003
:100200000F0591F803C00CF0100CBCF1000F03D0E7
:1002100091F802C04CEA050591F800C0BCF1000F4E
:1002200031D0146800202BE04FF0010C0CFA00F3E1
:10023000B1F800C00CEA03069E4220D183004FF0C3
:100240000F0C0CFA03F7BC4305FA03FC4CEA040458
:1002500091F803C0BCF1280F06D14FF0010C0CFA45
:1002600000FCC2F814C00AE091F803C0BCF1480FCA
:1002700005D14FF0010C0CFA00FCC2F810C0401C74
:100280000828D1D31460B1F800C0BCF1FF0F34DDF1
:10029000546800202EE000F1080C4FF0010808FA25
:1002A0000CF3B1F800C00CEA03069E4221D1830092
:1002B0004FF00F0C0CFA03F7BC4305FA03FC4CEAB1
:1002C000040491F803C0BCF1280F05D100F1080C1B
:1002D00008FA0CF8C2F8148091F803C0BCF1480F7A
:1002E00007D100F1080C4FF0010808FA0CF8C2F829
:1002F0001080401C0828CED35460BDE8F08100BFB8
:10030000FEE700BFFEE770477047000029B1064ACC
:1003100092690243044B9A6104E0034A9269824362
:10032000014B9A61704700000010024030B5002177
:100330000022002400232D4D6D6805F00C0121B131
:10034000042905D0082923D105E0294D056022E0C4
:10035000274D05601FE0254D6D6805F47012234D93
:100360006D6805F48034022505EB92421CB9214DDD
:10037000554305600BE01D4D6D6805F400351DB15A
:100380001C4D5543056002E0194D5543056002E0E0
:10039000174D056000BF00BF144D6D6805F0F001FA
:1003A0000909154D6B5C0568DD4045600F4D6D68B2
:1003B00005F4E061090A104D6B5C4568DD4085601D
:1003C0000A4D6D6805F46051C90A0B4D6B5C4568B8
:1003D000DD40C560054D6D6805F44041890B074D52
:1003E0006B5CC568B5FBF3F5056130BD00100240DC
:1003F00000127A0000093D000500002015000020D1
:10040000704710B500F002F810BD00000CB50020D8
:10041000019000903348006840F480303149086012
:1004200000BF3048006800F4003000900198401C84
:100430000190009818B90198B0F5A06FF1D1294842
:10044000006800F4003010B10120009001E00020AD
:1004500000900098012843D12348006840F0100024
:10046000214908600846006820F00300086008463B
:10047000006840F0020008601A4840681949486066
:100480000846406848600846406840F4806048601C
:100490000846406820F47C1048600846406840F4F4
:1004A000E81048600846006840F08070086000BFAF
:1004B0000C48006800F000700028F9D00948406836
:1004C00020F00300074948600846406840F00200F9
:1004D000486000BF0348406800F00C000828F9D1CC
:1004E0000CBD00000010024000200240042808D18A
:1004F0004FF0E021096941F004014FF0E022116161
:1005000007E04FF0E021096921F004014FF0E022FB
:1005100011617047012808D14FF0E021096941F0CD
:1005200001014FF0E02211610EE0811C41B94FF052
:10053000E021096921F001014FF0E022116103E09F
:1005400000214FF0E0229161704710B50146002272
:1005500000230020CB10022B03D14FF0E0242269AE
:1005600002E04FF0E024E26901248C4014400CB119
:10057000012000E0002010BD704740B14FF0E021A5
:10058000096941F002014FF0E022116107E04FF0EC
:10059000E021096921F002014FF0E022116170476A
:1005A0004FF0E0214861704710B51348006840F0F3
:1005B00001001149086008464068104908400E498A
:1005C0004860084600680E4908400B490860084624
:1005D000006820F4802008600846406820F4FE008F
:1005E00048604FF41F008860FFF70BFF4FF000607A
:1005F0000449086010BD0000001002400000FFF830
:10060000FFFFF6FE08ED00E000BFFEE702E008C8CD
:10061000121F08C1002AFAD170477047002001E07C
:1006200001C1121F002AFBD17047000000B585B040
:100630006846FFF77BFE6FF00400FFF757FF0020CE
:10064000FFF79BFF07490198B0FBF1F006490870DE
:100650004FF4FA510198B0FBF1F00449088005B05D
:1006600000BD000000127A000000002002000020FF
:1006700070B504461148008800FB04F5B5F1807F91
:1006800001D36FF07F452846FFF78AFF0020FFF770
:1006900041FF0120FFF73EFF00BF1020FFF755FF8D
:1006A00007490870084600780128F6D1C01EFFF7F8
:1006B00031FF0020FFF72EFF70BD00000200002078
:1006C00004000020FFF7B2FFFFF764FD1DE00120EA
:1006D0000E4908600E49C1F8B0010E4908600C4986
:1006E000C1F8B8014FF47A70FFF7C2FF0020074944
:1006F00008600849091F0860091D08600449C1F81D
:10070000B8014FF47A70FFF7B3FFE0E7B40122427B
:1007100000802142B48121423807000800000020F7
:100720001C0000000C060008540700081C000020F4
:10073000040400001C060008000000000000000087
:10074000000102030401020304060708090204066B
:04075000080000009D
:0400000508000131BD
:00000001FF
