:020000040800F2
:100000000804002045010008291B00082B1B0008DC
:100010002F1B0008331B0008371B000800000000DE
:100020000000000000000000000000003D1B000870
:100030003B1B0008000000003F1B0008411B00089C
:10004000431B0008451B0008471B0008491B00080C
:100050004B1B00084D1B00084F1B0008511B0008DC
:10006000531B0008551B0008571B0008591B0008AC
:100070005B1B00085D1B00085F1B0008611B00087C
:10008000631B0008651B0008671B0008691B00084C
:100090006B1B00086D1B00086F1B0008711B00081C
:1000A000731B0008751B0008771B0008791B0008EC
:1000B0007B1B00087D1B00087F1B0008811B0008BC
:1000C000831B0008851B0008871B0008891B00088C
:1000D0008B1B00088D1B00088F1B0008911B00085C
:1000E000931B0008951B0008971B0008991B00082C
:1000F0009B1B00089D1B00089F1B0008A11B0008FC
:10010000A31B0008A51B0008A71B0008A91B0008CB
:10011000AB1B0008AD1B0008AF1B0008B11B00089B
:10012000B31B0008B51B0008B71B0008B91B00086B
:10013000DFF80CD001F042FD004800477F150008B1
:1001400008040020004800473101000810B50446AB
:10015000F748201806D0B0F5806F0DD0B0F5C05F1D
:100160001ED113E00121480200F0C1FF00214FF42D
:10017000007000F0BCFF14E00121880200F0B7FF1E
:1001800000214FF4806000F0B2FF0AE00121C803B3
:1001900000F0ADFF00214FF4004000F0A8FF00E0A8
:1001A00000BF00BF10BD30B50246002000235068DC
:1001B000E04C20400D790C6844EA0524204350604F
:1001C0009068DD4C2040D1E902542C434D7944EA3B
:1001D000450420439060D06A20F470000C7C641EBB
:1001E0001C43E3B240EA0350D06230BD00210160FD
:1001F000017141718160C16001210174704721B1B9
:10020000826842F00102826003E0826822F001020B
:100210008260704721B1826842F48072826003E09C
:10022000826822F480728260704710B50023CBB2DE
:100230001AB144681C43446002E044689C43446033
:1002400010BD816841F008018160704701460020BF
:100250008A6812F0080F01D0012000E000207047EA
:10026000816841F0040181607047014600208A687E
:1002700012F0040F01D0012000E00020704721B1EE
:10028000826842F4A002826003E0826822F4A00245
:1002900082607047014600208A6812F4800F01D006
:1002A000012000E00020704710B50A46002100231D
:1002B000416821F46041531E41EA4331416010BD61
:1002C00021B1426842F40062426003E0426822F4D5
:1002D000006242607047F0B504460D4600200021E0
:1002E000092D11DDE068A5F10A0606EB4607072691
:1002F00006FA07F18843A5F10A0606EB460603FA5B
:1003000006F10843E0600CE0206905EB450707268D
:1003100006FA07F1884305EB450603FA06F10843A0
:100320002061072A0FDA606B561E06EB86071F2630
:1003300006FA07F18843561E06EB860605FA06F113
:100340000843606322E00D2A0FDA206BD61F06EB0C
:1003500086071F2606FA07F18843D61F06EB860696
:1003600005FA06F10843206310E0E06AA2F10D06E9
:1003700006EB86071F2606FA07F18843A2F10D0651
:1003800006EB860605FA06F10843E062F0BD21B1EE
:10039000826842F48012826003E0826822F4801254
:1003A000826070470146C86C80B27047634800683D
:1003B000704721B1426842F48062426003E04268C3
:1003C00022F480624260704721B1426842F4805258
:1003D000426003E0426822F48052426070470A465D
:1003E0000021816821F4E04111438160704721B10F
:1003F000826842F40042826003E0826822F4004294
:100400008260704721B1826842F40212826003E088
:10041000826822F4021282607047014600208A68D6
:1004200012F4001F01D0012000E000207047F0B559
:1004300004461546002000220026092911DDE06847
:10044000A1F10A0707EB470C072707FA0CF29043C4
:10045000A1F10A0707EB470703FA07F21043E06030
:100460000CE0206901EB410C072707FA0CF29043DE
:1004700001EB410703FA07F210432061A06BC0F3C0
:100480000156EF1C06F1010CA7EB0C0707EB870CDC
:100490001F2707FA0CF29043EF1C06F1010CA7EBA3
:1004A0000C0707EB870701FA07F21043A063F0BDC2
:1004B00010B50A4600210023816B21F44011531E20
:1004C00041EA0351816310BD425070470246501803
:1004D000806A80B270470A4600214168184B194073
:1004E0001143416070474162826270470A460021B1
:1004F000416821F01F0111434160704738B1114933
:10050000096841F40001104AC2F8081406E00D49D8
:10051000096821F400010C4AC2F808147047024629
:10052000002013680B4201D0012000E0002070473A
:1005300000DCFEBFFFFEF0FFFDF7F1FF4C240140A1
:10054000FFFD3FFF0824014000200140CA43026034
:10055000704770B502460020002300240B12556836
:10056000CEB205EA060415681D4202D00CB1012086
:1005700000E0002070BD00220A12D34303607047E0
:10058000FA49096801F03801F84A11601146096812
:10059000014311607047F549096821F00801F34AE9
:1005A000116011460968014311607047EF490968FD
:1005B00021F01001ED4A11601146096801431160F4
:1005C0007047EB48E9494860EA4848607047E748A7
:1005D000006940F08000E549086170470420E34964
:1005E000C96801F00101012901D101200EE0DF49B4
:1005F000C96811F0040F01D0022007E0DB49C96887
:1006000011F0100F01D0032000E0042070470020FB
:10061000FF2000E0401E0028FCD1704770B5044662
:100620000425FFF7DBFF054605E0FFF7F0FFFFF7C6
:10063000D5FF0546641E012D01D1002CF5D104B96A
:100640000525284670BD70B50546042440F6FF70A8
:10065000FFF7E4FF0446042C19D1C448006940F0B8
:100660000200C249086108464561006940F0400047
:10067000086140F6FF70FFF7D1FF0446012C06D059
:10068000BA48006941F6FD710840B8490861204642
:1006900070BD10B5042440F6FF70FFF7BFFF04469D
:1006A000042C18D1B148006940F00400AF4908613A
:1006B0000846006940F04000086140F6FF70FFF70F
:1006C000ADFF0446012C06D0A848006941F6FB7135
:1006D0000840A6490861204610BD10B5042440F624
:1006E000FF70FFF79BFF0446042C3CD1A0489F49B4
:1006F0008860A04888600846006940F020000861D2
:100700000846006940F04000086140F6FF70FFF7BE
:1007100085FF0446042C1DD19448006941F6DF7121
:100720000840924908610846006940F010000861DD
:10073000A520914908804FF00F00FFF76FFF044696
:10074000012C10D08948006941F6EF7108408749B3
:10075000086108E0012C06D08448006941F6EF7179
:10076000084082490861204610BD70B505460E4616
:1007700004240F20FFF752FF0446042C25D17B48A8
:10078000006940F00100794908612E800F20FFF7D1
:1007900045FF0446042C0FD1300C68800F20FFF772
:1007A0003DFF0446012C10D07048006941F6FE71EF
:1007B00008406E49086108E0012C06D06B480069CA
:1007C00041F6FE71084069490861204670BD70B568
:1007D00005460E4604240F20FFF720FF0446042C94
:1007E00013D16248006940F00100604908612E8021
:1007F0000F20FFF713FF0446012C06D05B48006969
:1008000041F6FE71084059490861204670BD70B537
:1008100005460E4604240F20FFF700FF0446042C73
:1008200017D153485149886052488860084600698A
:1008300040F0100008612E800F20FFF7EFFE044605
:10084000012C06D04948006941F6EF71084047493C
:100850000861204670BD2DE9F04704464FF6FF764B
:100860003746B046B1460425E443E6B2C4F3072751
:10087000C4F307484FEA14690F20FFF7CFFE05467F
:10088000042D3ED13A48394988603A488860084684
:10089000006940F010000861FF2E06D0374806803E
:1008A0004FF00F00FFF7BAFE0546042D08D1FF2FC9
:1008B00006D0334807804FF00F00FFF7AFFE054624
:1008C000042D09D1B8F1FF0F06D02E48A0F80C88EE
:1008D0000F20FFF7A3FE0546042D09D1B9F1FF0F44
:1008E00006D02848A0F80E980F20FFF797FE05467F
:1008F000012D06D01D48006941F6EF7108401B49E3
:1009000008612846BDE8F08770B50546042440F626
:10091000FF70FFF783FE0446042C50D1144813499E
:100920008860144888600846006940F0200008612B
:100930000846006940F04000086140F6FF70FFF78C
:100940006DFE0446042C31D10848006941F6DF7180
:100950000840064908610846006940F01000086137
:1009600095B100200449088011E0000000200240F9
:1009700023016745AB89EFCD00F8FF1F08F8FF1F83
:100980000AF8FF1F00F0FF1FA5204549088040F628
:10099000FF70FFF743FE0446012C10D04148006968
:1009A00041F6EF7108403F49086108E0012C06D08C
:1009B0003C48006941F6DF7108403A490861204629
:1009C00070BD2DE9F04107460D4616460424364811
:1009D00034498860354888600F20FFF71FFE0446C1
:1009E000042C1AD12F48006940F010002D490861ED
:1009F00047EA0500304340F0F8002D4908804FF0E9
:100A00000F00FFF70BFE0446012C06D025480069B5
:100A100041F6EF710840234908612046BDE8F081A6
:100A20002048C069800870471E48006A704700204F
:100A30001C49C96911F0020F01D0012000E000201B
:100A4000704700201749096811F0200F01D00120DC
:100A500000E00020704729B1124A12690243114B8D
:100A60001A6104E00F4A126982430E4B1A61704703
:100A700001460020012908D10A4AD26912F0010F6B
:100A800001D0012008E0002006E0064AD2680A42B0
:100A900001D0012000E0002070470249C860704783
:100AA00000F8FF1F0020024023016745AB89EFCD0E
:100AB00002F8FF1F10B50446C549601A8C422FD0BA
:100AC00009DCC448201810D0B0F5806F16D0B0F5FE
:100AD000006F4AD11BE0B0F5806F2AD0B0F5006FEF
:100AE00030D0B0F5406F40D135E00121042000F056
:100AF000FEFA0021042000F0FAFA37E00121082074
:100B000000F0F5FA0021082000F0F1FA2EE00121B2
:100B1000102000F0ECFA0021102000F0E8FA25E0A7
:100B20000121202000F0E3FA0021202000F0DFFA6C
:100B30001CE00121402000F0DAFA0021402000F002
:100B4000D6FA13E00121802000F0D1FA00218020A4
:100B500000F0CDFA0AE00121080200F0C8FA0021F5
:100B60004FF4807000F0C3FA00E000BF00BF10BD7A
:100B700010B50121084600F0BAFA0021012000F06A
:100B8000B6FA10BD2DE9F0410246002500260020EE
:100B900000230024002791F803C00CF00F0591F802
:100BA00003C01CF0100F03D091F802C04CEA0505F9
:100BB000B1F800C01CF0FF0F31D0146800202BE00A
:100BC0004FF0010C0CFA00F3B1F800C00CEA030678
:100BD0009E4220D183004FF00F0C0CFA03F7BC4368
:100BE00005FA03FC4CEA040491F803C0BCF1280F99
:100BF00006D14FF0010C0CFA00FCC2F814C00AE058
:100C000091F803C0BCF1480F05D14FF0010C0CFA6C
:100C100000FCC2F810C0401C0828D1D31460B1F801
:100C200000C0BCF1FF0F34DD546800202EE000F15D
:100C3000080C4FF0010808FA0CF3B1F800C00CEAF8
:100C400003069E4221D183004FF00F0C0CFA03F7EC
:100C5000BC4305FA03FC4CEA040491F803C0BCF160
:100C6000280F05D100F1080C08FA0CF8C2F814801E
:100C700091F803C0BCF1480F07D100F1080C4FF008
:100C8000010808FA0CF8C2F81080401C0828CED3DE
:100C90005460BDE8F0814FF6FF7101800221817040
:100CA0000421C17070470246002093680B4201D0B6
:100CB000012000E0002070470146886880B270473C
:100CC00002460020D3680B4201D0012000E0002042
:100CD00070470146C86880B2704701617047416142
:100CE00070470AB1016100E041617047C16070471F
:100CF0004FF480320A438261816182618269826934
:100D0000704702460020344B18684FF68073184035
:100D100040EA02100843304B186070472F49C86101
:100D20007047F0B50A4600230024002100252A4E12
:100D30007168C0F3034583B200F44016B6F5401F56
:100D400008D121F07061244E766826F07066224F3B
:100D50007E6012E000F48016B6F5801F06D10326EF
:100D600006FA05F4A14341F0706106E0460D360134
:100D700003FA06F6B14341F0706122B1460D360127
:100D800003FA06F63143144E7160F0BD30B500220F
:100D90008B071C0F0F2303FA04F20F4B08338C1040
:100DA00053F8243093430C4C08348D1044F825300C
:100DB00023468C1053F824308C07240F00FA04F4D7
:100DC0002343054C08348D1044F8253030BD000015
:100DD0000014014000F8FEBF000001400000204266
:100DE000DE48006840F00100DC49086008464068C1
:100DF000DB490840D949486008460068D94908409D
:100E0000D64908600846006820F48020086008463B
:100E1000406820F4FE004860002088607047CF4999
:100E2000096821F48031CD4A11601146096821F426
:100E300080211160B0F5803F03D0B0F5802F0ED136
:100E400006E0C649096841F48031C44A116007E0F0
:100E5000C249096841F4A021C04A116000E000BF06
:100E600000BF704710B501460022002300204A1140
:100E7000012A02D1B94C236806E0022A02D1B74CFC
:100E8000236A01E0B54C636A01F01F02012494401B
:100E90001C4201D0012000E0002010BD10B500244C
:100EA00000BF3120FFF7DEFFAF490870AF48006890
:100EB000401CAE490860AC48007828B90846006874
:100EC000A0F58071FF39ECD13120FFF7CBFF08B1DD
:100ED000012400E00024204610BD014600209F4A66
:100EE000106820F0F80040EAC10010607047A04987
:100EF0000860704702460020984B586820F47C1028
:100F000042EA01031843954B5860704798490866B8
:100F1000704701460020914A506820F003000843C2
:100F2000506070478D48406800F00C0070470146E3
:100F300000208A4A506820F0F00008435060704753
:100F400001460020854A506820F4E0600843506064
:100F5000704701460020814A506820F4605040EA02
:100F6000C1005060704729B17C4A527A02437B4BE2
:100F70005A7206E0794A527AC343DBB21A40774B81
:100F80005A7270477B490860704701460020734AD7
:100F9000506820F440400843506070470021764A72
:100FA00011706E4A82F82010012802D0042808D15E
:100FB00003E00121704A117004E005216E4A1170AE
:100FC00000E000BF00BF70476C490860704763498C
:100FD000096A0143614A11627047694908607047B4
:100FE00030B500210022002400235C4D6D6805F01F
:100FF0000C0121B1042905D0082923D105E0614D58
:10100000056022E05F4D05601FE0544D6D6805F4FA
:101010007012022505EB9242504D6D6805F4803444
:101020001CB9594D554305600BE04C4D6D6815F4E6
:10103000003F03D0544D5543056002E0514D5543E8
:10104000056002E04F4D056000BF00BF434D6D6875
:1010500005F0F00109094D4D6B5C0568DD40456008
:101060003E4D6D6805F4E061090A484D6B5C4568CA
:10107000DD408560394D6D6805F46051C90A434D06
:101080006B5C4568DD40C560344D6D6805F44041DA
:10109000890B3F4D6B5CC568B5FBF3F5056130BD51
:1010A00029B12E4A526902432C4B5A6104E02B4A63
:1010B00052698243294B5A61704729B1274A926984
:1010C0000243264B9A6104E0244A92698243234BEF
:1010D0009A61704729B1214AD26902431F4BDA61F4
:1010E00004E01E4AD26982431C4BDA61704729B181
:1010F0001A4AD2680243194BDA6004E0174AD268F0
:101100008243164BDA60704729B1144A12690243D0
:10111000124B1A6104E0114A126982430F4B1A61A3
:1011200070471C49086070471149C86470470B49F3
:10113000C87170470948406A40F0807007494862AA
:10114000704701460020054A92680A4201D00120FA
:1011500000E000207047014988727047001002408B
:101160000000FFF8FFFFF6FE040000200000002052
:1011700000004242D8004242201002408004424215
:101180003C04424200127A0000093D00FE1B0008A8
:101190000E1C00084004424210B50446D949601AAA
:1011A0008C422BD006DCD848201813D0B0F5806FC5
:1011B00038D119E0B0F5806F2AD0B0F56C4F31D13D
:1011C00001218803FFF793FF00214FF48040FFF7D0
:1011D0008EFF28E001214804FFF796FF00214FF41D
:1011E0000030FFF791FF1EE001218804FFF78CFF1C
:1011F00000214FF48020FFF787FF14E00121C8048D
:10120000FFF782FF00214FF40020FFF77DFF0AE087
:1012100001210805FFF778FF00214FF48010FFF748
:1012200073FF00E000BF00BF10BD2DE9F04786B09E
:1012300005460E460024A24600BF00BF00272F46E9
:101240002C8A4CF6FF700440F08804432C82AC8951
:101250004EF6F3100440B088318908437189084381
:101260000443AC81AC8A4FF6FF400440B08904438C
:10127000AC8201A8FFF7B4FEA448874202D1DDF892
:1012800010A001E0DDF80CA00AEBCA0000EB0A1088
:1012900031688900B0FBF1F86420B8FBF0F004017C
:1012A0002009642101FB1089322000EB0910B0FBFA
:1012B000F1F000F00F0004432C8106B0BDE8F08788
:1012C0004FF41651016000218180C18001810C2101
:1012D000418100218181704710B502460020108AAB
:1012E0004FF2FF0318400B884C8823438C8823431C
:1012F000CC8823431843108210BD00210180418017
:101300008180C180704721B1828942F4005282817C
:1013100004E082894DF6FF731A4082817047F0B570
:10132000034600240026002500201846C1F342147D
:1013300001F01F06012707FA06F5012C01D10C3038
:1013400004E0022C01D1103000E014301AB107681B
:101350002F43076002E00768AF430760F0BD10B598
:101360001AB1838A0B43838204E0838ACC43A4B2FC
:101370002340838210BD028A4FF6F0731A40028226
:10138000028A0A430282704782894FF2FF731A4031
:10139000828182890A438281704721B1828942F029
:1013A0000202828104E082894FF6FD731A40828135
:1013B0007047028A4FF6DF731A400282028A0A439C
:1013C0000282704721B1028A42F48042028204E024
:1013D000028A4BF6FF731A4002827047C1F308027B
:1013E0008280704701468888C0F308007047818971
:1013F00041F0010181817047028BD2B20283028BDE
:1014000042EA012202837047028B02F47F42028388
:10141000028B0A430283704721B1828A42F0200284
:10142000828204E0828A4FF6DF731A40828270471C
:1014300021B1828A42F01002828204E0828A4FF651
:10144000EF731A408282704721B1828A42F008020B
:10145000828204E0828A4FF6F7731A4082827047D4
:10146000828A4FF6FB731A408282828A0A43828202
:10147000704721B1828A42F00202828204E0828AAD
:101480004FF6FD731A40828270470246002013888F
:101490000B4201D0012000E000207047CA430280C7
:1014A000704770B502460B4600240021002500203D
:1014B000C3F3421503F01F01012606FA01F1012DC5
:1014C00002D19689314006E0022D02D1168A3140C0
:1014D00001E0968A31401C12012606FA04F41688AF
:1014E000344011B10CB1012000E0002070BD10B5F6
:1014F000002200230A1201249440A3B2DC4304809A
:1015000010BD0000004C004000BCFFBF003801408F
:1015100010B5FFF765FC4FF48030FFF780FCFFF754
:10152000BDFC0446012C24D10020FFF700FD002063
:10153000FFF70FFDA002FFF703FD0220FFF720F8E1
:101540001020FFF733F84FF4E0112004FFF7D2FC2E
:101550000120FFF7DBFC00BF3920FFF783FC0028E8
:10156000FAD00220FFF7D5FC00BFFFF7DBFC08280C
:10157000FBD1012144F21800FFF79FFD10BDFFF7DA
:10158000C7FF00F012F900F04DFAC82000F000F992
:1015900075A20021084600F0A6FA16E04FF40051AB
:1015A0007648FFF79AFB70A20021084600F09BFAEC
:1015B00044F6206000F0ECF84FF400516F48FFF75C
:1015C0008EFB44F6206000F0E3F8E7E708B54FF43F
:1015D0000070ADF8000018208DF8030003208DF88E
:1015E000020069466648FFF7CDFA4FF48060ADF817
:1015F000000004208DF8030069466148FFF7C2FA35
:101600000220ADF8000000208DF8030069465D4817
:10161000FFF7B8FA0120ADF8000000208DF80300B4
:1016200069465848FFF7AEFA08BD00B585B04FF4DB
:101630008040FFF7AAFC0020009001208DF80400F4
:101640008DF805004FF460200290002003900120E7
:101650008DF8100069464C48FEF7A5FD06230122CF
:1016600009214948FEF737FE01214748FEF7C7FD2B
:101670004548FEF7E6FD00BF4348FEF7E7FD0028BA
:10168000FAD14148FEF7ECFD00BF3F48FEF7EDFD03
:101690000028FAD101213C48FEF7F1FD05B000BD5C
:1016A00000B585B04FF48040FFF76FFC002000903C
:1016B00001208DF804008DF805004FF460200290A1
:1016C0000020039001208DF8100069462E48FEF797
:1016D0006AFD0523012208212B48FEF7FCFD0121AC
:1016E0002948FEF78CFD2848FEF7ABFD00BF2648D1
:1016F000FEF7ACFD0028FAD12348FEF7B1FD00BF8C
:101700002148FEF7B2FD0028FAD101211E48FEF75C
:10171000B6FD05B000BD1FB54FF4E13000900020CC
:10172000ADF80400ADF80600ADF80800ADF80C0007
:101730000C20ADF80A0069461448FFF776FD012138
:101740001248FFF7E0FD1FBD70B504460D46E1B23B
:101750000E48FFF743FE00BF40210C48FFF795FEFF
:101760000028F9D0204670BD4D7920446573696723
:101770006E65722120202020000000000010014032
:1017800000080140000C01400024014000380140E5
:1017900006E00A2100BF0A00A1F1010359B2FAD103
:1017A0000200A0F10100F4D1704708B54FF47F406A
:1017B000ADF8000010208DF8030003208DF8020022
:1017C0006946D748FFF7DEF901210820FFF775FCCD
:1017D0008020ADF8000010208DF8030003208DF864
:1017E00002006946CE48FFF7CDF901210820FFF736
:1017F00064FC4020ADF8000010208DF803000320A9
:101800008DF802006946C648FFF7BCF9012108209F
:10181000FFF753FC2020ADF8000010208DF80300E6
:1018200003208DF802006946BD48FFF7ABF94FF47D
:101830000050ADF8000010208DF8030003208DF853
:1018400002006946B748FFF79DF908BD38B5002486
:1018500001210820FFF731FC4FF47F40ADF8000074
:1018600048208DF8030003208DF802006946AC483B
:10187000FFF788F92021AA48FFF731FA0120FFF786
:1018800087FF4021A648FFF728FA0120FFF780FFD5
:101890008021A348FFF721FA0220FFF779FF03E038
:1018A0000520FFF775FF641C4FF400419C48FFF7CB
:1018B000FAF918B144F620608442F1D380219848A7
:1018C000FFF70DFA01210820FFF7F7FB4FF47F40E7
:1018D000ADF8000010208DF8030003208DF8020001
:1018E00069468F48FFF74EF938BD10B580218C4806
:1018F000FFF7F3F90520FFF74BFF80218848FFF73A
:10190000EEF910BD10B504464FF480718448FFF71E
:10191000E6F94FF400718248FFF7E1F94FF4806176
:101920007F48FFF7DCF94FF400617D48FFF7D7F9F6
:101930004FF480517A48FFF7D2F94FF400517848BC
:10194000FFF7CDF94FF480417548FFF7C8F94FF420
:1019500000417348FFF7C3F914F0010F04D04FF4AE
:1019600080716F48FFF7B9F914F0020F04D04FF4FB
:1019700000716B48FFF7B1F914F0040F04D04FF475
:1019800080616748FFF7A9F914F0080F04D04FF4FD
:1019900000616348FFF7A1F914F0100F04D04FF471
:1019A00080515F48FFF799F914F0200F04D04FF4ED
:1019B00000515B48FFF791F914F0400F04D04FF449
:1019C00080415748FFF789F914F0800F04D04FF495
:1019D00000415348FFF781F910BD70B505460C462C
:1019E0000CB1FFF733FF0120FFF7D2FE20214C4856
:1019F000FFF775F90120FFF7CBFE40214848FFF7BC
:101A00006EF90420FFF7C4FE2846FFF77BFF042091
:101A1000FFF7BEFEFFF769FF0120FFF7B9FEFFF7F2
:101A200015FF70BD10B5FFF7C0FE40F2DC50FFF7A8
:101A3000AFFE00213820FFF7D0FF4FF4FA70FFF718
:101A4000A7FE00213820FFF7C8FF4FF4FA70FFF718
:101A50009FFE00213820FFF7C0FF01213820FFF74B
:101A6000BCFF01210846FFF7B8FF01210620FFF760
:101A7000B4FF01210C20FFF7B0FF10BD10B50446E4
:101A8000FFF7E4FE0120FFF783FE20212448FFF743
:101A900024F90120FFF77CFE40212148FFF71FF9C0
:101AA0000420FFF775FE2046FFF72CFF0420FFF708
:101AB0006FFEFFF71AFF0120FFF76AFEFFF7C6FE71
:101AC00010BD70B506460C461CB906F18000C5B2C3
:101AD00004E0012C02D106F1C000C5B20121284664
:101AE000FFF77BFF70BD70B505460E4614463146C4
:101AF0002846FFF7E6FF03E02078FFF7BFFF641CEE
:101B000020780028F8D170BD70B505460E46144601
:101B100031462846FFF7D5FF2046FFF7AFFF70BDDF
:101B2000000C014000100140704700BFFEE700BFFD
:101B3000FEE700BFFEE700BFFEE770477047704753
:101B400070477047704770477047704770477047DD
:101B500070477047704770477047704770477047CD
:101B600070477047704770477047704770477047BD
:101B700070477047704770477047704770477047AD
:101B8000704770477047704770477047704770479D
:101B9000704770477047704770477047704770478D
:101BA000704770477047704770477047704770477D
:101BB000704770477047704770470000064C074DEC
:101BC00006E0E06840F0010394E80700984710340D
:101BD000AC42F6D3FEF7B0FA141C0008341C00081F
:101BE00002E008C8121F08C1002AFAD170477047E6
:101BF000002001E001C1121F002AFBD17047000044
:101C0000000001020304010203040607080902049C
:101C100006080000341C0008000000200800000036
:101C2000E01B00083C1C0008080000200004000025
:0C1C3000F01B0008000000000000000095
:0400000508000131BD
:00000001FF
