Component: ARM Compiler 5.06 update 6 (build 750) Tool: armlink [4d35ed]

==============================================================================

Section Cross References

    startup_stm32f10x_ld.o(RESET) refers to startup_stm32f10x_ld.o(STACK) for __initial_sp
    startup_stm32f10x_ld.o(RESET) refers to startup_stm32f10x_ld.o(.text) for Reset_Handler
    startup_stm32f10x_ld.o(RESET) refers to stm32f10x_it.o(i.NMI_Handler) for NMI_Handler
    startup_stm32f10x_ld.o(RESET) refers to stm32f10x_it.o(i.HardFault_Handler) for HardFault_Handler
    startup_stm32f10x_ld.o(RESET) refers to stm32f10x_it.o(i.MemManage_Handler) for MemManage_Handler
    startup_stm32f10x_ld.o(RESET) refers to stm32f10x_it.o(i.BusFault_Handler) for BusFault_Handler
    startup_stm32f10x_ld.o(RESET) refers to stm32f10x_it.o(i.UsageFault_Handler) for UsageFault_Handler
    startup_stm32f10x_ld.o(RESET) refers to stm32f10x_it.o(i.SVC_Handler) for SVC_Handler
    startup_stm32f10x_ld.o(RESET) refers to stm32f10x_it.o(i.DebugMon_Handler) for DebugMon_Handler
    startup_stm32f10x_ld.o(RESET) refers to stm32f10x_it.o(i.PendSV_Handler) for PendSV_Handler
    startup_stm32f10x_ld.o(RESET) refers to stm32f10x_it.o(i.SysTick_Handler) for SysTick_Handler
    startup_stm32f10x_ld.o(.text) refers to system_stm32f10x.o(i.SystemInit) for SystemInit
    startup_stm32f10x_ld.o(.text) refers to entry.o(.ARM.Collect$$$$00000000) for __main
    system_stm32f10x.o(i.SetSysClock) refers to system_stm32f10x.o(i.SetSysClockTo72) for SetSysClockTo72
    system_stm32f10x.o(i.SystemCoreClockUpdate) refers to system_stm32f10x.o(.data) for SystemCoreClock
    system_stm32f10x.o(i.SystemInit) refers to system_stm32f10x.o(i.SetSysClock) for SetSysClock
    stm32f10x_gpio.o(i.GPIO_AFIODeInit) refers to stm32f10x_rcc.o(i.RCC_APB2PeriphResetCmd) for RCC_APB2PeriphResetCmd
    stm32f10x_gpio.o(i.GPIO_DeInit) refers to stm32f10x_rcc.o(i.RCC_APB2PeriphResetCmd) for RCC_APB2PeriphResetCmd
==============================================================================

Removing Unused input sections from the image.

    Removing startup_stm32f10x_ld.o(HEAP), (512 bytes).
    Removing core_cm3.o(.emb_text), (32 bytes).
    Removing misc.o(i.NVIC_Init), (112 bytes).
    Removing misc.o(i.NVIC_PriorityGroupConfig), (20 bytes).
    Removing misc.o(i.NVIC_SetVectorTable), (20 bytes).
    Removing misc.o(i.NVIC_SystemLPConfig), (32 bytes).
    Removing misc.o(i.SysTick_CLKSourceConfig), (40 bytes).
    Removing stm32f10x_exti.o(i.EXTI_ClearFlag), (12 bytes).
    Removing stm32f10x_exti.o(i.EXTI_ClearITPendingBit), (12 bytes).
    Removing stm32f10x_exti.o(i.EXTI_DeInit), (36 bytes).
    Removing stm32f10x_exti.o(i.EXTI_GenerateSWInterrupt), (16 bytes).
    Removing stm32f10x_exti.o(i.EXTI_GetFlagStatus), (24 bytes).
    Removing stm32f10x_exti.o(i.EXTI_GetITStatus), (40 bytes).
    Removing stm32f10x_exti.o(i.EXTI_Init), (148 bytes).
    Removing stm32f10x_exti.o(i.EXTI_StructInit), (16 bytes).
    Removing stm32f10x_fsmc.o(i.FSMC_ClearFlag), (64 bytes).
    Removing stm32f10x_fsmc.o(i.FSMC_ClearITPendingBit), (72 bytes).
    Removing stm32f10x_fsmc.o(i.FSMC_GetECC), (28 bytes).
==============================================================================

Image Symbol Table

    Local Symbols

    Symbol Name                              Value     Ov Type        Size  Object(Section)

    ../clib/microlib/init/entry.s            0x00000000   Number         0  entry9a.o ABSOLUTE
    ../clib/microlib/init/entry.s            0x00000000   Number         0  entry2.o ABSOLUTE
    ../clib/microlib/init/entry.s            0x00000000   Number         0  entry5.o ABSOLUTE
    ../clib/microlib/init/entry.s            0x00000000   Number         0  entry8a.o ABSOLUTE
    ../clib/microlib/init/entry.s            0x00000000   Number         0  entry11b.o ABSOLUTE
    ../clib/microlib/init/entry.s            0x00000000   Number         0  entry7a.o ABSOLUTE
    ../clib/microlib/init/entry.s            0x00000000   Number         0  entry11a.o ABSOLUTE
    ../clib/microlib/init/entry.s            0x00000000   Number         0  entry10b.o ABSOLUTE
    ../clib/microlib/init/entry.s            0x00000000   Number         0  entry7b.o ABSOLUTE
    ../clib/microlib/init/entry.s            0x00000000   Number         0  entry8b.o ABSOLUTE
    ../clib/microlib/init/entry.s            0x00000000   Number         0  entry.o ABSOLUTE
    ../clib/microlib/init/entry.s            0x00000000   Number         0  entry10a.o ABSOLUTE
    ../clib/microlib/init/entry.s            0x00000000   Number         0  entry9b.o ABSOLUTE
    ../clib/microlib/longlong.c              0x00000000   Number         0  llushr.o ABSOLUTE
    ../clib/microlib/longlong.c              0x00000000   Number         0  llshl.o ABSOLUTE
    ../clib/microlib/stubs.s                 0x00000000   Number         0  iusefp.o ABSOLUTE
    ../fplib/microlib/f2d.c                  0x00000000   Number         0  f2d.o ABSOLUTE
    ../fplib/microlib/fpepilogue.c           0x00000000   Number         0  fepilogue.o ABSOLUTE
    ../fplib/microlib/fpepilogue.c           0x00000000   Number         0  depilogue.o ABSOLUTE
    ../fplib/microlib/fpfix.c                0x00000000   Number         0  dfixi.o ABSOLUTE
    ../fplib/microlib/fpflt.c                0x00000000   Number         0  fflti.o ABSOLUTE
    ../fplib/microlib/fpmul.c                0x00000000   Number         0  dmul.o ABSOLUTE
    ..\Libaraies\CMSIS\core_cm3.c            0x00000000   Number         0  core_cm3.o ABSOLUTE
    ..\Libaraies\CMSIS\startup\startup_stm32f10x_ld.s 0x00000000   Number         0  startup_stm32f10x_ld.o ABSOLUTE
    ..\Libaraies\CMSIS\system_stm32f10x.c    0x00000000   Number         0  system_stm32f10x.o ABSOLUTE
    ..\Libaraies\STM32F10x_StdPeriph_Driver\src\misc.c 0x00000000   Number         0  misc.o ABSOLUTE
    ..\Libaraies\STM32F10x_StdPeriph_Driver\src\stm32f10x_exti.c 0x00000000   Number         0  stm32f10x_exti.o ABSOLUTE
    ..\Libaraies\STM32F10x_StdPeriph_Driver\src\stm32f10x_fsmc.c 0x00000000   Number         0  stm32f10x_fsmc.o ABSOLUTE
    ..\Libaraies\STM32F10x_StdPeriph_Driver\src\stm32f10x_gpio.c 0x00000000   Number         0  stm32f10x_gpio.o ABSOLUTE
    ..\Libaraies\STM32F10x_StdPeriph_Driver\src\stm32f10x_rcc.c 0x00000000   Number         0  stm32f10x_rcc.o ABSOLUTE
    ..\Libaraies\STM32F10x_StdPeriph_Driver\src\stm32f10x_sdio.c 0x00000000   Number         0  stm32f10x_sdio.o ABSOLUTE
    ..\Libaraies\STM32F10x_StdPeriph_Driver\src\stm32f10x_tim.c 0x00000000   Number         0  stm32f10x_tim.o ABSOLUTE
    ..\Libaraies\STM32F10x_StdPeriph_Driver\src\stm32f10x_usart.c 0x00000000   Number         0  stm32f10x_usart.o ABSOLUTE
    ..\SYSTEM\sys\sys.c                      0x00000000   Number         0  sys.o ABSOLUTE
    ..\User\18b20\ds18b20.c                  0x00000000   Number         0  ds18b20.o ABSOLUTE
    ..\User\SysTick\bsp_SysTick.c            0x00000000   Number         0  bsp_systick.o ABSOLUTE
    ..\User\bsp-lcd1602\bsp-lcd1602.c        0x00000000   Number         0  bsp-lcd1602.o ABSOLUTE
    ..\User\main.c                           0x00000000   Number         0  main.o ABSOLUTE
    ..\User\stm32f10x_it.c                   0x00000000   Number         0  stm32f10x_it.o ABSOLUTE
    ..\\Libaraies\\CMSIS\\core_cm3.c         0x00000000   Number         0  core_cm3.o ABSOLUTE
    ..\\SYSTEM\\sys\\sys.c                   0x00000000   Number         0  sys.o ABSOLUTE
    dc.s                                     0x00000000   Number         0  dc.o ABSOLUTE
    handlers.s                               0x00000000   Number         0  handlers.o ABSOLUTE
    init.s                                   0x00000000   Number         0  init.o ABSOLUTE
    RESET                                    0x08000000   Section      236  startup_stm32f10x_ld.o(RESET)
    .ARM.Collect$$$$00000000                 0x080000ec   Section        0  entry.o(.ARM.Collect$$$$00000000)
    .ARM.Collect$$$$00000001                 0x080000ec   Section        4  entry2.o(.ARM.Collect$$$$00000001)
    .ARM.Collect$$$$00000004                 0x080000f0   Section        4  entry5.o(.ARM.Collect$$$$00000004)
    .ARM.Collect$$$$00000008                 0x080000f4   Section        0  entry7b.o(.ARM.Collect$$$$00000008)
    .ARM.Collect$$$$0000000A                 0x080000f4   Section        0  entry8b.o(.ARM.Collect$$$$0000000A)
    .ARM.Collect$$$$0000000B                 0x080000f4   Section        8  entry9a.o(.ARM.Collect$$$$0000000B)
    .ARM.Collect$$$$0000000D                 0x080000fc   Section        0  entry10a.o(.ARM.Collect$$$$0000000D)
    .ARM.Collect$$$$0000000F                 0x080000fc   Section        0  entry11a.o(.ARM.Collect$$$$0000000F)
    .ARM.Collect$$$$00002712                 0x080000fc   Section        4  entry2.o(.ARM.Collect$$$$00002712)
    __lit__00000000                          0x080000fc   Data           4  entry2.o(.ARM.Collect$$$$00002712)
    .text                                    0x08000100   Section       36  startup_stm32f10x_ld.o(.text)
    .text                                    0x08000124   Section        0  dmul.o(.text)
    .text                                    0x08000208   Section        0  fflti.o(.text)
    .text                                    0x0800021a   Section        0  dfixi.o(.text)
    .text                                    0x08000258   Section        0  f2d.o(.text)
    .text                                    0x0800027e   Section        0  llushr.o(.text)
    .text                                    0x0800029e   Section        0  fepilogue.o(.text)
    .text                                    0x0800029e   Section        0  iusefp.o(.text)
    .text                                    0x0800030c   Section        0  depilogue.o(.text)
    .text                                    0x080003c8   Section       36  init.o(.text)
    .text                                    0x080003ec   Section        0  llshl.o(.text)
    i.BusFault_Handler                       0x0800040a   Section        0  stm32f10x_it.o(i.BusFault_Handler)
    i.DS18B20_Check                          0x08000410   Section        0  ds18b20.o(i.DS18B20_Check)
    i.DS18B20_Get_Temp                       0x08000474   Section        0  ds18b20.o(i.DS18B20_Get_Temp)
    i.DS18B20_Read_Bit                       0x08000500   Section        0  ds18b20.o(i.DS18B20_Read_Bit)
    i.DS18B20_Read_Byte                      0x0800056c   Section        0  ds18b20.o(i.DS18B20_Read_Byte)
    i.DS18B20_Rst                            0x08000590   Section        0  ds18b20.o(i.DS18B20_Rst)
    i.DS18B20_Start                          0x080005d4   Section        0  ds18b20.o(i.DS18B20_Start)
    i.DS18B20_Write_Byte                     0x080005ec   Section        0  ds18b20.o(i.DS18B20_Write_Byte)
    i.DebugMon_Handler                       0x08000660   Section        0  stm32f10x_it.o(i.DebugMon_Handler)
    i.Delay_DS18B20                          0x08000662   Section        0  main.o(i.Delay_DS18B20)
    i.Delay_DS18B20_1us                      0x0800066e   Section        0  ds18b20.o(i.Delay_DS18B20_1us)
    i.GPIO_Init                              0x0800067a   Section        0  stm32f10x_gpio.o(i.GPIO_Init)
    i.GPIO_ReadInputDataBit                  0x08000790   Section        0  stm32f10x_gpio.o(i.GPIO_ReadInputDataBit)
    i.GPIO_ResetBits                         0x080007a2   Section        0  stm32f10x_gpio.o(i.GPIO_ResetBits)
    i.GPIO_SetBits                           0x080007a6   Section        0  stm32f10x_gpio.o(i.GPIO_SetBits)
    i.HardFault_Handler                      0x080007aa   Section        0  stm32f10x_it.o(i.HardFault_Handler)
    i.LCD1602_GPIO_Config                    0x080007b0   Section        0  bsp-lcd1602.o(i.LCD1602_GPIO_Config)
    i.LCD1602_Init                           0x080007f0   Section        0  bsp-lcd1602.o(i.LCD1602_Init)
    i.LCD1602_SetCursor                      0x08000810   Section        0  bsp-lcd1602.o(i.LCD1602_SetCursor)
    i.LCD1602_ShowStr                        0x0800082c   Section        0  bsp-lcd1602.o(i.LCD1602_ShowStr)
    i.LCD1602_WaitReady                      0x08000858   Section        0  bsp-lcd1602.o(i.LCD1602_WaitReady)
    i.LCD1602_WriteCmd                       0x080008ac   Section        0  bsp-lcd1602.o(i.LCD1602_WriteCmd)
    i.LCD1602_WriteDat                       0x0800090c   Section        0  bsp-lcd1602.o(i.LCD1602_WriteDat)
    i.LCD_ShowChar                           0x08000960   Section        0  bsp-lcd1602.o(i.LCD_ShowChar)
    i.LCD_ShowNum                            0x08000978   Section        0  bsp-lcd1602.o(i.LCD_ShowNum)
    i.MemManage_Handler                      0x08000998   Section        0  stm32f10x_it.o(i.MemManage_Handler)
    i.NMI_Handler                            0x0800099c   Section        0  stm32f10x_it.o(i.NMI_Handler)
    i.PendSV_Handler                         0x0800099e   Section        0  stm32f10x_it.o(i.PendSV_Handler)
    i.RCC_APB2PeriphClockCmd                 0x080009a0   Section        0  stm32f10x_rcc.o(i.RCC_APB2PeriphClockCmd)
    i.SVC_Handler                            0x080009c0   Section        0  stm32f10x_it.o(i.SVC_Handler)
    i.SetSysClock                            0x080009c2   Section        0  system_stm32f10x.o(i.SetSysClock)
    SetSysClock                              0x080009c3   Thumb Code     8  system_stm32f10x.o(i.SetSysClock)
    i.SetSysClockTo72                        0x080009cc   Section        0  system_stm32f10x.o(i.SetSysClockTo72)
    SetSysClockTo72                          0x080009cd   Thumb Code   214  system_stm32f10x.o(i.SetSysClockTo72)
    i.SysTick_Config                         0x08000aac   Section        0  bsp_systick.o(i.SysTick_Config)
    SysTick_Config                           0x08000aad   Thumb Code    76  bsp_systick.o(i.SysTick_Config)
    i.SysTick_Delay_Us                       0x08000b00   Section        0  bsp_systick.o(i.SysTick_Delay_Us)
    i.SysTick_Handler                        0x08000b48   Section        0  stm32f10x_it.o(i.SysTick_Handler)
    i.SystemCoreClockUpdate                  0x08000b4c   Section        0  system_stm32f10x.o(i.SystemCoreClockUpdate)
    i.SystemInit                             0x08000bf0   Section        0  system_stm32f10x.o(i.SystemInit)
    i.UsageFault_Handler                     0x08000c50   Section        0  stm32f10x_it.o(i.UsageFault_Handler)
    i.__scatterload_copy                     0x08000c54   Section       14  handlers.o(i.__scatterload_copy)
    i.__scatterload_null                     0x08000c62   Section        2  handlers.o(i.__scatterload_null)
    i.__scatterload_zeroinit                 0x08000c64   Section       14  handlers.o(i.__scatterload_zeroinit)
    i.main                                   0x08000c74   Section        0  main.o(i.main)
    .data                                    0x20000000   Section       20  system_stm32f10x.o(.data)
    .data                                    0x20000014   Section        8  main.o(.data)
    STACK                                    0x20000020   Section     1024  startup_stm32f10x_ld.o(STACK)

    Global Symbols

    Symbol Name                              Value     Ov Type        Size  Object(Section)

    BuildAttributes$$THM_ISAv4$P$D$K$B$S$PE$A:L22UL41UL21$X:L11$S22US41US21$IEEE1$IW$USESV6$~STKCKD$USESV7$~SHL$OTIME$ROPI$EBA8$MICROLIB$REQ8$PRES8$EABIv2 0x00000000   Number         0  anon$$obj.o ABSOLUTE
    __ARM_use_no_argv                        0x00000000   Number         0  main.o ABSOLUTE
    __cpp_initialize__aeabi_                  - Undefined Weak Reference
    __cxa_finalize                            - Undefined Weak Reference
    __decompress                              - Undefined Weak Reference
    _clock_init                               - Undefined Weak Reference
    _microlib_exit                            - Undefined Weak Reference
    __Vectors_Size                           0x000000ec   Number         0  startup_stm32f10x_ld.o ABSOLUTE
    __Vectors                                0x08000000   Data           4  startup_stm32f10x_ld.o(RESET)
    __Vectors_End                            0x080000ec   Data           0  startup_stm32f10x_ld.o(RESET)
    __main                                   0x080000ed   Thumb Code     0  entry.o(.ARM.Collect$$$$00000000)
    _main_stk                                0x080000ed   Thumb Code     0  entry2.o(.ARM.Collect$$$$00000001)
    _main_scatterload                        0x080000f1   Thumb Code     0  entry5.o(.ARM.Collect$$$$00000004)
    __main_after_scatterload                 0x080000f5   Thumb Code     0  entry5.o(.ARM.Collect$$$$00000004)
    _main_clock                              0x080000f5   Thumb Code     0  entry7b.o(.ARM.Collect$$$$00000008)
    _main_cpp_init                           0x080000f5   Thumb Code     0  entry8b.o(.ARM.Collect$$$$0000000A)
    _main_init                               0x080000f5   Thumb Code     0  entry9a.o(.ARM.Collect$$$$0000000B)
    __rt_final_cpp                           0x080000fd   Thumb Code     0  entry10a.o(.ARM.Collect$$$$0000000D)
    __rt_final_exit                          0x080000fd   Thumb Code     0  entry11a.o(.ARM.Collect$$$$0000000F)
    Reset_Handler                            0x08000101   Thumb Code     8  startup_stm32f10x_ld.o(.text)
    ADC1_2_IRQHandler                        0x0800011b   Thumb Code     0  startup_stm32f10x_ld.o(.text)
    CAN1_RX1_IRQHandler                      0x0800011b   Thumb Code     0  startup_stm32f10x_ld.o(.text)
    CAN1_SCE_IRQHandler                      0x0800011b   Thumb Code     0  startup_stm32f10x_ld.o(.text)
    DMA1_Channel1_IRQHandler                 0x0800011b   Thumb Code     0  startup_stm32f10x_ld.o(.text)
    DMA1_Channel2_IRQHandler                 0x0800011b   Thumb Code     0  startup_stm32f10x_ld.o(.text)
    DMA1_Channel3_IRQHandler                 0x0800011b   Thumb Code     0  startup_stm32f10x_ld.o(.text)
    DMA1_Channel4_IRQHandler                 0x0800011b   Thumb Code     0  startup_stm32f10x_ld.o(.text)
    DMA1_Channel5_IRQHandler                 0x0800011b   Thumb Code     0  startup_stm32f10x_ld.o(.text)
    DMA1_Channel6_IRQHandler                 0x0800011b   Thumb Code     0  startup_stm32f10x_ld.o(.text)
    DMA1_Channel7_IRQHandler                 0x0800011b   Thumb Code     0  startup_stm32f10x_ld.o(.text)
    EXTI0_IRQHandler                         0x0800011b   Thumb Code     0  startup_stm32f10x_ld.o(.text)
    EXTI15_10_IRQHandler                     0x0800011b   Thumb Code     0  startup_stm32f10x_ld.o(.text)
    EXTI1_IRQHandler                         0x0800011b   Thumb Code     0  startup_stm32f10x_ld.o(.text)
    EXTI2_IRQHandler                         0x0800011b   Thumb Code     0  startup_stm32f10x_ld.o(.text)
    EXTI3_IRQHandler                         0x0800011b   Thumb Code     0  startup_stm32f10x_ld.o(.text)
    EXTI4_IRQHandler                         0x0800011b   Thumb Code     0  startup_stm32f10x_ld.o(.text)
    EXTI9_5_IRQHandler                       0x0800011b   Thumb Code     0  startup_stm32f10x_ld.o(.text)
    FLASH_IRQHandler                         0x0800011b   Thumb Code     0  startup_stm32f10x_ld.o(.text)
    I2C1_ER_IRQHandler                       0x0800011b   Thumb Code     0  startup_stm32f10x_ld.o(.text)
    I2C1_EV_IRQHandler                       0x0800011b   Thumb Code     0  startup_stm32f10x_ld.o(.text)
    PVD_IRQHandler                           0x0800011b   Thumb Code     0  startup_stm32f10x_ld.o(.text)
    RCC_IRQHandler                           0x0800011b   Thumb Code     0  startup_stm32f10x_ld.o(.text)
    RTCAlarm_IRQHandler                      0x0800011b   Thumb Code     0  startup_stm32f10x_ld.o(.text)
    RTC_IRQHandler                           0x0800011b   Thumb Code     0  startup_stm32f10x_ld.o(.text)
    SPI1_IRQHandler                          0x0800011b   Thumb Code     0  startup_stm32f10x_ld.o(.text)
    TAMPER_IRQHandler                        0x0800011b   Thumb Code     0  startup_stm32f10x_ld.o(.text)
    TIM1_BRK_IRQHandler                      0x0800011b   Thumb Code     0  startup_stm32f10x_ld.o(.text)
    TIM1_CC_IRQHandler                       0x0800011b   Thumb Code     0  startup_stm32f10x_ld.o(.text)
    TIM1_TRG_COM_IRQHandler                  0x0800011b   Thumb Code     0  startup_stm32f10x_ld.o(.text)
    TIM1_UP_IRQHandler                       0x0800011b   Thumb Code     0  startup_stm32f10x_ld.o(.text)
    TIM2_IRQHandler                          0x0800011b   Thumb Code     0  startup_stm32f10x_ld.o(.text)
    TIM3_IRQHandler                          0x0800011b   Thumb Code     0  startup_stm32f10x_ld.o(.text)
    USART1_IRQHandler                        0x0800011b   Thumb Code     0  startup_stm32f10x_ld.o(.text)
    USART2_IRQHandler                        0x0800011b   Thumb Code     0  startup_stm32f10x_ld.o(.text)
    USBWakeUp_IRQHandler                     0x0800011b   Thumb Code     0  startup_stm32f10x_ld.o(.text)
    USB_HP_CAN1_TX_IRQHandler                0x0800011b   Thumb Code     0  startup_stm32f10x_ld.o(.text)
    USB_LP_CAN1_RX0_IRQHandler               0x0800011b   Thumb Code     0  startup_stm32f10x_ld.o(.text)
    WWDG_IRQHandler                          0x0800011b   Thumb Code     0  startup_stm32f10x_ld.o(.text)
    __aeabi_dmul                             0x08000125   Thumb Code   228  dmul.o(.text)
    __aeabi_i2f                              0x08000209   Thumb Code    18  fflti.o(.text)
    __aeabi_d2iz                             0x0800021b   Thumb Code    62  dfixi.o(.text)
    __aeabi_f2d                              0x08000259   Thumb Code    38  f2d.o(.text)
    __aeabi_llsr                             0x0800027f   Thumb Code    32  llushr.o(.text)
    _ll_ushift_r                             0x0800027f   Thumb Code     0  llushr.o(.text)
    __I$use$fp                               0x0800029f   Thumb Code     0  iusefp.o(.text)
    _float_round                             0x0800029f   Thumb Code    18  fepilogue.o(.text)
    _float_epilogue                          0x080002b1   Thumb Code    92  fepilogue.o(.text)
    _double_round                            0x0800030d   Thumb Code    30  depilogue.o(.text)
    _double_epilogue                         0x0800032b   Thumb Code   156  depilogue.o(.text)
    __scatterload                            0x080003c9   Thumb Code    28  init.o(.text)
    __scatterload_rt2                        0x080003c9   Thumb Code     0  init.o(.text)
    __aeabi_llsl                             0x080003ed   Thumb Code    30  llshl.o(.text)
    _ll_shift_l                              0x080003ed   Thumb Code     0  llshl.o(.text)
    BusFault_Handler                         0x0800040b   Thumb Code     4  stm32f10x_it.o(i.BusFault_Handler)
    DS18B20_Check                            0x08000411   Thumb Code    92  ds18b20.o(i.DS18B20_Check)
    DS18B20_Get_Temp                         0x08000475   Thumb Code   136  ds18b20.o(i.DS18B20_Get_Temp)
    DS18B20_Read_Bit                         0x08000501   Thumb Code    96  ds18b20.o(i.DS18B20_Read_Bit)
    DS18B20_Read_Byte                        0x0800056d   Thumb Code    34  ds18b20.o(i.DS18B20_Read_Byte)
    DS18B20_Rst                              0x08000591   Thumb Code    54  ds18b20.o(i.DS18B20_Rst)
    DS18B20_Start                            0x080005d5   Thumb Code    24  ds18b20.o(i.DS18B20_Start)
    DS18B20_Write_Byte                       0x080005ed   Thumb Code   102  ds18b20.o(i.DS18B20_Write_Byte)
    DebugMon_Handler                         0x08000661   Thumb Code     2  stm32f10x_it.o(i.DebugMon_Handler)
    Delay_DS18B20                            0x08000663   Thumb Code    12  main.o(i.Delay_DS18B20)
    Delay_DS18B20_1us                        0x0800066f   Thumb Code    12  ds18b20.o(i.Delay_DS18B20_1us)
    GPIO_Init                                0x0800067b   Thumb Code   278  stm32f10x_gpio.o(i.GPIO_Init)
    GPIO_ReadInputDataBit                    0x08000791   Thumb Code    18  stm32f10x_gpio.o(i.GPIO_ReadInputDataBit)
    GPIO_ResetBits                           0x080007a3   Thumb Code     4  stm32f10x_gpio.o(i.GPIO_ResetBits)
    GPIO_SetBits                             0x080007a7   Thumb Code     4  stm32f10x_gpio.o(i.GPIO_SetBits)
    HardFault_Handler                        0x080007ab   Thumb Code     4  stm32f10x_it.o(i.HardFault_Handler)
    LCD1602_GPIO_Config                      0x080007b1   Thumb Code    60  bsp-lcd1602.o(i.LCD1602_GPIO_Config)
    LCD1602_Init                             0x080007f1   Thumb Code    32  bsp-lcd1602.o(i.LCD1602_Init)
    LCD1602_SetCursor                        0x08000811   Thumb Code    28  bsp-lcd1602.o(i.LCD1602_SetCursor)
    LCD1602_ShowStr                          0x0800082d   Thumb Code    44  bsp-lcd1602.o(i.LCD1602_ShowStr)
    LCD1602_WaitReady                        0x08000859   Thumb Code    80  bsp-lcd1602.o(i.LCD1602_WaitReady)
    LCD1602_WriteCmd                         0x080008ad   Thumb Code    90  bsp-lcd1602.o(i.LCD1602_WriteCmd)
    LCD1602_WriteDat                         0x0800090d   Thumb Code    80  bsp-lcd1602.o(i.LCD1602_WriteDat)
    LCD_ShowChar                             0x08000961   Thumb Code    24  bsp-lcd1602.o(i.LCD_ShowChar)
    LCD_ShowNum                              0x08000979   Thumb Code    32  bsp-lcd1602.o(i.LCD_ShowNum)
    MemManage_Handler                        0x08000999   Thumb Code     4  stm32f10x_it.o(i.MemManage_Handler)
    NMI_Handler                              0x0800099d   Thumb Code     2  stm32f10x_it.o(i.NMI_Handler)
    PendSV_Handler                           0x0800099f   Thumb Code     2  stm32f10x_it.o(i.PendSV_Handler)
    RCC_APB2PeriphClockCmd                   0x080009a1   Thumb Code    26  stm32f10x_rcc.o(i.RCC_APB2PeriphClockCmd)
    SVC_Handler                              0x080009c1   Thumb Code     2  stm32f10x_it.o(i.SVC_Handler)
    SysTick_Delay_Us                         0x08000b01   Thumb Code    64  bsp_systick.o(i.SysTick_Delay_Us)
    SysTick_Handler                          0x08000b49   Thumb Code     2  stm32f10x_it.o(i.SysTick_Handler)
    SystemCoreClockUpdate                    0x08000b4d   Thumb Code   142  system_stm32f10x.o(i.SystemCoreClockUpdate)
    SystemInit                               0x08000bf1   Thumb Code    78  system_stm32f10x.o(i.SystemInit)
    UsageFault_Handler                       0x08000c51   Thumb Code     4  stm32f10x_it.o(i.UsageFault_Handler)
    __scatterload_copy                       0x08000c55   Thumb Code    14  handlers.o(i.__scatterload_copy)
    __scatterload_null                       0x08000c63   Thumb Code     2  handlers.o(i.__scatterload_null)
    __scatterload_zeroinit                   0x08000c65   Thumb Code    14  handlers.o(i.__scatterload_zeroinit)
    main                                     0x08000c75   Thumb Code   464  main.o(i.main)
    Region$$Table$$Base                      0x08000e80   Number         0  anon$$obj.o(Region$$Table)
    Region$$Table$$Limit                     0x08000ea0   Number         0  anon$$obj.o(Region$$Table)
    SystemCoreClock                          0x20000000   Data           4  system_stm32f10x.o(.data)
    AHBPrescTable                            0x20000004   Data          16  system_stm32f10x.o(.data)
    tem                                      0x20000014   Data           2  main.o(.data)
    tem1                                     0x20000016   Data           2  main.o(.data)
    a                                        0x20000018   Data           1  main.o(.data)
    b                                        0x20000019   Data           1  main.o(.data)
    c                                        0x2000001a   Data           1  main.o(.data)
    t                                        0x2000001b   Data           1  main.o(.data)
    __initial_sp                             0x20000420   Data           0  startup_stm32f10x_ld.o(STACK)



==============================================================================

Memory Map of the image

  Image Entry point : 0x08000101

  Load Region LR_1 (Base: 0x08000000, Size: 0x00000ebc, Max: 0xffffffff, ABSOLUTE)

    Execution Region ER_RO (Base: 0x08000000, Size: 0x00000ea0, Max: 0xffffffff, ABSOLUTE)

    Base Addr    Size         Type   Attr      Idx    E Section Name        Object

    0x08000000   0x000000ec   Data   RO            3    RESET               startup_stm32f10x_ld.o
    0x080000ec   0x00000000   Code   RO         1881  * .ARM.Collect$$$$00000000  mc_w.l(entry.o)
    0x080000ec   0x00000004   Code   RO         1892    .ARM.Collect$$$$00000001  mc_w.l(entry2.o)
    0x080000f0   0x00000004   Code   RO         1895    .ARM.Collect$$$$00000004  mc_w.l(entry5.o)
    0x080000f4   0x00000000   Code   RO         1897    .ARM.Collect$$$$00000008  mc_w.l(entry7b.o)
    0x080000f4   0x00000000   Code   RO         1899    .ARM.Collect$$$$0000000A  mc_w.l(entry8b.o)
    0x080000f4   0x00000008   Code   RO         1900    .ARM.Collect$$$$0000000B  mc_w.l(entry9a.o)
    0x080000fc   0x00000000   Code   RO         1902    .ARM.Collect$$$$0000000D  mc_w.l(entry10a.o)
    0x080000fc   0x00000000   Code   RO         1904    .ARM.Collect$$$$0000000F  mc_w.l(entry11a.o)
    0x080000fc   0x00000004   Code   RO         1893    .ARM.Collect$$$$00002712  mc_w.l(entry2.o)
    0x08000100   0x00000024   Code   RO            4  * .text               startup_stm32f10x_ld.o
    0x08000124   0x000000e4   Code   RO         1884    .text               mf_w.l(dmul.o)
    0x08000208   0x00000012   Code   RO         1886    .text               mf_w.l(fflti.o)
    0x0800021a   0x0000003e   Code   RO         1888    .text               mf_w.l(dfixi.o)
    0x08000258   0x00000026   Code   RO         1890    .text               mf_w.l(f2d.o)
    0x0800027e   0x00000020   Code   RO         1906    .text               mc_w.l(llushr.o)
    0x0800029e   0x00000000   Code   RO         1908    .text               mc_w.l(iusefp.o)
    0x0800029e   0x0000006e   Code   RO         1909    .text               mf_w.l(fepilogue.o)
    0x0800030c   0x000000ba   Code   RO         1911    .text               mf_w.l(depilogue.o)
    0x080003c6   0x00000002   PAD
    0x080003c8   0x00000024   Code   RO         1913    .text               mc_w.l(init.o)
    0x080003ec   0x0000001e   Code   RO         1915    .text               mc_w.l(llshl.o)
    0x0800040a   0x00000004   Code   RO         1623    i.BusFault_Handler  stm32f10x_it.o
    0x0800040e   0x00000002   PAD
    0x08000410   0x00000064   Code   RO         1793    i.DS18B20_Check     ds18b20.o
    0x08000474   0x0000008c   Code   RO         1794    i.DS18B20_Get_Temp  ds18b20.o
    0x08000500   0x0000006c   Code   RO         1796    i.DS18B20_Read_Bit  ds18b20.o
    0x0800056c   0x00000022   Code   RO         1797    i.DS18B20_Read_Byte  ds18b20.o
    0x0800058e   0x00000002   PAD
    0x08000590   0x00000044   Code   RO         1798    i.DS18B20_Rst       ds18b20.o
    0x080005d4   0x00000018   Code   RO         1799    i.DS18B20_Start     ds18b20.o
    0x080005ec   0x00000074   Code   RO         1800    i.DS18B20_Write_Byte  ds18b20.o
    0x08000660   0x00000002   Code   RO         1624    i.DebugMon_Handler  stm32f10x_it.o
    0x08000662   0x0000000c   Code   RO         1579    i.Delay_DS18B20     main.o
    0x0800066e   0x0000000c   Code   RO         1801    i.Delay_DS18B20_1us  ds18b20.o
    0x0800067a   0x00000116   Code   RO          357    i.GPIO_Init         stm32f10x_gpio.o
    0x08000790   0x00000012   Code   RO          361    i.GPIO_ReadInputDataBit  stm32f10x_gpio.o
    0x080007a2   0x00000004   Code   RO          364    i.GPIO_ResetBits    stm32f10x_gpio.o
    0x080007a6   0x00000004   Code   RO          365    i.GPIO_SetBits      stm32f10x_gpio.o
    0x080007aa   0x00000004   Code   RO         1625    i.HardFault_Handler  stm32f10x_it.o
    0x080007ae   0x00000002   PAD
    0x080007b0   0x00000040   Code   RO         1686    i.LCD1602_GPIO_Config  bsp-lcd1602.o
    0x080007f0   0x00000020   Code   RO         1687    i.LCD1602_Init      bsp-lcd1602.o
    0x08000810   0x0000001c   Code   RO         1688    i.LCD1602_SetCursor  bsp-lcd1602.o
    0x0800082c   0x0000002c   Code   RO         1689    i.LCD1602_ShowStr   bsp-lcd1602.o
    0x08000858   0x00000054   Code   RO         1690    i.LCD1602_WaitReady  bsp-lcd1602.o
    0x080008ac   0x00000060   Code   RO         1691    i.LCD1602_WriteCmd  bsp-lcd1602.o
    0x0800090c   0x00000054   Code   RO         1692    i.LCD1602_WriteDat  bsp-lcd1602.o
    0x08000960   0x00000018   Code   RO         1693    i.LCD_ShowChar      bsp-lcd1602.o
    0x08000978   0x00000020   Code   RO         1694    i.LCD_ShowNum       bsp-lcd1602.o
    0x08000998   0x00000004   Code   RO         1626    i.MemManage_Handler  stm32f10x_it.o
    0x0800099c   0x00000002   Code   RO         1627    i.NMI_Handler       stm32f10x_it.o
    0x0800099e   0x00000002   Code   RO         1628    i.PendSV_Handler    stm32f10x_it.o
    0x080009a0   0x00000020   Code   RO          469    i.RCC_APB2PeriphClockCmd  stm32f10x_rcc.o
    0x080009c0   0x00000002   Code   RO         1629    i.SVC_Handler       stm32f10x_it.o
    0x080009c2   0x00000008   Code   RO           24    i.SetSysClock       system_stm32f10x.o
    0x080009ca   0x00000002   PAD
    0x080009cc   0x000000e0   Code   RO           25    i.SetSysClockTo72   system_stm32f10x.o
    0x08000aac   0x00000054   Code   RO         1747    i.SysTick_Config    bsp_systick.o
    0x08000b00   0x00000048   Code   RO         1749    i.SysTick_Delay_Us  bsp_systick.o
    0x08000b48   0x00000002   Code   RO         1630    i.SysTick_Handler   stm32f10x_it.o
    0x08000b4a   0x00000002   PAD
    0x08000b4c   0x000000a4   Code   RO           26    i.SystemCoreClockUpdate  system_stm32f10x.o
    0x08000bf0   0x00000060   Code   RO           27    i.SystemInit        system_stm32f10x.o
    0x08000c50   0x00000004   Code   RO         1631    i.UsageFault_Handler  stm32f10x_it.o
    0x08000c54   0x0000000e   Code   RO         1919    i.__scatterload_copy  mc_w.l(handlers.o)
    0x08000c62   0x00000002   Code   RO         1920    i.__scatterload_null  mc_w.l(handlers.o)
    0x08000c64   0x0000000e   Code   RO         1921    i.__scatterload_zeroinit  mc_w.l(handlers.o)
    0x08000c72   0x00000002   PAD
    0x08000c74   0x0000020c   Code   RO         1580    i.main              main.o
    0x08000e80   0x00000020   Data   RO         1917    Region$$Table       anon$$obj.o


    Execution Region ER_RW (Base: 0x20000000, Size: 0x0000001c, Max: 0xffffffff, ABSOLUTE)

    Base Addr    Size         Type   Attr      Idx    E Section Name        Object

    0x20000000   0x00000014   Data   RW           28    .data               system_stm32f10x.o
    0x20000014   0x00000008   Data   RW         1581    .data               main.o


    Execution Region ER_ZI (Base: 0x2000001c, Size: 0x00000404, Max: 0xffffffff, ABSOLUTE)

    Base Addr    Size         Type   Attr      Idx    E Section Name        Object

    0x2000001c   0x00000004   PAD
    0x20000020   0x00000400   Zero   RW            1    STACK               startup_stm32f10x_ld.o


==============================================================================

Image component sizes


      Code (inc. data)   RO Data    RW Data    ZI Data      Debug   Object Name

       488         18          0          0          0       5606   bsp-lcd1602.o
       156         16          0          0          0      16674   bsp_systick.o
         0          0          0          0          0       4508   core_cm3.o
       602         52          0          0          0       4593   ds18b20.o
       536         60          0          8          0       1490   main.o
        36          8        236          0       1024        880   startup_stm32f10x_ld.o
       304          0          0          0          0       3940   stm32f10x_gpio.o
        26          0          0          0          0       3954   stm32f10x_it.o
        32          6          0          0          0        621   stm32f10x_rcc.o
       492         50          0         20          0     212605   system_stm32f10x.o

    ----------------------------------------------------------------------
      2682        210        268         28       1028     254871   Object Totals
         0          0         32          0          0          0   (incl. Generated)
        10          0          0          0          4          0   (incl. Padding)

    ----------------------------------------------------------------------

      Code (inc. data)   RO Data    RW Data    ZI Data      Debug   Library Member Name

         0          0          0          0          0          0   entry.o
         0          0          0          0          0          0   entry10a.o
         0          0          0          0          0          0   entry11a.o
         8          4          0          0          0          0   entry2.o
         4          0          0          0          0          0   entry5.o
         0          0          0          0          0          0   entry7b.o
         0          0          0          0          0          0   entry8b.o
         8          4          0          0          0          0   entry9a.o
        30          0          0          0          0          0   handlers.o
        36          8          0          0          0         68   init.o
         0          0          0          0          0          0   iusefp.o
        30          0          0          0          0         68   llshl.o
        32          0          0          0          0         68   llushr.o
       186          0          0          0          0        176   depilogue.o
        62          0          0          0          0         80   dfixi.o
       228          0          0          0          0         96   dmul.o
        38          0          0          0          0         68   f2d.o
       110          0          0          0          0        168   fepilogue.o
        18          0          0          0          0         68   fflti.o

    ----------------------------------------------------------------------
       794         16          0          0          0        860   Library Totals
         4          0          0          0          0          0   (incl. Padding)

    ----------------------------------------------------------------------

      Code (inc. data)   RO Data    RW Data    ZI Data      Debug   Library Name

       148         16          0          0          0        204   mc_w.l
       642          0          0          0          0        656   mf_w.l

    ----------------------------------------------------------------------
       794         16          0          0          0        860   Library Totals

    ----------------------------------------------------------------------

==============================================================================


      Code (inc. data)   RO Data    RW Data    ZI Data      Debug   

      3476        226        268         28       1028     253699   Grand Totals
      3476        226        268         28       1028     253699   ELF Image Totals
      3476        226        268         28          0          0   ROM Totals

==============================================================================

    Total RO  Size (Code + RO Data)                 3744 (   3.66kB)
    Total RW  Size (RW Data + ZI Data)              1056 (   1.03kB)
    Total ROM Size (Code + RO Data + RW Data)       3772 (   3.68kB)

==============================================================================

