:020000040800F2
:1000000020040020010100089D090008AB0700083A
:10001000990900080B040008510C000800000000BA
:10002000000000000000000000000000C1090008FE
:1000300061060008000000009F090008490B000845
:100040001B0100081B0100081B0100081B01000820
:100050001B0100081B0100081B0100081B01000810
:100060001B0100081B0100081B0100081B01000800
:100070001B0100081B0100081B0100081B010008F0
:100080001B0100081B0100081B0100081B010008E0
:100090001B0100081B0100081B0100081B010008D0
:1000A0001B0100081B0100081B0100081B010008C0
:1000B0001B0100081B010008000000001B010008D4
:1000C0001B01000800000000000000001B010008E8
:1000D000000000001B0100081B01000800000000D8
:1000E0001B0100081B0100081B010008DFF80CD0F1
:1000F00000F06AF900480047750C00082004002051
:100100000648804706480047FEE7FEE7FEE7FEE7B1
:10011000FEE7FEE7FEE7FEE7FEE7FEE7F10B00087D
:10012000ED0000082DE9FE4F81EA030404F00044CD
:1001300021F0004100944FF0000B23F0004350EAFF
:1001400001045ED052EA03045BD0C3F30A54C1F346
:100150000A552C44A4F2F3340194A0FB0254C1F3D9
:10016000130141F48011C3F3130343F4801301FB23
:10017000024400FB034E840A970A44EA815447EA8A
:100180008357A4FB076802958D0A05FB07854FEA94
:10019000932C04FB0C542705029D4FEA065847EAAE
:1001A0001637B5EB08056EEB070C870E920E47EA83
:1001B000811742EA8312A7FB0201B6EB0B0164EB45
:1001C00000042B0D43EA0C335E1844EB1C50DA4656
:1001D0005146E7FB0201C5F313044FEA0B3343EA30
:1001E00014534FEA0432019C43EA0603A4F10C04C1
:1001F0000294009CCDE900B400F097F803B0BDE88C
:10020000F08F00200146F9E7C10F80EAE070084452
:10021000CA079623002100F04BB870B5C1F30A520B
:1002200001F000450024C1F3130140F2FF3341F413
:1002300080119A4201DA002070BD40F233439A42A5
:10024000A2F2334203DC524200F019F800E0904081
:100250002C43F1D0404270BD00F0004230F000402D
:100260000AD0C10D01F56071C0F3160042EA0151D8
:10027000C208400711437047002001467047202AFA
:1002800004DB203A21FA02F00021704721FA02F340
:10029000D040C2F12002914008431946704700291E
:1002A000A8BF7047401C490008BF20F001007047FC
:1002B00010B4B0FA80FC00FA0CF050EA010404BF5C
:1002C00010BC704749B1CCF1200421FA04F411FAB2
:1002D0000CF118BF012121430843A3EB0C01CB1DF6
:1002E0004FEA00614FEA102042BF002010BC704767
:1002F00000EBC35010440029A4BF10BC7047401C41
:10030000490008BF20F0010010BC704710B5141E52
:1003100073F1000408DA401C41F1000192185B41BE
:100320001A4301D120F0010010BD2DE9F04D924695
:100330009B4611B1B1FA81F202E0B0FA80F22032AC
:10034000904600F053F804460F4640EA0A0041EA9E
:100350000B0153465A46084313D0114653EA010095
:1003600019D0C8F140025046FFF789FF05460E46F6
:1003700050465946424600F039F8084305D001205E
:1003800004E020463946BDE8F08D0020054346EAEA
:10039000E0762C4337430A986305E40AA0EB080093
:1003A0000022FD0A44EA47540A3002D500200146E3
:1003B000E9E7010510196941DDE9084500196941BE
:1003C000BDE8F04DA2E70000064C074D06E0E068EE
:1003D00040F0010394E8070098471034AC42F6D38C
:1003E000FFF788FE800E0008A00E0008202A04DB1C
:1003F000203A00FA02F1002070479140C2F1200338
:1004000020FA03F319439040704700BFFEE7000055
:1004100000B500231548006820F00F00134908605C
:100420000846006840F00800086004E0581CC3B2A9
:10043000012000F01CF90E48006808B1C82BF5DB5C
:10044000C82B01DB012000BD002304E0581CC3B20F
:10045000012000F00CF90648006808B9F02BF5DB24
:10046000F02B01DB0120EEE70020ECE7040C01405B
:10047000208121422DE9F84F00F0ACF800F088F817
:10048000FFF7C6FFCC2000F0B1F8BE2000F0AEF8B8
:1004900000F06CF8834600F069F80446072C08DD8C
:1004A000E043C4B26FEA0B0000F0FF0B4FF0000A0C
:1004B00001E04FF0010AA1464FEA09200FFA80F946
:1004C00009EB0B000FFA80F94846FFF79DFE0090FC
:1004D000FFF7C2FE07460022084BFFF723FE054642
:1004E000FFF79BFE0FFA80F9BAF1000F02D04846E1
:1004F000BDE8F88FC9F1000000B2F9E70000E43F61
:1005000000B51748006820F00F001549086008463C
:10051000006840F0030008600020124908600220D3
:1005200000F0A5F801201049C1F8A0010C480068AE
:1005300020F00F000A4908600846006840F00800F3
:1005400008600C2000F093F806488038006808B175
:10055000012300E00023322000F089F8184600BD96
:10056000040C0140A08121420080214270B5002688
:10057000012508E0FFF7C4FF0446E00140EA6600F9
:10058000C6B2681CC5B2082DF4DD304670BD00004F
:1005900000B50D48006820F00F000B4908600846C0
:1005A000006840F00300086000200849086040F23D
:1005B000EE2000F05CF801200549C1F8A0010F20F1
:1005C00000F055F800BD0000040C0140A08121425C
:1005D0000080214200B5FFF7DBFFFFF719FFCC20B9
:1005E00000F004F8442000F001F800BD30B50346E7
:1005F0001848006820F00F00164908600846006897
:1006000040F003000860012420E003F001055B10C6
:100610006DB1002010490860022000F028F8012088
:100620000E49C1F8A0013C2000F021F80CE00020A8
:10063000094908603C2000F01AF801200749C1F878
:10064000A001022000F013F8601CC4B2082CDCDD0D
:1006500030BD0000040C0140A081214200802142F5
:10066000704700BF011EA0F10100FBD1704700BF21
:10067000011EA0F10100FBD170472DE9F0410246B7
:1006800000250026002000230024002791F803C045
:100690000CF00F0591F803C00CF0100CBCF1000F2A
:1006A00003D091F802C04CEA050591F800C0BCF1F6
:1006B000000F31D0146800202BE04FF0010C0CFA31
:1006C00000F3B1F800C00CEA03069E4220D183007B
:1006D0004FF00F0C0CFA03F7BC4305FA03FC4CEA8D
:1006E000040491F803C0BCF1280F06D14FF0010CAF
:1006F0000CFA00FCC2F814C00AE091F803C0BCF187
:10070000480F05D14FF0010C0CFA00FCC2F810C0E4
:10071000401C0828D1D31460B1F800C0BCF1FF0F11
:1007200034DD546800202EE000F1080C4FF0010881
:1007300008FA0CF3B1F800C00CEA03069E4221D17E
:1007400083004FF00F0C0CFA03F7BC4305FA03FCCF
:100750004CEA040491F803C0BCF1280F05D100F164
:10076000080C08FA0CF8C2F8148091F803C0BCF128
:10077000480F07D100F1080C4FF0010808FA0CF8F7
:10078000C2F81080401C0828CED35460BDE8F08128
:100790000246002093680B400BB1012000E00020CE
:1007A0007047416170470161704700BFFEE700007C
:1007B00008B50121082000F0F3F810208DF803009F
:1007C00001208DF802004FF4E050ADF800006946BA
:1007D0000648FFF752FF14208DF80300FF20ADF804
:1007E000000069460148FFF748FF08BD000C0140C2
:1007F00010B5FFF7DDFF382000F058F80C2000F0AE
:1008000055F8062000F052F8012000F04FF810BD16
:1008100070B504460E460EB9E5B202E004F14000A0
:10082000C5B245F0800000F041F870BD2DE9F041FF
:1008300006460F4614461D4639463046FFF7E8FF88
:1008400003E014F8010B00F061F8281EA5F1010186
:10085000CDB2F6D1BDE8F08110B5FF201249086095
:10086000891411480C38FFF79CFF4FF400610E48C3
:100870000C38FFF798FF4FF480610B480C38FFF7F6
:1008800092FF012000F03CF900BF802106480C389F
:10089000FFF77EFF04464FF4806103480C38FFF7F2
:1008A00080FF002CF1D110BD0C0C014010B50446A6
:1008B000FFF7D2FF4FF480511348FFF772FF4FF458
:1008C00000611148FFF76DFF4FF480610E48FFF79C
:1008D00068FF012000F014F94FF480610A48FFF727
:1008E00062FF09480C30006844F47F410840064923
:1008F0000C31086009150448FFF753FF4FF4C87026
:1009000000F0FEF810BD0000000C014010B50446D8
:10091000FFF7A2FF4FF480511048FFF744FF4FF458
:1009200000610E48FFF73DFF1E2000F0E9F84FF48C
:1009300080610A48FFF737FF08480C30006844F42C
:100940007F41084005490C31086009150348FFF74D
:1009500028FF4FF4C87000F0D3F810BD000C014020
:1009600070B505460E46144631462846FFF750FF3F
:100970002046FFF7CBFF70BD70B505460E46144606
:1009800031462846FFF744FF04F13000C2B2314639
:100990002846FFF7E5FF70BD00BFFEE770477047D0
:1009A00029B1064A92690243044B9A6104E0034A62
:1009B00092698243014B9A61704700000010024027
:1009C000704710B500F002F810BD00000CB5002013
:1009D000019000903348006840F48030314908604D
:1009E00000BF3048006800F4003000900198401CBF
:1009F0000190009818B90198B0F5A06FF1D129487D
:100A0000006800F4003010B10120009001E00020E7
:100A100000900098012843D12348006840F010005E
:100A2000214908600846006820F003000860084675
:100A3000006840F0020008601A48406819494860A0
:100A40000846406848600846406840F48060486056
:100A50000846406820F47C1048600846406840F42E
:100A6000E81048600846006840F08070086000BFE9
:100A70000C48006800F000700028F9D00948406870
:100A800020F00300074948600846406840F0020033
:100A9000486000BF0348406800F00C000828F9D106
:100AA0000CBD0000001002400020024030B501469D
:100AB000B1F1807F01D3012030BD21F07F40401E85
:100AC0004FF0E022506150170F22002807DA130779
:100AD0001D0E094B00F00F04241F1D5503E01307E2
:100AE0001C0E064B1C5400BF00204FF0E02290610A
:100AF000072010610020DFE718ED00E000E400E0CF
:100B000031B50F4800680F49B0FBF1F52846FFF7F3
:100B1000CDFF002408E000BF4FF0E020006900F4A2
:100B200080300028F8D0641C00988442F3D34FF042
:100B3000E020006920F001004FF0E021086138BD9D
:100B40000000002040420F007047000010B5002157
:100B500000200022214B5B6803F00C0121B1042925
:100B600006D0082928D107E01D4B1E4C236027E042
:100B70001B4B1C4C236023E0184B5B6803F4701084
:100B8000164B5B6803F48032022303EB904022B9DA
:100B9000154B4343134C23600DE0104B5B6803F48B
:100BA000003323B1104B43430E4C236003E00C4B46
:100BB00043430C4C236003E0094B0A4C236000BF05
:100BC00000BF064B5B68C3F30313084CE15C054BA5
:100BD0001B68CB40034C236010BD00000010024096
:100BE00000127A000000002000093D0004000020EF
:100BF00010B51348006840F001001149086008462C
:100C00004068104908400E494860084600680E498F
:100C100008400B4908600846006820F480200860FE
:100C20000846406820F4FE0048604FF41F008860CA
:100C3000FFF7C7FE4FF000600449086010BD0000D8
:100C4000001002400000FFF8FFFFF6FE08ED00E094
:100C500000BFFEE702E008C8121F08C1002AFAD14F
:100C600070477047002001E001C1121F002AFBD12C
:100C70007047000008B5FFF769FFFFF7B9FD0D23C6
:100C800070A200210220FFF7D1FD01210820FFF70B
:100C900087FE10208DF8030001208DF8020000026D
:100CA000ADF8000069466B48FFF7E7FC4FF4807130
:100CB0006848FFF778FD684800686849087030E0C8
:100CC0006448001D006820F00F006249091D08609B
:100CD0000846006840F00300086000205E4980314B
:100CE000086040F2EE20FFF7BCFC01205C49C1F82F
:100CF000A0010F20FFF7B5FC5648001D006820F04A
:100D00000F005449091D08600846006840F00800BB
:100D100008606420FFF7A5FC5148D0F820014F4936
:100D200008704E4800780028CAD1FFF7A3FB4D4950
:100D300008804D48FFF795FC83E0FFF79BFB49498E
:100D400008800846B0F90000002836DD0846B0F9F2
:100D50000000642190FBF1F0444908704148B0F96B
:100D60000000642190FBF1F201FB12000A2190FBCC
:100D7000F1F03F4908703B48B0F900000A2190FBB0
:100D8000F1F201FB12003B4908702B2200210820E0
:100D9000FFF7E6FD3548027800210920FFF7ECFD5A
:100DA0003348027800210A20FFF7E6FD3148027837
:100DB00000210C20FFF7E0FD40E02A480088404277
:100DC00000B22D49088008460088401C00B2088007
:100DD0000846B0F90000642190FBF1F02349087047
:100DE0002548B0F90000642190FBF1F201FB1200EC
:100DF0000A2190FBF1F01E4908701F48B0F900006D
:100E00000A2190FBF1F201FB12001A4908702D2211
:100E100000210820FFF7A4FD1448027800210920D2
:100E2000FFF7AAFD1248027800210A20FFF7A4FD6F
:100E30001048027800210C20FFF79EFD0F48FFF7B5
:100E400010FC7AE774656D70653D3030302E3043AC
:100E500000000000000C0140208121421B00002006
:100E6000008021421400002040420F0018000020A2
:100E7000190000201A00002016000020A0860100A2
:100E8000A00E0008000000201C000000540C000808
:100E9000BC0E00081C00002004040000640C0008C4
:100EA000006CDC02000000000000000001020304EE
:0C0EB00006070809000000000000000018
:0400000508000101ED
:00000001FF
