:020000040800F2
:100000002004002045010008B1020008A9020008F0
:10001000AD0200088D010008210700080000000063
:10002000000000000000000000000000A90300081C
:100030009101000800000000B3020008210500083B
:100040005F0100085F0100085F0100085F01000810
:100050005F0100085F0100085F0100085F01000800
:100060005F0100085F0100085F0100085F010008F0
:100070005F0100085F0100085F0100085F010008E0
:100080005F0100085F0100085F0100085F010008D0
:100090005F0100085F0100085F0100085F010008C0
:1000A0005F0100085F0100085F0100085F010008B0
:1000B0005F0100085F0100085F0100085F010008A0
:1000C0005F0100085F0100085F0100085F01000890
:1000D0005F0100085F0100085F0100085F01000880
:1000E0005F0100085F0100085F0100085F01000870
:1000F0005F0100085F0100085F0100085F01000860
:100100005F0100085F0100085F0100085F0100084F
:100110005F0100085F0100085F0100085F0100083F
:100120005F0100085F0100085F0100085F0100082F
:10013000DFF80CD000F018F8004800474909000823
:10014000200400200648804706480047FEE7FEE7F7
:10015000FEE7FEE7FEE7FEE7FEE7FEE7FEE7FEE777
:100160005105000831010008064C074D06E0E06823
:1001700040F0010394E8070098471034AC42F6D3EE
:10018000FFF7DAFF900A0008B00A000800BFFEE798
:1001900070472DE9F041024600250026002000238B
:1001A0000024002791F803C00CF00F0591F803C05C
:1001B0000CF0100CBCF1000F03D091F802C04CEA17
:1001C000050591F800C0BCF1000F31D01468002083
:1001D0002BE04FF0010C0CFA00F3B1F800C00CEA70
:1001E00003069E4220D183004FF00F0C0CFA03F758
:1001F000BC4305FA03FC4CEA040491F803C0BCF1CB
:10020000280F06D14FF0010C0CFA00FCC2F814C004
:100210000AE091F803C0BCF1480F05D14FF0010C82
:100220000CFA00FCC2F810C0401C0828D1D314609E
:10023000B1F800C0BCF1FF0F34DD546800202EE09F
:1002400000F1080C4FF0010808FA0CF3B1F800C0F7
:100250000CEA03069E4221D183004FF00F0C0CFAEA
:1002600003F7BC4305FA03FC4CEA040491F803C00D
:10027000BCF1280F05D100F1080C08FA0CF8C2F8FF
:10028000148091F803C0BCF1480F07D100F1080CAD
:100290004FF0010808FA0CF8C2F81080401C08283A
:1002A000CED35460BDE8F08100BFFEE700BFFEE79B
:1002B0007047704729B1064A92690243044B9A611C
:1002C00004E0034A92698243014B9A61704700003F
:1002D0000010024030B500210022002400232D4DE3
:1002E0006D6805F00C0121B1042905D0082923D13E
:1002F00005E0294D056022E0274D05601FE0254DF2
:100300006D6805F47012234D6D6805F48034022584
:1003100005EB92421CB9214D554305600BE01D4D84
:100320006D6805F400351DB11C4D5543056002E0B4
:10033000194D5543056002E0174D056000BF00BF31
:10034000144D6D6805F0F0010909154D6B5C0568E9
:10035000DD4045600F4D6D6805F4E061090A104D00
:100360006B5C4568DD4085600A4D6D6805F4605141
:10037000C90A0B4D6B5C4568DD40C560054D6D6875
:1003800005F44041890B074D6B5CC568B5FBF3F57F
:10039000056130BD0010024000127A0000093D00E6
:1003A0000500002015000020704710B500F002F88D
:1003B00010BD00000CB5002001900090334800688B
:1003C00040F480303149086000BF3048006800F4D4
:1003D000003000900198401C0190009818B90198D5
:1003E000B0F5A06FF1D12948006800F4003010B1D9
:1003F0000120009001E0002000900098012843D1E6
:100400002348006840F01000214908600846006851
:1004100020F0030008600846006840F00200086011
:100420001A484068194948600846406848600846CC
:10043000406840F4806048600846406820F47C10C2
:1004400048600846406840F4E81048600846006884
:1004500040F08070086000BF0C48006800F0007039
:100460000028F9D00948406820F003000749486097
:100470000846406840F00200486000BF03484068FA
:1004800000F00C000828F9D10CBD0000001002405B
:1004900000200240042808D14FF0E021096941F012
:1004A00004014FF0E022116107E04FF0E0210969FB
:1004B00021F004014FF0E02211617047012808D1BA
:1004C0004FF0E021096941F001014FF0E022116194
:1004D0000EE0811C41B94FF0E021096921F00101D2
:1004E0004FF0E022116103E000214FF0E022916122
:1004F000704710B50146002200230020CB10022BCC
:1005000003D14FF0E024226902E04FF0E024E269D9
:1005100001248C4014400CB1012000E0002010BDEB
:10052000704740B14FF0E021096941F002014FF0FE
:10053000E022116107E04FF0E021096921F002019A
:100540004FF0E022116170474FF0E02148617047A1
:1005500010B51348006840F00100114908600846D2
:100560004068104908400E494860084600680E4936
:1005700008400B4908600846006820F480200860A5
:100580000846406820F4FE0048604FF41F00886071
:10059000FFF70BFF4FF000600449086010BD00003A
:1005A000001002400000FFF8FFFFF6FE08ED00E03B
:1005B00001F40072B2F5007F00D100BFCA4302808F
:1005C000704721B1828942F40052828104E082891D
:1005D0004DF6FF731A408281704702460020B1F544
:1005E000007F00D100BF13880B400BB1012000E059
:1005F00000207047F0B503460024002600250020A7
:1006000040F66A17B94200D100BF1846C1F3421440
:1006100001F01F06012707FA06F5012C01D10C3065
:1006200004E0022C01D1103000E014301AB1076848
:100630002F43076002E00768AF430760F0BD00008A
:100640002DE9F04786B005460E460024A24600BFBD
:10065000A1460027B08900B100BF2F462C8A4CF676
:10066000FF700440F08804432C82AC894EF6F310EE
:100670000440B08831890843718908430443AC8140
:10068000AC8A4FF6FF400440B0890443AC8201A815
:10069000FFF720FE1F48874202D1DDF810A001E0DD
:1006A000DDF80CA0A88900F4004040B10AEBCA00B4
:1006B00000EB0A1031684900B0FBF1F807E00AEBE3
:1006C000CA0000EB0A1031688900B0FBF1F8642021
:1006D000B8FBF0F004012009642101FB1089A8890E
:1006E00000F4004040B1322000EBC900B0FBF1F053
:1006F00000F00700044308E0322000EB09106421F9
:10070000B0FBF1F000F00F0004432C8106B0BDE80F
:10071000F087000000380140C1F308028280704772
:1007200000BFFEE7014A024900F013B80D080008B7
:100730001C00002002E008C8121F08C1002AFAD1DC
:1007400070477047002001E001C1121F002AFBD151
:1007500070472DE9F04116460F460446002503E098
:100760003946B047641C6D1C20780028F8D1284613
:10077000BDE8F08100B585B06846FFF7ABFD6FF0CE
:100780000400FFF787FE0020FFF7CBFE0749019822
:10079000B0FBF1F0064908704FF4FA510198B0FB34
:1007A000F1F00449088005B000BD000000127A0095
:1007B000000000200200002070B5044611480088A7
:1007C00000FB04F5B5F1807F01D36FF07F4528462B
:1007D000FFF7BAFE0020FFF771FE0120FFF76EFE63
:1007E00000BF1020FFF785FE074908700846007813
:1007F0000128F6D1C01EFFF761FE0020FFF75EFE64
:1008000070BD0000020000200400002070B5044606
:100810000D46E1B20548FFF77FFF00BF40210348C6
:10082000FFF7DBFE0028F9D0204670BD00380140FC
:1008300008B501210820FFF73DFD01210420FFF745
:1008400039FD1820ADF8000003208DF802001020BB
:100850008DF8030069460848FFF79BFC0120ADF8BE
:10086000000003208DF8020048208DF8030069463F
:100870000248FFF78EFC08BD000C01400008014053
:1008800010B51A48006860B90A20FFF795FF1748AD
:10089000006830B900BF154800680028FBD001206F
:1008A00010BD1248001F006870B90A20FFF784FFCE
:1008B0000E48001F006838B900BF0C48001F0068D0
:1008C0000028FAD00220EBE70948006860B90A2046
:1008D000FFF772FF0648006830B900BF044800689F
:1008E0000028FBD00320DBE70020D9E7108121425C
:1008F0000001214208B501211020FFF7DBFC4FF475
:100900000050ADF8000003208DF8020010208DF893
:10091000030069460A48FFF73CFC01210820FFF765
:10092000C9FC4FF4E040ADF8000003208DF8020050
:1009300010208DF8030069460248FFF72AFC08BD25
:1009400000100140000C0140002700240025002673
:10095000FFF710FFFFF7CEFF00F050F8FFF768FF3A
:100960002EE0FFF78DFF0746012F04D0022F0DD098
:10097000032F21D115E013A0FFF7D4FEE043C4B24A
:10098000144804601448C0F8B04115E013A0FFF704
:10099000C9FEE843C5B20F4805600F48C0F8B4511E
:1009A0000AE012A0FFF7BEFEF043C6B20948066097
:1009B0000948C0F8B86100BF00BF3220FFF7FCFE55
:1009C000CFE700004B657931207072657373656401
:1009D000210D0A00B4012242008021424B65793288
:1009E0002070726573736564210D0A004B6579335D
:1009F0002070726573736564210D0A0000B585B0BF
:100A0000012144F20400FFF755FC4FF40070ADF8EB
:100A1000100018208DF8130003208DF8120004A98F
:100A20001948FFF7B6FB4FF48060ADF810000420C2
:100A30008DF8130003208DF8120004A91248FFF767
:100A4000A8FB4FF4E13000900020ADF80400ADF8B1
:100A50000600ADF80800ADF80C000C20ADF80A0057
:100A600069460A48FFF7ECFD40210848FFF7A0FD62
:100A7000012240F225510548FFF7BCFD0121034842
:100A8000FFF79FFD05B000BD0008014000380140A0
:100A9000B00A000800000020200000003407000811
:100AA000D00A0008200000200004000044070008CD
:100AB0000000000000000000000102030401020326
:100AC00004060708090204060800000000000000F0
:0400000508000131BD
:00000001FF
