Component: ARM Compiler 5.06 update 6 (build 750) Tool: armlink [4d35ed]

==============================================================================

Section Cross References

    system_stm32f10x.o(i.SetSysClock) refers to system_stm32f10x.o(i.SetSysClockTo72) for SetSysClockTo72
    system_stm32f10x.o(i.SystemCoreClockUpdate) refers to system_stm32f10x.o(.data) for SystemCoreClock
    system_stm32f10x.o(i.SystemInit) refers to system_stm32f10x.o(i.SetSysClock) for SetSysClock
    startup_stm32f10x_md.o(STACK) refers (Special) to heapauxi.o(.text) for __use_two_region_memory
    startup_stm32f10x_md.o(HEAP) refers (Special) to heapauxi.o(.text) for __use_two_region_memory
    startup_stm32f10x_md.o(RESET) refers (Special) to heapauxi.o(.text) for __use_two_region_memory
    startup_stm32f10x_md.o(RESET) refers to startup_stm32f10x_md.o(STACK) for __initial_sp
    startup_stm32f10x_md.o(RESET) refers to startup_stm32f10x_md.o(.text) for Reset_Handler
    startup_stm32f10x_md.o(RESET) refers to stm32f10x_it.o(i.NMI_Handler) for NMI_Handler
    startup_stm32f10x_md.o(RESET) refers to stm32f10x_it.o(i.HardFault_Handler) for HardFault_Handler
    startup_stm32f10x_md.o(RESET) refers to stm32f10x_it.o(i.MemManage_Handler) for MemManage_Handler
    startup_stm32f10x_md.o(RESET) refers to stm32f10x_it.o(i.BusFault_Handler) for BusFault_Handler
    startup_stm32f10x_md.o(RESET) refers to stm32f10x_it.o(i.UsageFault_Handler) for UsageFault_Handler
    startup_stm32f10x_md.o(RESET) refers to stm32f10x_it.o(i.SVC_Handler) for SVC_Handler
    startup_stm32f10x_md.o(RESET) refers to stm32f10x_it.o(i.DebugMon_Handler) for DebugMon_Handler
    startup_stm32f10x_md.o(RESET) refers to stm32f10x_it.o(i.SysTick_Handler) for SysTick_Handler
    startup_stm32f10x_md.o(RESET) refers to stm32f10x_it.o(i.RTC_IRQHandler) for RTC_IRQHandler
    startup_stm32f10x_md.o(RESET) refers to stm32f10x_it.o(i.EXTI0_IRQHandler) for EXTI0_IRQHandler
==============================================================================

Removing Unused input sections from the image.

    Removing core_cm3.o(.emb_text), (32 bytes).
    Removing system_stm32f10x.o(i.SystemCoreClockUpdate), (172 bytes).
    Removing system_stm32f10x.o(.data), (20 bytes).
    Removing misc.o(i.NVIC_SetVectorTable), (20 bytes).
    Removing misc.o(i.NVIC_SystemLPConfig), (32 bytes).
    Removing misc.o(i.SysTick_CLKSourceConfig), (40 bytes).
    Removing stm32f10x_adc.o(i.ADC_AnalogWatchdogCmd), (20 bytes).
    Removing stm32f10x_adc.o(i.ADC_AnalogWatchdogSingleChannelConfig), (16 bytes).
    Removing stm32f10x_adc.o(i.ADC_AnalogWatchdogThresholdsConfig), (6 bytes).
    Removing stm32f10x_adc.o(i.ADC_AutoInjectedConvCmd), (22 bytes).
    Removing stm32f10x_adc.o(i.ADC_ClearFlag), (6 bytes).
    Removing stm32f10x_adc.o(i.ADC_ClearITPendingBit), (10 bytes).
    Removing stm32f10x_adc.o(i.ADC_DMACmd), (22 bytes).
    Removing stm32f10x_adc.o(i.ADC_DiscModeChannelCountConfig), (24 bytes).
    Removing stm32f10x_adc.o(i.ADC_DiscModeCmd), (22 bytes).
    Removing stm32f10x_adc.o(i.ADC_ExternalTrigConvCmd), (22 bytes).
    Removing stm32f10x_adc.o(i.ADC_ExternalTrigInjectedConvCmd), (22 bytes).
    Removing stm32f10x_adc.o(i.ADC_ExternalTrigInjectedConvConfig), (16 bytes).
==============================================================================

Image Symbol Table

    Local Symbols

    Symbol Name                              Value     Ov Type        Size  Object(Section)

    ../clib/angel/boardlib.s                 0x00000000   Number         0  boardinit3.o ABSOLUTE
    ../clib/angel/boardlib.s                 0x00000000   Number         0  boardinit2.o ABSOLUTE
    ../clib/angel/boardlib.s                 0x00000000   Number         0  boardinit1.o ABSOLUTE
    ../clib/angel/boardlib.s                 0x00000000   Number         0  boardshut.o ABSOLUTE
    ../clib/angel/handlers.s                 0x00000000   Number         0  __scatter_zi.o ABSOLUTE
    ../clib/angel/handlers.s                 0x00000000   Number         0  __scatter_copy.o ABSOLUTE
    ../clib/angel/kernel.s                   0x00000000   Number         0  __rtentry.o ABSOLUTE
    ../clib/angel/kernel.s                   0x00000000   Number         0  rtexit2.o ABSOLUTE
    ../clib/angel/kernel.s                   0x00000000   Number         0  rtexit.o ABSOLUTE
    ../clib/angel/kernel.s                   0x00000000   Number         0  __rtentry2.o ABSOLUTE
    ../clib/angel/kernel.s                   0x00000000   Number         0  __rtentry4.o ABSOLUTE
    ../clib/angel/rt.s                       0x00000000   Number         0  rt_locale_intlibspace.o ABSOLUTE
    ../clib/angel/rt.s                       0x00000000   Number         0  rt_locale.o ABSOLUTE
    ../clib/angel/rt.s                       0x00000000   Number         0  rt_ctype_table.o ABSOLUTE
    ../clib/angel/rt.s                       0x00000000   Number         0  rt_raise.o ABSOLUTE
    ../clib/angel/scatter.s                  0x00000000   Number         0  __scatter.o ABSOLUTE
    ../clib/angel/startup.s                  0x00000000   Number         0  __main.o ABSOLUTE
    ../clib/angel/sys.s                      0x00000000   Number         0  sys_stackheap_outer.o ABSOLUTE
    ../clib/angel/sys.s                      0x00000000   Number         0  use_no_semi.o ABSOLUTE
    ../clib/angel/sys.s                      0x00000000   Number         0  libspace.o ABSOLUTE
    ../clib/angel/sys.s                      0x00000000   Number         0  use_no_semi_2.o ABSOLUTE
    ../clib/angel/sys.s                      0x00000000   Number         0  indicate_semi.o ABSOLUTE
    ../clib/angel/sysapp.c                   0x00000000   Number         0  sys_command.o ABSOLUTE
    ../clib/angel/sysapp.c                   0x00000000   Number         0  sys_wrch.o ABSOLUTE
    ../clib/armsys.c                         0x00000000   Number         0  no_argv.o ABSOLUTE
    ../clib/armsys.c                         0x00000000   Number         0  _get_argv_nomalloc.o ABSOLUTE
    ../clib/armsys.c                         0x00000000   Number         0  argv_veneer.o ABSOLUTE
    ../clib/armsys.c                         0x00000000   Number         0  argv_veneer.o ABSOLUTE
    ../clib/bigflt.c                         0x00000000   Number         0  bigflt0.o ABSOLUTE
    ../clib/btod.s                           0x00000000   Number         0  btod.o ABSOLUTE
    ../clib/heapalloc.c                      0x00000000   Number         0  hrguard.o ABSOLUTE
    ../clib/heapaux.c                        0x00000000   Number         0  heapauxi.o ABSOLUTE
    ../clib/libinit.s                        0x00000000   Number         0  libinit2.o ABSOLUTE
    ../clib/libinit.s                        0x00000000   Number         0  libshutdown.o ABSOLUTE
    ../clib/libinit.s                        0x00000000   Number         0  libshutdown2.o ABSOLUTE
    ../clib/libinit.s                        0x00000000   Number         0  libinit.o ABSOLUTE
    ../clib/locale.c                         0x00000000   Number         0  _wcrtomb.o ABSOLUTE
    ../clib/locale.s                         0x00000000   Number         0  lc_numeric_c.o ABSOLUTE
    ../clib/locale.s                         0x00000000   Number         0  lc_ctype_c.o ABSOLUTE
    ../clib/longlong.s                       0x00000000   Number         0  lludiv10.o ABSOLUTE
    ../clib/memcpset.s                       0x00000000   Number         0  strcmpv7m.o ABSOLUTE
    ../clib/misc.s                           0x00000000   Number         0  printf_stubs.o ABSOLUTE
    ../clib/printf.c                         0x00000000   Number         0  __printf_ss_wp.o ABSOLUTE
    ../clib/printf.c                         0x00000000   Number         0  __printf_flags_ss_wp.o ABSOLUTE
    ../clib/printf.c                         0x00000000   Number         0  _printf_hex_int.o ABSOLUTE
    ../clib/printf.c                         0x00000000   Number         0  _printf_char_file.o ABSOLUTE
    ../clib/printf.c                         0x00000000   Number         0  _printf_char.o ABSOLUTE
    ../clib/printf.c                         0x00000000   Number         0  _printf_hex_ll.o ABSOLUTE
    ../clib/printf.c                         0x00000000   Number         0  _sputc.o ABSOLUTE
    ../clib/printf.c                         0x00000000   Number         0  _printf_oct_int_ll.o ABSOLUTE
    ../clib/printf.c                         0x00000000   Number         0  _printf_char_common.o ABSOLUTE
    ../clib/printf.c                         0x00000000   Number         0  _printf_fp_dec.o ABSOLUTE
    ../clib/printf.c                         0x00000000   Number         0  _printf_charcount.o ABSOLUTE
    ../clib/printf.c                         0x00000000   Number         0  _printf_intcommon.o ABSOLUTE
    ../clib/printf.c                         0x00000000   Number         0  _printf_oct_int.o ABSOLUTE
    ../clib/printf.c                         0x00000000   Number         0  _printf_oct_ll.o ABSOLUTE
    ../clib/printf.c                         0x00000000   Number         0  _printf_truncate.o ABSOLUTE
    ../clib/printf.c                         0x00000000   Number         0  _printf_pad.o ABSOLUTE
    ../clib/printf.c                         0x00000000   Number         0  _printf_longlong_dec.o ABSOLUTE
    ../clib/printf.c                         0x00000000   Number         0  _printf_wctomb.o ABSOLUTE
    ../clib/printf.c                         0x00000000   Number         0  _printf_hex_ptr.o ABSOLUTE
    ../clib/printf.c                         0x00000000   Number         0  _printf_wchar.o ABSOLUTE
    ../clib/printf.c                         0x00000000   Number         0  __printf_nopercent.o ABSOLUTE
    ../clib/printf.c                         0x00000000   Number         0  _printf_fp_infnan.o ABSOLUTE
    ../clib/printf.c                         0x00000000   Number         0  _printf_hex_int_ll_ptr.o ABSOLUTE
    ../clib/printf.c                         0x00000000   Number         0  _printf_hex_ll_ptr.o ABSOLUTE
    ../clib/printf.c                         0x00000000   Number         0  c89vsprintf.o ABSOLUTE
    ../clib/printf.c                         0x00000000   Number         0  __2printf.o ABSOLUTE
    ../clib/printf.c                         0x00000000   Number         0  _printf_hex_int_ptr.o ABSOLUTE
    ../clib/printf.c                         0x00000000   Number         0  noretval__2printf.o ABSOLUTE
    ../clib/printf.c                         0x00000000   Number         0  __printf.o ABSOLUTE
    ../clib/printf.c                         0x00000000   Number         0  _printf_str.o ABSOLUTE
    ../clib/printf.c                         0x00000000   Number         0  _printf_dec.o ABSOLUTE
    ../clib/printf.c                         0x00000000   Number         0  __printf_flags.o ABSOLUTE
    ../clib/printf.c                         0x00000000   Number         0  __printf_ss.o ABSOLUTE
    ../clib/printf.c                         0x00000000   Number         0  __printf_flags_ss.o ABSOLUTE
    ../clib/printf.c                         0x00000000   Number         0  __printf_wp.o ABSOLUTE
    ../clib/printf.c                         0x00000000   Number         0  _printf_hex_int_ll.o ABSOLUTE
    ../clib/printf.c                         0x00000000   Number         0  __printf_flags_wp.o ABSOLUTE
    ../clib/printf_percent.s                 0x00000000   Number         0  _printf_u.o ABSOLUTE
    ../clib/printf_percent.s                 0x00000000   Number         0  _printf_c.o ABSOLUTE
    ../clib/printf_percent.s                 0x00000000   Number         0  _printf_n.o ABSOLUTE
    ../clib/printf_percent.s                 0x00000000   Number         0  _printf_x.o ABSOLUTE
    ../clib/printf_percent.s                 0x00000000   Number         0  _printf_p.o ABSOLUTE
    ../clib/printf_percent.s                 0x00000000   Number         0  _printf_o.o ABSOLUTE
    ../clib/printf_percent.s                 0x00000000   Number         0  _printf_i.o ABSOLUTE
    ../clib/printf_percent.s                 0x00000000   Number         0  _printf_percent_end.o ABSOLUTE
    ../clib/printf_percent.s                 0x00000000   Number         0  _printf_s.o ABSOLUTE
    ../clib/printf_percent.s                 0x00000000   Number         0  _printf_ll.o ABSOLUTE
    ../clib/printf_percent.s                 0x00000000   Number         0  _printf_e.o ABSOLUTE
    ../clib/printf_percent.s                 0x00000000   Number         0  _printf_a.o ABSOLUTE
    ../clib/printf_percent.s                 0x00000000   Number         0  _printf_llx.o ABSOLUTE
    ../clib/printf_percent.s                 0x00000000   Number         0  _printf_llo.o ABSOLUTE
    ../clib/printf_percent.s                 0x00000000   Number         0  _printf_ls.o ABSOLUTE
    ../clib/printf_percent.s                 0x00000000   Number         0  _printf_lc.o ABSOLUTE
    ../clib/printf_percent.s                 0x00000000   Number         0  _printf_lli.o ABSOLUTE
    ../clib/printf_percent.s                 0x00000000   Number         0  _printf_l.o ABSOLUTE
    ../clib/printf_percent.s                 0x00000000   Number         0  _printf_llu.o ABSOLUTE
    ../clib/printf_percent.s                 0x00000000   Number         0  _printf_lld.o ABSOLUTE
    ../clib/printf_percent.s                 0x00000000   Number         0  _printf_g.o ABSOLUTE
    ../clib/printf_percent.s                 0x00000000   Number         0  _printf_d.o ABSOLUTE
    ../clib/printf_percent.s                 0x00000000   Number         0  _printf_f.o ABSOLUTE
    ../clib/printf_percent.s                 0x00000000   Number         0  _printf_percent.o ABSOLUTE
    ../clib/signal.c                         0x00000000   Number         0  __raise.o ABSOLUTE
    ../clib/signal.c                         0x00000000   Number         0  defsig_segv_inner.o ABSOLUTE
    ../clib/signal.c                         0x00000000   Number         0  defsig_cppl_inner.o ABSOLUTE
    ../clib/signal.c                         0x00000000   Number         0  defsig_pvfn_inner.o ABSOLUTE
    ../clib/signal.c                         0x00000000   Number         0  defsig_stak_inner.o ABSOLUTE
    ../clib/signal.c                         0x00000000   Number         0  defsig_rtred_inner.o ABSOLUTE
    ../clib/signal.c                         0x00000000   Number         0  defsig_fpe_inner.o ABSOLUTE
    ../clib/signal.c                         0x00000000   Number         0  defsig_abrt_inner.o ABSOLUTE
    ../clib/signal.c                         0x00000000   Number         0  defsig_general.o ABSOLUTE
    ../clib/signal.c                         0x00000000   Number         0  defsig_rtmem_formal.o ABSOLUTE
    ../clib/signal.c                         0x00000000   Number         0  defsig_rtmem_inner.o ABSOLUTE
    ../clib/signal.c                         0x00000000   Number         0  defsig_rtmem_outer.o ABSOLUTE
    ../clib/signal.c                         0x00000000   Number         0  defsig_other.o ABSOLUTE
    ../clib/signal.c                         0x00000000   Number         0  defsig_exit.o ABSOLUTE
    ../clib/signal.s                         0x00000000   Number         0  defsig.o ABSOLUTE
    ../clib/stdio.c                          0x00000000   Number         0  ferror.o ABSOLUTE
    ../clib/stdio.c                          0x00000000   Number         0  ferror_locked.o ABSOLUTE
    ../clib/stdlib.c                         0x00000000   Number         0  exit.o ABSOLUTE
    ../clib/string.c                         0x00000000   Number         0  strlen.o ABSOLUTE
    ../fplib/dretinf.s                       0x00000000   Number         0  dretinf.o ABSOLUTE
    ../fplib/f2d.s                           0x00000000   Number         0  f2d.o ABSOLUTE
    ../fplib/faddsub.s                       0x00000000   Number         0  faddsub_clz.o ABSOLUTE
    ../fplib/fdiv.s                          0x00000000   Number         0  fdiv.o ABSOLUTE
    ../fplib/ffix.s                          0x00000000   Number         0  ffix.o ABSOLUTE
    ../fplib/ffixu.s                         0x00000000   Number         0  ffixu.o ABSOLUTE
    ../fplib/fflt.s                          0x00000000   Number         0  fflt_clz.o ABSOLUTE
    ../fplib/fmul.s                          0x00000000   Number         0  fmul.o ABSOLUTE
    ../fplib/fnaninf.s                       0x00000000   Number         0  fnaninf.o ABSOLUTE
    ../fplib/fpinit.s                        0x00000000   Number         0  fpinit.o ABSOLUTE
    ../fplib/fretinf.s                       0x00000000   Number         0  fretinf.o ABSOLUTE
    ../fplib/istatus.s                       0x00000000   Number         0  istatus.o ABSOLUTE
    ../fplib/printf1.s                       0x00000000   Number         0  printf1.o ABSOLUTE
    ../fplib/usenofp.s                       0x00000000   Number         0  usenofp.o ABSOLUTE
    ../mathlib/fpclassify.c                  0x00000000   Number         0  fpclassify.o ABSOLUTE
    ..\CORE\core_cm3.c                       0x00000000   Number         0  core_cm3.o ABSOLUTE
    ..\CORE\startup\arm\startup_stm32f10x_md.s 0x00000000   Number         0  startup_stm32f10x_md.o ABSOLUTE
    ..\CORE\stm32f10x_it.c                   0x00000000   Number         0  stm32f10x_it.o ABSOLUTE
    ..\CORE\system_stm32f10x.c               0x00000000   Number         0  system_stm32f10x.o ABSOLUTE
    ..\HARDWAER\ADC\adc.c                    0x00000000   Number         0  adc.o ABSOLUTE
    ..\HARDWAER\HC05\hc05.c                  0x00000000   Number         0  hc05.o ABSOLUTE
    ..\HARDWAER\OLED_I2C\OLED_I2C.c          0x00000000   Number         0  oled_i2c.o ABSOLUTE
    ..\HARDWAER\beep\beep.c                  0x00000000   Number         0  beep.o ABSOLUTE
    ..\STM32F10x_FWLib\src\misc.c            0x00000000   Number         0  misc.o ABSOLUTE
    ..\STM32F10x_FWLib\src\stm32f10x_adc.c   0x00000000   Number         0  stm32f10x_adc.o ABSOLUTE
    ..\STM32F10x_FWLib\src\stm32f10x_bkp.c   0x00000000   Number         0  stm32f10x_bkp.o ABSOLUTE
    ..\STM32F10x_FWLib\src\stm32f10x_can.c   0x00000000   Number         0  stm32f10x_can.o ABSOLUTE
    ..\STM32F10x_FWLib\src\stm32f10x_cec.c   0x00000000   Number         0  stm32f10x_cec.o ABSOLUTE
    ..\STM32F10x_FWLib\src\stm32f10x_crc.c   0x00000000   Number         0  stm32f10x_crc.o ABSOLUTE
    ..\STM32F10x_FWLib\src\stm32f10x_dac.c   0x00000000   Number         0  stm32f10x_dac.o ABSOLUTE
    ..\STM32F10x_FWLib\src\stm32f10x_dbgmcu.c 0x00000000   Number         0  stm32f10x_dbgmcu.o ABSOLUTE
    ..\STM32F10x_FWLib\src\stm32f10x_dma.c   0x00000000   Number         0  stm32f10x_dma.o ABSOLUTE
    ..\STM32F10x_FWLib\src\stm32f10x_exti.c  0x00000000   Number         0  stm32f10x_exti.o ABSOLUTE
    ..\STM32F10x_FWLib\src\stm32f10x_flash.c 0x00000000   Number         0  stm32f10x_flash.o ABSOLUTE
    ..\STM32F10x_FWLib\src\stm32f10x_fsmc.c  0x00000000   Number         0  stm32f10x_fsmc.o ABSOLUTE
    ..\STM32F10x_FWLib\src\stm32f10x_gpio.c  0x00000000   Number         0  stm32f10x_gpio.o ABSOLUTE
    ..\STM32F10x_FWLib\src\stm32f10x_i2c.c   0x00000000   Number         0  stm32f10x_i2c.o ABSOLUTE
    ..\STM32F10x_FWLib\src\stm32f10x_iwdg.c  0x00000000   Number         0  stm32f10x_iwdg.o ABSOLUTE
    ..\STM32F10x_FWLib\src\stm32f10x_pwr.c   0x00000000   Number         0  stm32f10x_pwr.o ABSOLUTE
    ..\STM32F10x_FWLib\src\stm32f10x_rcc.c   0x00000000   Number         0  stm32f10x_rcc.o ABSOLUTE
    ..\STM32F10x_FWLib\src\stm32f10x_rtc.c   0x00000000   Number         0  stm32f10x_rtc.o ABSOLUTE
    ..\STM32F10x_FWLib\src\stm32f10x_sdio.c  0x00000000   Number         0  stm32f10x_sdio.o ABSOLUTE
    ..\STM32F10x_FWLib\src\stm32f10x_spi.c   0x00000000   Number         0  stm32f10x_spi.o ABSOLUTE
    ..\STM32F10x_FWLib\src\stm32f10x_tim.c   0x00000000   Number         0  stm32f10x_tim.o ABSOLUTE
    ..\STM32F10x_FWLib\src\stm32f10x_usart.c 0x00000000   Number         0  stm32f10x_usart.o ABSOLUTE
    ..\STM32F10x_FWLib\src\stm32f10x_wwdg.c  0x00000000   Number         0  stm32f10x_wwdg.o ABSOLUTE
    ..\SYSTEM\delay\delay.c                  0x00000000   Number         0  delay.o ABSOLUTE
    ..\SYSTEM\exti\exti.c                    0x00000000   Number         0  exti.o ABSOLUTE
    ..\SYSTEM\key\key.c                      0x00000000   Number         0  key.o ABSOLUTE
    ..\SYSTEM\led\led.c                      0x00000000   Number         0  led.o ABSOLUTE
    ..\SYSTEM\sys\sys.c                      0x00000000   Number         0  sys.o ABSOLUTE
    ..\SYSTEM\time\timer.c                   0x00000000   Number         0  timer.o ABSOLUTE
    ..\SYSTEM\usart2\usart2.c                0x00000000   Number         0  usart2.o ABSOLUTE
    ..\SYSTEM\usart\usart.c                  0x00000000   Number         0  usart.o ABSOLUTE
    ..\USER\main.c                           0x00000000   Number         0  main.o ABSOLUTE
    ..\\CORE\\core_cm3.c                     0x00000000   Number         0  core_cm3.o ABSOLUTE
    ..\\SYSTEM\\sys\\sys.c                   0x00000000   Number         0  sys.o ABSOLUTE
    dc.s                                     0x00000000   Number         0  dc.o ABSOLUTE
    RESET                                    0x08000000   Section      236  startup_stm32f10x_md.o(RESET)
    !!!main                                  0x080000ec   Section        8  __main.o(!!!main)
    !!!scatter                               0x080000f4   Section       52  __scatter.o(!!!scatter)
    !!handler_copy                           0x08000128   Section       26  __scatter_copy.o(!!handler_copy)
    !!handler_zi                             0x08000144   Section       28  __scatter_zi.o(!!handler_zi)
    .ARM.Collect$$_printf_percent$$00000000  0x08000160   Section        0  _printf_percent.o(.ARM.Collect$$_printf_percent$$00000000)
    .ARM.Collect$$_printf_percent$$00000003  0x08000160   Section        6  _printf_f.o(.ARM.Collect$$_printf_percent$$00000003)
    .ARM.Collect$$_printf_percent$$00000009  0x08000166   Section        6  _printf_d.o(.ARM.Collect$$_printf_percent$$00000009)
    .ARM.Collect$$_printf_percent$$00000017  0x0800016c   Section        4  _printf_percent_end.o(.ARM.Collect$$_printf_percent$$00000017)
    .ARM.Collect$$libinit$$00000000          0x08000170   Section        2  libinit.o(.ARM.Collect$$libinit$$00000000)
    .ARM.Collect$$libinit$$00000002          0x08000172   Section        0  libinit2.o(.ARM.Collect$$libinit$$00000002)
    .ARM.Collect$$libinit$$00000004          0x08000172   Section        0  libinit2.o(.ARM.Collect$$libinit$$00000004)
    .ARM.Collect$$libinit$$0000000A          0x08000172   Section        0  libinit2.o(.ARM.Collect$$libinit$$0000000A)
    .ARM.Collect$$libinit$$0000000C          0x08000172   Section        0  libinit2.o(.ARM.Collect$$libinit$$0000000C)
    .ARM.Collect$$libinit$$0000000E          0x08000172   Section        0  libinit2.o(.ARM.Collect$$libinit$$0000000E)
    .ARM.Collect$$libinit$$0000000F          0x08000172   Section        6  libinit2.o(.ARM.Collect$$libinit$$0000000F)
    .ARM.Collect$$libinit$$00000011          0x08000178   Section        0  libinit2.o(.ARM.Collect$$libinit$$00000011)
    .ARM.Collect$$libinit$$00000013          0x08000178   Section        0  libinit2.o(.ARM.Collect$$libinit$$00000013)
    .ARM.Collect$$libinit$$00000015          0x08000178   Section        0  libinit2.o(.ARM.Collect$$libinit$$00000015)
    .ARM.Collect$$libinit$$00000016          0x08000178   Section       10  libinit2.o(.ARM.Collect$$libinit$$00000016)
    .ARM.Collect$$libinit$$00000017          0x08000182   Section        0  libinit2.o(.ARM.Collect$$libinit$$00000017)
    .ARM.Collect$$libinit$$00000019          0x08000182   Section        0  libinit2.o(.ARM.Collect$$libinit$$00000019)
    .ARM.Collect$$libinit$$0000001B          0x08000182   Section        0  libinit2.o(.ARM.Collect$$libinit$$0000001B)
    .ARM.Collect$$libinit$$0000001D          0x08000182   Section        0  libinit2.o(.ARM.Collect$$libinit$$0000001D)
    .ARM.Collect$$libinit$$0000001F          0x08000182   Section        0  libinit2.o(.ARM.Collect$$libinit$$0000001F)
    .ARM.Collect$$libinit$$00000021          0x08000182   Section        0  libinit2.o(.ARM.Collect$$libinit$$00000021)
    .ARM.Collect$$libinit$$00000023          0x08000182   Section        0  libinit2.o(.ARM.Collect$$libinit$$00000023)
    .ARM.Collect$$libinit$$00000025          0x08000182   Section        0  libinit2.o(.ARM.Collect$$libinit$$00000025)
    .ARM.Collect$$libinit$$0000002C          0x08000182   Section        0  libinit2.o(.ARM.Collect$$libinit$$0000002C)
    .ARM.Collect$$libinit$$0000002E          0x08000182   Section        0  libinit2.o(.ARM.Collect$$libinit$$0000002E)
    .ARM.Collect$$libinit$$00000030          0x08000182   Section        0  libinit2.o(.ARM.Collect$$libinit$$00000030)
    .ARM.Collect$$libinit$$00000032          0x08000182   Section        0  libinit2.o(.ARM.Collect$$libinit$$00000032)
    .ARM.Collect$$libinit$$00000033          0x08000182   Section        2  libinit2.o(.ARM.Collect$$libinit$$00000033)
    .ARM.Collect$$libshutdown$$00000000      0x08000184   Section        2  libshutdown.o(.ARM.Collect$$libshutdown$$00000000)
    .ARM.Collect$$libshutdown$$00000002      0x08000186   Section        0  libshutdown2.o(.ARM.Collect$$libshutdown$$00000002)
    .ARM.Collect$$libshutdown$$00000004      0x08000186   Section        0  libshutdown2.o(.ARM.Collect$$libshutdown$$00000004)
    .ARM.Collect$$libshutdown$$00000007      0x08000186   Section        0  libshutdown2.o(.ARM.Collect$$libshutdown$$00000007)
    .ARM.Collect$$libshutdown$$0000000A      0x08000186   Section        0  libshutdown2.o(.ARM.Collect$$libshutdown$$0000000A)
    .ARM.Collect$$libshutdown$$0000000C      0x08000186   Section        0  libshutdown2.o(.ARM.Collect$$libshutdown$$0000000C)
    .ARM.Collect$$libshutdown$$0000000F      0x08000186   Section        0  libshutdown2.o(.ARM.Collect$$libshutdown$$0000000F)
    .ARM.Collect$$libshutdown$$00000010      0x08000186   Section        2  libshutdown2.o(.ARM.Collect$$libshutdown$$00000010)
    .ARM.Collect$$rtentry$$00000000          0x08000188   Section        0  __rtentry.o(.ARM.Collect$$rtentry$$00000000)
    .ARM.Collect$$rtentry$$00000002          0x08000188   Section        0  __rtentry2.o(.ARM.Collect$$rtentry$$00000002)
    .ARM.Collect$$rtentry$$00000004          0x08000188   Section        6  __rtentry4.o(.ARM.Collect$$rtentry$$00000004)
    .ARM.Collect$$rtentry$$00000009          0x0800018e   Section        0  __rtentry2.o(.ARM.Collect$$rtentry$$00000009)
    .ARM.Collect$$rtentry$$0000000A          0x0800018e   Section        4  __rtentry2.o(.ARM.Collect$$rtentry$$0000000A)
    .ARM.Collect$$rtentry$$0000000C          0x08000192   Section        0  __rtentry2.o(.ARM.Collect$$rtentry$$0000000C)
    .ARM.Collect$$rtentry$$0000000D          0x08000192   Section        8  __rtentry2.o(.ARM.Collect$$rtentry$$0000000D)
    .ARM.Collect$$rtexit$$00000000           0x0800019a   Section        2  rtexit.o(.ARM.Collect$$rtexit$$00000000)
    .ARM.Collect$$rtexit$$00000002           0x0800019c   Section        0  rtexit2.o(.ARM.Collect$$rtexit$$00000002)
    .ARM.Collect$$rtexit$$00000003           0x0800019c   Section        4  rtexit2.o(.ARM.Collect$$rtexit$$00000003)
    .ARM.Collect$$rtexit$$00000004           0x080001a0   Section        6  rtexit2.o(.ARM.Collect$$rtexit$$00000004)
    .text                                    0x080001a8   Section       64  startup_stm32f10x_md.o(.text)
    .text                                    0x080001e8   Section        2  use_no_semi_2.o(.text)
    .text                                    0x080001ec   Section        0  __2printf.o(.text)
    .text                                    0x08000204   Section        0  _printf_dec.o(.text)
    .text                                    0x0800027c   Section        0  __printf_flags_ss_wp.o(.text)
    .text                                    0x08000404   Section      128  strcmpv7m.o(.text)
    .text                                    0x08000484   Section        0  heapauxi.o(.text)
    .text                                    0x0800048a   Section        2  use_no_semi.o(.text)
    .text                                    0x0800048c   Section        0  _printf_intcommon.o(.text)
    .text                                    0x0800053e   Section        0  _printf_fp_dec.o(.text)
    _fp_digits                               0x08000541   Thumb Code   432  _printf_fp_dec.o(.text)
    .text                                    0x0800095c   Section        0  _printf_char_common.o(.text)
    _printf_input_char                       0x0800095d   Thumb Code    10  _printf_char_common.o(.text)
    .text                                    0x0800098c   Section        0  _printf_char_file.o(.text)
    .text                                    0x080009b0   Section        8  rt_locale_intlibspace.o(.text)
    .text                                    0x080009b8   Section      138  lludiv10.o(.text)
    .text                                    0x08000a44   Section        0  _printf_fp_infnan.o(.text)
    .text                                    0x08000ac4   Section        0  bigflt0.o(.text)
    .text                                    0x08000ba8   Section        0  ferror.o(.text)
    .text                                    0x08000bb0   Section        8  libspace.o(.text)
    .text                                    0x08000bb8   Section       74  sys_stackheap_outer.o(.text)
    .text                                    0x08000c02   Section        0  exit.o(.text)
    CL$$btod_d2e                             0x08000c14   Section       62  btod.o(CL$$btod_d2e)
    CL$$btod_d2e_denorm_low                  0x08000c52   Section       70  btod.o(CL$$btod_d2e_denorm_low)
    CL$$btod_d2e_norm_op1                    0x08000c98   Section       96  btod.o(CL$$btod_d2e_norm_op1)
    CL$$btod_div_common                      0x08000cf8   Section      824  btod.o(CL$$btod_div_common)
    CL$$btod_e2e                             0x08001030   Section      220  btod.o(CL$$btod_e2e)
    CL$$btod_ediv                            0x0800110c   Section       42  btod.o(CL$$btod_ediv)
    CL$$btod_emul                            0x08001136   Section       42  btod.o(CL$$btod_emul)
    CL$$btod_mult_common                     0x08001160   Section      580  btod.o(CL$$btod_mult_common)
    i.ADC_Cmd                                0x080013a4   Section        0  stm32f10x_adc.o(i.ADC_Cmd)
    i.ADC_DeInit                             0x080013bc   Section        0  stm32f10x_adc.o(i.ADC_DeInit)
    i.ADC_GetCalibrationStatus               0x08001418   Section        0  stm32f10x_adc.o(i.ADC_GetCalibrationStatus)
    i.ADC_GetConversionValue                 0x0800142c   Section        0  stm32f10x_adc.o(i.ADC_GetConversionValue)
    i.ADC_GetFlagStatus                      0x08001434   Section        0  stm32f10x_adc.o(i.ADC_GetFlagStatus)
    i.ADC_GetResetCalibrationStatus          0x08001446   Section        0  stm32f10x_adc.o(i.ADC_GetResetCalibrationStatus)
    i.ADC_Init                               0x0800145c   Section        0  stm32f10x_adc.o(i.ADC_Init)
    i.ADC_RegularChannelConfig               0x080014ac   Section        0  stm32f10x_adc.o(i.ADC_RegularChannelConfig)
    i.ADC_ResetCalibration                   0x08001564   Section        0  stm32f10x_adc.o(i.ADC_ResetCalibration)
    i.ADC_SoftwareStartConvCmd               0x0800156e   Section        0  stm32f10x_adc.o(i.ADC_SoftwareStartConvCmd)
    i.ADC_StartCalibration                   0x08001584   Section        0  stm32f10x_adc.o(i.ADC_StartCalibration)
    i.Adc_Init                               0x08001590   Section        0  adc.o(i.Adc_Init)
    i.BEEP_Init                              0x08001624   Section        0  beep.o(i.BEEP_Init)
    i.BusFault_Handler                       0x0800165c   Section        0  stm32f10x_it.o(i.BusFault_Handler)
    i.DebugMon_Handler                       0x08001660   Section        0  stm32f10x_it.o(i.DebugMon_Handler)
    i.DelayMs                                0x08001662   Section        0  delay.o(i.DelayMs)
    i.DelayXms                               0x080016a0   Section        0  delay.o(i.DelayXms)
    i.Delay_Init                             0x080016e8   Section        0  delay.o(i.Delay_Init)
    i.EXTI0_IRQHandler                       0x08001720   Section        0  stm32f10x_it.o(i.EXTI0_IRQHandler)
    i.EXTI2_IRQHandler                       0x08001724   Section        0  exti.o(i.EXTI2_IRQHandler)
    i.EXTI3_IRQHandler                       0x08001794   Section        0  exti.o(i.EXTI3_IRQHandler)
    i.EXTI4_IRQHandler                       0x080017e4   Section        0  exti.o(i.EXTI4_IRQHandler)
    i.EXTIX_Init                             0x08001834   Section        0  exti.o(i.EXTIX_Init)
    i.EXTI_ClearITPendingBit                 0x080018e4   Section        0  stm32f10x_exti.o(i.EXTI_ClearITPendingBit)
    i.EXTI_Init                              0x080018f0   Section        0  stm32f10x_exti.o(i.EXTI_Init)
    i.GPIO_EXTILineConfig                    0x08001984   Section        0  stm32f10x_gpio.o(i.GPIO_EXTILineConfig)
    i.GPIO_Init                              0x080019c4   Section        0  stm32f10x_gpio.o(i.GPIO_Init)
    i.GPIO_ReadInputDataBit                  0x08001ada   Section        0  stm32f10x_gpio.o(i.GPIO_ReadInputDataBit)
    i.GPIO_WriteBit                          0x08001aec   Section        0  stm32f10x_gpio.o(i.GPIO_WriteBit)
    i.Get_Adc                                0x08001af8   Section        0  adc.o(i.Get_Adc)
    i.Get_Adc_Average                        0x08001b2c   Section        0  adc.o(i.Get_Adc_Average)
    i.HardFault_Handler                      0x08001ba4   Section        0  stm32f10x_it.o(i.HardFault_Handler)
    i.Hardware_Init                          0x08001ba8   Section        0  main.o(i.Hardware_Init)
    i.I2C_CheckEvent                         0x08001bd0   Section        0  stm32f10x_i2c.o(i.I2C_CheckEvent)
    i.I2C_GenerateSTART                      0x08001bfa   Section        0  stm32f10x_i2c.o(i.I2C_GenerateSTART)
    i.I2C_GenerateSTOP                       0x08001c12   Section        0  stm32f10x_i2c.o(i.I2C_GenerateSTOP)
    i.I2C_GetFlagStatus                      0x08001c2a   Section        0  stm32f10x_i2c.o(i.I2C_GetFlagStatus)
    i.I2C_Send7bitAddress                    0x08001c64   Section        0  stm32f10x_i2c.o(i.I2C_Send7bitAddress)
    i.I2C_SendData                           0x08001c76   Section        0  stm32f10x_i2c.o(i.I2C_SendData)
    i.I2C_WriteByte                          0x08001c7c   Section        0  oled_i2c.o(i.I2C_WriteByte)
    i.KEY_Init                               0x08001d08   Section        0  key.o(i.KEY_Init)
    i.LCD_Pow                                0x08001d2c   Section        0  oled_i2c.o(i.LCD_Pow)
    i.Led2_Set                               0x08001d44   Section        0  led.o(i.Led2_Set)
    i.Led3_Set                               0x08001d74   Section        0  led.o(i.Led3_Set)
    i.Led_Init                               0x08001da4   Section        0  led.o(i.Led_Init)
    i.MemManage_Handler                      0x08001ddc   Section        0  stm32f10x_it.o(i.MemManage_Handler)
    i.NMI_Handler                            0x08001de0   Section        0  stm32f10x_it.o(i.NMI_Handler)
    i.NVIC_Init                              0x08001de4   Section        0  misc.o(i.NVIC_Init)
    i.NVIC_PriorityGroupConfig               0x08001e54   Section        0  misc.o(i.NVIC_PriorityGroupConfig)
    i.OLED_SetPos                            0x08001e68   Section        0  oled_i2c.o(i.OLED_SetPos)
    i.OLED_ShowChar                          0x08001e90   Section        0  oled_i2c.o(i.OLED_ShowChar)
    i.OLED_ShowNum                           0x08001f48   Section        0  oled_i2c.o(i.OLED_ShowNum)
    i.RCC_ADCCLKConfig                       0x08001fc0   Section        0  stm32f10x_rcc.o(i.RCC_ADCCLKConfig)
    i.RCC_APB2PeriphClockCmd                 0x08001fd8   Section        0  stm32f10x_rcc.o(i.RCC_APB2PeriphClockCmd)
    i.RCC_APB2PeriphResetCmd                 0x08001ff8   Section        0  stm32f10x_rcc.o(i.RCC_APB2PeriphResetCmd)
    i.RCC_GetClocksFreq                      0x08002018   Section        0  stm32f10x_rcc.o(i.RCC_GetClocksFreq)
    i.RTC_IRQHandler                         0x080020f4   Section        0  stm32f10x_it.o(i.RTC_IRQHandler)
    i.SVC_Handler                            0x080020f6   Section        0  stm32f10x_it.o(i.SVC_Handler)
    i.SetSysClock                            0x080020f8   Section        0  system_stm32f10x.o(i.SetSysClock)
    SetSysClock                              0x080020f9   Thumb Code     8  system_stm32f10x.o(i.SetSysClock)
    i.SetSysClockTo72                        0x08002100   Section        0  system_stm32f10x.o(i.SetSysClockTo72)
    SetSysClockTo72                          0x08002101   Thumb Code   214  system_stm32f10x.o(i.SetSysClockTo72)
    i.SysTick_Handler                        0x080021e0   Section        0  stm32f10x_it.o(i.SysTick_Handler)
    i.SystemInit                             0x080021e4   Section        0  system_stm32f10x.o(i.SystemInit)
    i.TIM2_IRQHandler                        0x08002244   Section        0  timer.o(i.TIM2_IRQHandler)
    i.TIM3_IRQHandler                        0x0800225c   Section        0  timer.o(i.TIM3_IRQHandler)
    i.TIM_ClearITPendingBit                  0x08002290   Section        0  stm32f10x_tim.o(i.TIM_ClearITPendingBit)
    i.TIM_Cmd                                0x08002296   Section        0  stm32f10x_tim.o(i.TIM_Cmd)
    i.TIM_GetITStatus                        0x080022ae   Section        0  stm32f10x_tim.o(i.TIM_GetITStatus)
    i.TIM_SetCounter                         0x080022d0   Section        0  stm32f10x_tim.o(i.TIM_SetCounter)
    i.USART1_IRQHandler                      0x080022d4   Section        0  usart.o(i.USART1_IRQHandler)
    i.USART3_IRQHandler                      0x0800235c   Section        0  usart2.o(i.USART3_IRQHandler)
    i.USART_Cmd                              0x080023c8   Section        0  stm32f10x_usart.o(i.USART_Cmd)
    i.USART_GetITStatus                      0x080023e0   Section        0  stm32f10x_usart.o(i.USART_GetITStatus)
    i.USART_ITConfig                         0x08002434   Section        0  stm32f10x_usart.o(i.USART_ITConfig)
    i.USART_Init                             0x08002480   Section        0  stm32f10x_usart.o(i.USART_Init)
    i.USART_ReceiveData                      0x08002558   Section        0  stm32f10x_usart.o(i.USART_ReceiveData)
    i.UsageFault_Handler                     0x08002562   Section        0  stm32f10x_it.o(i.UsageFault_Handler)
    i.WriteCmd                               0x08002566   Section        0  oled_i2c.o(i.WriteCmd)
    i.WriteDat                               0x08002574   Section        0  oled_i2c.o(i.WriteDat)
    i.__ARM_fpclassify                       0x08002582   Section        0  fpclassify.o(i.__ARM_fpclassify)
    i._is_digit                              0x080025aa   Section        0  __printf_wp.o(i._is_digit)
    i._sys_exit                              0x080025b8   Section        0  usart.o(i._sys_exit)
    i.fputc                                  0x080025c0   Section        0  usart.o(i.fputc)
    i.main                                   0x080025dc   Section        0  main.o(i.main)
    i.uart_init                              0x0800268c   Section        0  usart.o(i.uart_init)
    locale$$code                             0x08002734   Section       44  lc_numeric_c.o(locale$$code)
    x$fpl$dretinf                            0x08002760   Section       12  dretinf.o(x$fpl$dretinf)
    x$fpl$f2d                                0x0800276c   Section       86  f2d.o(x$fpl$f2d)
    x$fpl$fadd                               0x080027c4   Section      196  faddsub_clz.o(x$fpl$fadd)
    _fadd1                                   0x080027d3   Thumb Code     0  faddsub_clz.o(x$fpl$fadd)
    x$fpl$fdiv                               0x08002888   Section      388  fdiv.o(x$fpl$fdiv)
    _fdiv1                                   0x08002889   Thumb Code     0  fdiv.o(x$fpl$fdiv)
    x$fpl$ffix                               0x08002a0c   Section       54  ffix.o(x$fpl$ffix)
    x$fpl$ffixu                              0x08002a44   Section       62  ffixu.o(x$fpl$ffixu)
    x$fpl$ffltu                              0x08002a84   Section       38  fflt_clz.o(x$fpl$ffltu)
    x$fpl$fmul                               0x08002aac   Section      258  fmul.o(x$fpl$fmul)
    x$fpl$fnaninf                            0x08002bae   Section      140  fnaninf.o(x$fpl$fnaninf)
    x$fpl$fretinf                            0x08002c3a   Section       10  fretinf.o(x$fpl$fretinf)
    x$fpl$fsub                               0x08002c44   Section      234  faddsub_clz.o(x$fpl$fsub)
    _fsub1                                   0x08002c53   Thumb Code     0  faddsub_clz.o(x$fpl$fsub)
    x$fpl$printf1                            0x08002d2e   Section        4  printf1.o(x$fpl$printf1)
    .constdata                               0x08002d32   Section     2072  oled_i2c.o(.constdata)
    x$fpl$usenofp                            0x08002d32   Section        0  usenofp.o(x$fpl$usenofp)
    .constdata                               0x0800354a   Section       17  __printf_flags_ss_wp.o(.constdata)
    maptable                                 0x0800354a   Data          17  __printf_flags_ss_wp.o(.constdata)
    .constdata                               0x0800355c   Section      148  bigflt0.o(.constdata)
    tenpwrs_x                                0x0800355c   Data          60  bigflt0.o(.constdata)
    tenpwrs_i                                0x08003598   Data          64  bigflt0.o(.constdata)
    locale$$data                             0x08003610   Section       28  lc_numeric_c.o(locale$$data)
    __lcnum_c_name                           0x08003614   Data           2  lc_numeric_c.o(locale$$data)
    __lcnum_c_start                          0x0800361c   Data           0  lc_numeric_c.o(locale$$data)
    __lcnum_c_point                          0x08003628   Data           0  lc_numeric_c.o(locale$$data)
    __lcnum_c_thousands                      0x0800362a   Data           0  lc_numeric_c.o(locale$$data)
    __lcnum_c_grouping                       0x0800362b   Data           0  lc_numeric_c.o(locale$$data)
    __lcnum_c_end                            0x0800362c   Data           0  lc_numeric_c.o(locale$$data)
    .data                                    0x20000000   Section       20  stm32f10x_rcc.o(.data)
    APBAHBPrescTable                         0x20000000   Data          16  stm32f10x_rcc.o(.data)
    ADCPrescTable                            0x20000010   Data           4  stm32f10x_rcc.o(.data)
    .data                                    0x20000014   Section        4  delay.o(.data)
    .data                                    0x20000018   Section        4  led.o(.data)
    .data                                    0x2000001c   Section        1  usart2.o(.data)
    .data                                    0x20000020   Section        5  usart.o(.data)
    .data                                    0x20000028   Section       32  main.o(.data)
    .bss                                     0x20000048   Section      128  usart2.o(.bss)
    .bss                                     0x200000c8   Section       64  usart.o(.bss)
    .bss                                     0x20000108   Section       96  libspace.o(.bss)
    HEAP                                     0x20000168   Section     1024  startup_stm32f10x_md.o(HEAP)
    Heap_Mem                                 0x20000168   Data        1024  startup_stm32f10x_md.o(HEAP)
    STACK                                    0x20000568   Section     1024  startup_stm32f10x_md.o(STACK)
    Stack_Mem                                0x20000568   Data        1024  startup_stm32f10x_md.o(STACK)
    __initial_sp                             0x20000968   Data           0  startup_stm32f10x_md.o(STACK)

    Global Symbols

    Symbol Name                              Value     Ov Type        Size  Object(Section)

    BuildAttributes$$THM_ISAv4$P$D$K$B$S$PE$A:L22UL41UL21$X:L11$S22US41US21$IEEE1$IW$USESV6$~STKCKD$USESV7$~SHL$OTIME$ROPI$IEEEJ$EBA8$UX$STANDARDLIB$REQ8$PRES8$EABIv2 0x00000000   Number         0  anon$$obj.o ABSOLUTE
    __ARM_use_no_argv                        0x00000000   Number         0  main.o ABSOLUTE
    _printf_flags                            0x00000000   Number         0  printf_stubs.o ABSOLUTE
    _printf_return_value                     0x00000000   Number         0  printf_stubs.o ABSOLUTE
    _printf_sizespec                         0x00000000   Number         0  printf_stubs.o ABSOLUTE
    _printf_widthprec                        0x00000000   Number         0  printf_stubs.o ABSOLUTE
    __ARM_exceptions_init                     - Undefined Weak Reference
    __alloca_initialize                       - Undefined Weak Reference
    __arm_preinit_                            - Undefined Weak Reference
    __cpp_initialize__aeabi_                  - Undefined Weak Reference
    __cxa_finalize                            - Undefined Weak Reference
    __sigvec_lookup                           - Undefined Weak Reference
    _atexit_init                              - Undefined Weak Reference
    _call_atexit_fns                          - Undefined Weak Reference
    _clock_init                               - Undefined Weak Reference
    _fp_trap_init                             - Undefined Weak Reference
    _fp_trap_shutdown                         - Undefined Weak Reference
    _get_lc_collate                           - Undefined Weak Reference
    _get_lc_monetary                          - Undefined Weak Reference
    _get_lc_time                              - Undefined Weak Reference
    _getenv_init                              - Undefined Weak Reference
    _handle_redirection                       - Undefined Weak Reference
    _init_alloc                               - Undefined Weak Reference
    _init_user_alloc                          - Undefined Weak Reference
    _initio                                   - Undefined Weak Reference
    _mutex_acquire                            - Undefined Weak Reference
    _mutex_release                            - Undefined Weak Reference
    _printf_fp_hex                            - Undefined Weak Reference
    _printf_mbtowc                            - Undefined Weak Reference
    _printf_wc                                - Undefined Weak Reference
    _rand_init                                - Undefined Weak Reference
    _signal_finish                            - Undefined Weak Reference
    _signal_init                              - Undefined Weak Reference
    _terminate_alloc                          - Undefined Weak Reference
    _terminate_user_alloc                     - Undefined Weak Reference
    _terminateio                              - Undefined Weak Reference
    __Vectors_Size                           0x000000ec   Number         0  startup_stm32f10x_md.o ABSOLUTE
    __Vectors                                0x08000000   Data           4  startup_stm32f10x_md.o(RESET)
    __Vectors_End                            0x080000ec   Data           0  startup_stm32f10x_md.o(RESET)
    __main                                   0x080000ed   Thumb Code     8  __main.o(!!!main)
    __scatterload                            0x080000f5   Thumb Code     0  __scatter.o(!!!scatter)
    __scatterload_rt2                        0x080000f5   Thumb Code    44  __scatter.o(!!!scatter)
    __scatterload_rt2_thumb_only             0x080000f5   Thumb Code     0  __scatter.o(!!!scatter)
    __scatterload_null                       0x08000103   Thumb Code     0  __scatter.o(!!!scatter)
    __scatterload_copy                       0x08000129   Thumb Code    26  __scatter_copy.o(!!handler_copy)
    __scatterload_zeroinit                   0x08000145   Thumb Code    28  __scatter_zi.o(!!handler_zi)
    _printf_f                                0x08000161   Thumb Code     0  _printf_f.o(.ARM.Collect$$_printf_percent$$00000003)
    _printf_percent                          0x08000161   Thumb Code     0  _printf_percent.o(.ARM.Collect$$_printf_percent$$00000000)
    _printf_d                                0x08000167   Thumb Code     0  _printf_d.o(.ARM.Collect$$_printf_percent$$00000009)
    _printf_percent_end                      0x0800016d   Thumb Code     0  _printf_percent_end.o(.ARM.Collect$$_printf_percent$$00000017)
    __rt_lib_init                            0x08000171   Thumb Code     0  libinit.o(.ARM.Collect$$libinit$$00000000)
    __rt_lib_init_fp_1                       0x08000173   Thumb Code     0  libinit2.o(.ARM.Collect$$libinit$$00000002)
    __rt_lib_init_heap_1                     0x08000173   Thumb Code     0  libinit2.o(.ARM.Collect$$libinit$$0000000A)
    __rt_lib_init_lc_common                  0x08000173   Thumb Code     0  libinit2.o(.ARM.Collect$$libinit$$0000000F)
    __rt_lib_init_preinit_1                  0x08000173   Thumb Code     0  libinit2.o(.ARM.Collect$$libinit$$00000004)
    __rt_lib_init_rand_1                     0x08000173   Thumb Code     0  libinit2.o(.ARM.Collect$$libinit$$0000000E)
    __rt_lib_init_user_alloc_1               0x08000173   Thumb Code     0  libinit2.o(.ARM.Collect$$libinit$$0000000C)
    __rt_lib_init_lc_collate_1               0x08000179   Thumb Code     0  libinit2.o(.ARM.Collect$$libinit$$00000011)
    __rt_lib_init_lc_ctype_1                 0x08000179   Thumb Code     0  libinit2.o(.ARM.Collect$$libinit$$00000013)
    __rt_lib_init_lc_monetary_1              0x08000179   Thumb Code     0  libinit2.o(.ARM.Collect$$libinit$$00000015)
    __rt_lib_init_lc_numeric_2               0x08000179   Thumb Code     0  libinit2.o(.ARM.Collect$$libinit$$00000016)
    __rt_lib_init_alloca_1                   0x08000183   Thumb Code     0  libinit2.o(.ARM.Collect$$libinit$$0000002E)
    __rt_lib_init_argv_1                     0x08000183   Thumb Code     0  libinit2.o(.ARM.Collect$$libinit$$0000002C)
    __rt_lib_init_atexit_1                   0x08000183   Thumb Code     0  libinit2.o(.ARM.Collect$$libinit$$0000001B)
    __rt_lib_init_clock_1                    0x08000183   Thumb Code     0  libinit2.o(.ARM.Collect$$libinit$$00000021)
    __rt_lib_init_cpp_1                      0x08000183   Thumb Code     0  libinit2.o(.ARM.Collect$$libinit$$00000032)
    __rt_lib_init_exceptions_1               0x08000183   Thumb Code     0  libinit2.o(.ARM.Collect$$libinit$$00000030)
    __rt_lib_init_fp_trap_1                  0x08000183   Thumb Code     0  libinit2.o(.ARM.Collect$$libinit$$0000001F)
    __rt_lib_init_getenv_1                   0x08000183   Thumb Code     0  libinit2.o(.ARM.Collect$$libinit$$00000023)
    __rt_lib_init_lc_numeric_1               0x08000183   Thumb Code     0  libinit2.o(.ARM.Collect$$libinit$$00000017)
    __rt_lib_init_lc_time_1                  0x08000183   Thumb Code     0  libinit2.o(.ARM.Collect$$libinit$$00000019)
    __rt_lib_init_return                     0x08000183   Thumb Code     0  libinit2.o(.ARM.Collect$$libinit$$00000033)
    __rt_lib_init_signal_1                   0x08000183   Thumb Code     0  libinit2.o(.ARM.Collect$$libinit$$0000001D)
    __rt_lib_init_stdio_1                    0x08000183   Thumb Code     0  libinit2.o(.ARM.Collect$$libinit$$00000025)
    __rt_lib_shutdown                        0x08000185   Thumb Code     0  libshutdown.o(.ARM.Collect$$libshutdown$$00000000)
    __rt_lib_shutdown_cpp_1                  0x08000187   Thumb Code     0  libshutdown2.o(.ARM.Collect$$libshutdown$$00000002)
    __rt_lib_shutdown_fp_trap_1              0x08000187   Thumb Code     0  libshutdown2.o(.ARM.Collect$$libshutdown$$00000007)
    __rt_lib_shutdown_heap_1                 0x08000187   Thumb Code     0  libshutdown2.o(.ARM.Collect$$libshutdown$$0000000F)
    __rt_lib_shutdown_return                 0x08000187   Thumb Code     0  libshutdown2.o(.ARM.Collect$$libshutdown$$00000010)
    __rt_lib_shutdown_signal_1               0x08000187   Thumb Code     0  libshutdown2.o(.ARM.Collect$$libshutdown$$0000000A)
    __rt_lib_shutdown_stdio_1                0x08000187   Thumb Code     0  libshutdown2.o(.ARM.Collect$$libshutdown$$00000004)
    __rt_lib_shutdown_user_alloc_1           0x08000187   Thumb Code     0  libshutdown2.o(.ARM.Collect$$libshutdown$$0000000C)
    __rt_entry                               0x08000189   Thumb Code     0  __rtentry.o(.ARM.Collect$$rtentry$$00000000)
    __rt_entry_presh_1                       0x08000189   Thumb Code     0  __rtentry2.o(.ARM.Collect$$rtentry$$00000002)
    __rt_entry_sh                            0x08000189   Thumb Code     0  __rtentry4.o(.ARM.Collect$$rtentry$$00000004)
    __rt_entry_li                            0x0800018f   Thumb Code     0  __rtentry2.o(.ARM.Collect$$rtentry$$0000000A)
    __rt_entry_postsh_1                      0x0800018f   Thumb Code     0  __rtentry2.o(.ARM.Collect$$rtentry$$00000009)
    __rt_entry_main                          0x08000193   Thumb Code     0  __rtentry2.o(.ARM.Collect$$rtentry$$0000000D)
    __rt_entry_postli_1                      0x08000193   Thumb Code     0  __rtentry2.o(.ARM.Collect$$rtentry$$0000000C)
    __rt_exit                                0x0800019b   Thumb Code     0  rtexit.o(.ARM.Collect$$rtexit$$00000000)
    __rt_exit_ls                             0x0800019d   Thumb Code     0  rtexit2.o(.ARM.Collect$$rtexit$$00000003)
    __rt_exit_prels_1                        0x0800019d   Thumb Code     0  rtexit2.o(.ARM.Collect$$rtexit$$00000002)
    __rt_exit_exit                           0x080001a1   Thumb Code     0  rtexit2.o(.ARM.Collect$$rtexit$$00000004)
    Reset_Handler                            0x080001a9   Thumb Code     8  startup_stm32f10x_md.o(.text)
    PendSV_Handler                           0x080001bf   Thumb Code     2  startup_stm32f10x_md.o(.text)
    ADC1_2_IRQHandler                        0x080001c3   Thumb Code     0  startup_stm32f10x_md.o(.text)
    CAN1_RX1_IRQHandler                      0x080001c3   Thumb Code     0  startup_stm32f10x_md.o(.text)
    CAN1_SCE_IRQHandler                      0x080001c3   Thumb Code     0  startup_stm32f10x_md.o(.text)
    DMA1_Channel1_IRQHandler                 0x080001c3   Thumb Code     0  startup_stm32f10x_md.o(.text)
    DMA1_Channel2_IRQHandler                 0x080001c3   Thumb Code     0  startup_stm32f10x_md.o(.text)
    DMA1_Channel3_IRQHandler                 0x080001c3   Thumb Code     0  startup_stm32f10x_md.o(.text)
    DMA1_Channel4_IRQHandler                 0x080001c3   Thumb Code     0  startup_stm32f10x_md.o(.text)
    DMA1_Channel5_IRQHandler                 0x080001c3   Thumb Code     0  startup_stm32f10x_md.o(.text)
    DMA1_Channel6_IRQHandler                 0x080001c3   Thumb Code     0  startup_stm32f10x_md.o(.text)
    DMA1_Channel7_IRQHandler                 0x080001c3   Thumb Code     0  startup_stm32f10x_md.o(.text)
    EXTI15_10_IRQHandler                     0x080001c3   Thumb Code     0  startup_stm32f10x_md.o(.text)
    EXTI1_IRQHandler                         0x080001c3   Thumb Code     0  startup_stm32f10x_md.o(.text)
    EXTI9_5_IRQHandler                       0x080001c3   Thumb Code     0  startup_stm32f10x_md.o(.text)
    FLASH_IRQHandler                         0x080001c3   Thumb Code     0  startup_stm32f10x_md.o(.text)
    I2C1_ER_IRQHandler                       0x080001c3   Thumb Code     0  startup_stm32f10x_md.o(.text)
    I2C1_EV_IRQHandler                       0x080001c3   Thumb Code     0  startup_stm32f10x_md.o(.text)
    I2C2_ER_IRQHandler                       0x080001c3   Thumb Code     0  startup_stm32f10x_md.o(.text)
    I2C2_EV_IRQHandler                       0x080001c3   Thumb Code     0  startup_stm32f10x_md.o(.text)
    PVD_IRQHandler                           0x080001c3   Thumb Code     0  startup_stm32f10x_md.o(.text)
    RCC_IRQHandler                           0x080001c3   Thumb Code     0  startup_stm32f10x_md.o(.text)
    RTCAlarm_IRQHandler                      0x080001c3   Thumb Code     0  startup_stm32f10x_md.o(.text)
    SPI1_IRQHandler                          0x080001c3   Thumb Code     0  startup_stm32f10x_md.o(.text)
    SPI2_IRQHandler                          0x080001c3   Thumb Code     0  startup_stm32f10x_md.o(.text)
    TAMPER_IRQHandler                        0x080001c3   Thumb Code     0  startup_stm32f10x_md.o(.text)
    TIM1_BRK_IRQHandler                      0x080001c3   Thumb Code     0  startup_stm32f10x_md.o(.text)
    TIM1_CC_IRQHandler                       0x080001c3   Thumb Code     0  startup_stm32f10x_md.o(.text)
    TIM1_TRG_COM_IRQHandler                  0x080001c3   Thumb Code     0  startup_stm32f10x_md.o(.text)
    TIM1_UP_IRQHandler                       0x080001c3   Thumb Code     0  startup_stm32f10x_md.o(.text)
    TIM4_IRQHandler                          0x080001c3   Thumb Code     0  startup_stm32f10x_md.o(.text)
    USART2_IRQHandler                        0x080001c3   Thumb Code     0  startup_stm32f10x_md.o(.text)
    USBWakeUp_IRQHandler                     0x080001c3   Thumb Code     0  startup_stm32f10x_md.o(.text)
    USB_HP_CAN1_TX_IRQHandler                0x080001c3   Thumb Code     0  startup_stm32f10x_md.o(.text)
    USB_LP_CAN1_RX0_IRQHandler               0x080001c3   Thumb Code     0  startup_stm32f10x_md.o(.text)
    WWDG_IRQHandler                          0x080001c3   Thumb Code     0  startup_stm32f10x_md.o(.text)
    __user_initial_stackheap                 0x080001c5   Thumb Code     0  startup_stm32f10x_md.o(.text)
    __use_no_semihosting                     0x080001e9   Thumb Code     2  use_no_semi_2.o(.text)
    __2printf                                0x080001ed   Thumb Code    20  __2printf.o(.text)
    _printf_int_dec                          0x08000205   Thumb Code   104  _printf_dec.o(.text)
    __printf                                 0x0800027d   Thumb Code   388  __printf_flags_ss_wp.o(.text)
    strcmp                                   0x08000405   Thumb Code   128  strcmpv7m.o(.text)
    __use_two_region_memory                  0x08000485   Thumb Code     2  heapauxi.o(.text)
    __rt_heap_escrow$2region                 0x08000487   Thumb Code     2  heapauxi.o(.text)
    __rt_heap_expand$2region                 0x08000489   Thumb Code     2  heapauxi.o(.text)
    __I$use$semihosting                      0x0800048b   Thumb Code     0  use_no_semi.o(.text)
    __use_no_semihosting_swi                 0x0800048b   Thumb Code     2  use_no_semi.o(.text)
    _printf_int_common                       0x0800048d   Thumb Code   178  _printf_intcommon.o(.text)
    __lib_sel_fp_printf                      0x0800053f   Thumb Code     2  _printf_fp_dec.o(.text)
    _printf_fp_dec_real                      0x080006f1   Thumb Code   620  _printf_fp_dec.o(.text)
    _printf_char_common                      0x08000967   Thumb Code    32  _printf_char_common.o(.text)
    _printf_char_file                        0x0800098d   Thumb Code    32  _printf_char_file.o(.text)
    __rt_locale                              0x080009b1   Thumb Code     8  rt_locale_intlibspace.o(.text)
    _ll_udiv10                               0x080009b9   Thumb Code   138  lludiv10.o(.text)
    _printf_fp_infnan                        0x08000a45   Thumb Code   112  _printf_fp_infnan.o(.text)
    _btod_etento                             0x08000ac5   Thumb Code   224  bigflt0.o(.text)
    ferror                                   0x08000ba9   Thumb Code     8  ferror.o(.text)
    __user_libspace                          0x08000bb1   Thumb Code     8  libspace.o(.text)
    __user_perproc_libspace                  0x08000bb1   Thumb Code     0  libspace.o(.text)
    __user_perthread_libspace                0x08000bb1   Thumb Code     0  libspace.o(.text)
    __user_setup_stackheap                   0x08000bb9   Thumb Code    74  sys_stackheap_outer.o(.text)
    exit                                     0x08000c03   Thumb Code    18  exit.o(.text)
    _btod_d2e                                0x08000c15   Thumb Code    62  btod.o(CL$$btod_d2e)
    _d2e_denorm_low                          0x08000c53   Thumb Code    70  btod.o(CL$$btod_d2e_denorm_low)
    _d2e_norm_op1                            0x08000c99   Thumb Code    96  btod.o(CL$$btod_d2e_norm_op1)
    __btod_div_common                        0x08000cf9   Thumb Code   696  btod.o(CL$$btod_div_common)
    _e2e                                     0x08001031   Thumb Code   220  btod.o(CL$$btod_e2e)
    _btod_ediv                               0x0800110d   Thumb Code    42  btod.o(CL$$btod_ediv)
    _btod_emul                               0x08001137   Thumb Code    42  btod.o(CL$$btod_emul)
    __btod_mult_common                       0x08001161   Thumb Code   580  btod.o(CL$$btod_mult_common)
    ADC_Cmd                                  0x080013a5   Thumb Code    22  stm32f10x_adc.o(i.ADC_Cmd)
    ADC_DeInit                               0x080013bd   Thumb Code    78  stm32f10x_adc.o(i.ADC_DeInit)
    ADC_GetCalibrationStatus                 0x08001419   Thumb Code    20  stm32f10x_adc.o(i.ADC_GetCalibrationStatus)
    ADC_GetConversionValue                   0x0800142d   Thumb Code     8  stm32f10x_adc.o(i.ADC_GetConversionValue)
    ADC_GetFlagStatus                        0x08001435   Thumb Code    18  stm32f10x_adc.o(i.ADC_GetFlagStatus)
    ADC_GetResetCalibrationStatus            0x08001447   Thumb Code    20  stm32f10x_adc.o(i.ADC_GetResetCalibrationStatus)
    ADC_Init                                 0x0800145d   Thumb Code    70  stm32f10x_adc.o(i.ADC_Init)
    ADC_RegularChannelConfig                 0x080014ad   Thumb Code   184  stm32f10x_adc.o(i.ADC_RegularChannelConfig)
    ADC_ResetCalibration                     0x08001565   Thumb Code    10  stm32f10x_adc.o(i.ADC_ResetCalibration)
    ADC_SoftwareStartConvCmd                 0x0800156f   Thumb Code    22  stm32f10x_adc.o(i.ADC_SoftwareStartConvCmd)
    ADC_StartCalibration                     0x08001585   Thumb Code    10  stm32f10x_adc.o(i.ADC_StartCalibration)
    Adc_Init                                 0x08001591   Thumb Code   140  adc.o(i.Adc_Init)
    BEEP_Init                                0x08001625   Thumb Code    46  beep.o(i.BEEP_Init)
    BusFault_Handler                         0x0800165d   Thumb Code     4  stm32f10x_it.o(i.BusFault_Handler)
    DebugMon_Handler                         0x08001661   Thumb Code     2  stm32f10x_it.o(i.DebugMon_Handler)
    DelayMs                                  0x08001663   Thumb Code    60  delay.o(i.DelayMs)
    DelayXms                                 0x080016a1   Thumb Code    66  delay.o(i.DelayXms)
    Delay_Init                               0x080016e9   Thumb Code    48  delay.o(i.Delay_Init)
    EXTI0_IRQHandler                         0x08001721   Thumb Code     2  stm32f10x_it.o(i.EXTI0_IRQHandler)
    EXTI2_IRQHandler                         0x08001725   Thumb Code   100  exti.o(i.EXTI2_IRQHandler)
    EXTI3_IRQHandler                         0x08001795   Thumb Code    68  exti.o(i.EXTI3_IRQHandler)
    EXTI4_IRQHandler                         0x080017e5   Thumb Code    68  exti.o(i.EXTI4_IRQHandler)
    EXTIX_Init                               0x08001835   Thumb Code   174  exti.o(i.EXTIX_Init)
    EXTI_ClearITPendingBit                   0x080018e5   Thumb Code     6  stm32f10x_exti.o(i.EXTI_ClearITPendingBit)
    EXTI_Init                                0x080018f1   Thumb Code   142  stm32f10x_exti.o(i.EXTI_Init)
    GPIO_EXTILineConfig                      0x08001985   Thumb Code    60  stm32f10x_gpio.o(i.GPIO_EXTILineConfig)
    GPIO_Init                                0x080019c5   Thumb Code   278  stm32f10x_gpio.o(i.GPIO_Init)
    GPIO_ReadInputDataBit                    0x08001adb   Thumb Code    18  stm32f10x_gpio.o(i.GPIO_ReadInputDataBit)
    GPIO_WriteBit                            0x08001aed   Thumb Code    10  stm32f10x_gpio.o(i.GPIO_WriteBit)
    Get_Adc                                  0x08001af9   Thumb Code    46  adc.o(i.Get_Adc)
    Get_Adc_Average                          0x08001b2d   Thumb Code   100  adc.o(i.Get_Adc_Average)
    HardFault_Handler                        0x08001ba5   Thumb Code     4  stm32f10x_it.o(i.HardFault_Handler)
    Hardware_Init                            0x08001ba9   Thumb Code    40  main.o(i.Hardware_Init)
    I2C_CheckEvent                           0x08001bd1   Thumb Code    42  stm32f10x_i2c.o(i.I2C_CheckEvent)
    I2C_GenerateSTART                        0x08001bfb   Thumb Code    24  stm32f10x_i2c.o(i.I2C_GenerateSTART)
    I2C_GenerateSTOP                         0x08001c13   Thumb Code    24  stm32f10x_i2c.o(i.I2C_GenerateSTOP)
    I2C_GetFlagStatus                        0x08001c2b   Thumb Code    58  stm32f10x_i2c.o(i.I2C_GetFlagStatus)
    I2C_Send7bitAddress                      0x08001c65   Thumb Code    18  stm32f10x_i2c.o(i.I2C_Send7bitAddress)
    I2C_SendData                             0x08001c77   Thumb Code     4  stm32f10x_i2c.o(i.I2C_SendData)
    I2C_WriteByte                            0x08001c7d   Thumb Code   126  oled_i2c.o(i.I2C_WriteByte)
    KEY_Init                                 0x08001d09   Thumb Code    32  key.o(i.KEY_Init)
    LCD_Pow                                  0x08001d2d   Thumb Code    22  oled_i2c.o(i.LCD_Pow)
    Led2_Set                                 0x08001d45   Thumb Code    38  led.o(i.Led2_Set)
    Led3_Set                                 0x08001d75   Thumb Code    38  led.o(i.Led3_Set)
    Led_Init                                 0x08001da5   Thumb Code    50  led.o(i.Led_Init)
    MemManage_Handler                        0x08001ddd   Thumb Code     4  stm32f10x_it.o(i.MemManage_Handler)
    NMI_Handler                              0x08001de1   Thumb Code     2  stm32f10x_it.o(i.NMI_Handler)
    NVIC_Init                                0x08001de5   Thumb Code   100  misc.o(i.NVIC_Init)
    NVIC_PriorityGroupConfig                 0x08001e55   Thumb Code    10  misc.o(i.NVIC_PriorityGroupConfig)
    OLED_SetPos                              0x08001e69   Thumb Code    40  oled_i2c.o(i.OLED_SetPos)
    OLED_ShowChar                            0x08001e91   Thumb Code   176  oled_i2c.o(i.OLED_ShowChar)
    OLED_ShowNum                             0x08001f49   Thumb Code   120  oled_i2c.o(i.OLED_ShowNum)
    RCC_ADCCLKConfig                         0x08001fc1   Thumb Code    18  stm32f10x_rcc.o(i.RCC_ADCCLKConfig)
    RCC_APB2PeriphClockCmd                   0x08001fd9   Thumb Code    26  stm32f10x_rcc.o(i.RCC_APB2PeriphClockCmd)
    RCC_APB2PeriphResetCmd                   0x08001ff9   Thumb Code    26  stm32f10x_rcc.o(i.RCC_APB2PeriphResetCmd)
    RCC_GetClocksFreq                        0x08002019   Thumb Code   192  stm32f10x_rcc.o(i.RCC_GetClocksFreq)
    RTC_IRQHandler                           0x080020f5   Thumb Code     2  stm32f10x_it.o(i.RTC_IRQHandler)
    SVC_Handler                              0x080020f7   Thumb Code     2  stm32f10x_it.o(i.SVC_Handler)
    SysTick_Handler                          0x080021e1   Thumb Code     2  stm32f10x_it.o(i.SysTick_Handler)
    SystemInit                               0x080021e5   Thumb Code    78  system_stm32f10x.o(i.SystemInit)
    TIM2_IRQHandler                          0x08002245   Thumb Code    22  timer.o(i.TIM2_IRQHandler)
    TIM3_IRQHandler                          0x0800225d   Thumb Code    42  timer.o(i.TIM3_IRQHandler)
    TIM_ClearITPendingBit                    0x08002291   Thumb Code     6  stm32f10x_tim.o(i.TIM_ClearITPendingBit)
    TIM_Cmd                                  0x08002297   Thumb Code    24  stm32f10x_tim.o(i.TIM_Cmd)
    TIM_GetITStatus                          0x080022af   Thumb Code    34  stm32f10x_tim.o(i.TIM_GetITStatus)
    TIM_SetCounter                           0x080022d1   Thumb Code     4  stm32f10x_tim.o(i.TIM_SetCounter)
    USART1_IRQHandler                        0x080022d5   Thumb Code   122  usart.o(i.USART1_IRQHandler)
    USART3_IRQHandler                        0x0800235d   Thumb Code    92  usart2.o(i.USART3_IRQHandler)
    USART_Cmd                                0x080023c9   Thumb Code    24  stm32f10x_usart.o(i.USART_Cmd)
    USART_GetITStatus                        0x080023e1   Thumb Code    84  stm32f10x_usart.o(i.USART_GetITStatus)
    USART_ITConfig                           0x08002435   Thumb Code    74  stm32f10x_usart.o(i.USART_ITConfig)
    USART_Init                               0x08002481   Thumb Code   210  stm32f10x_usart.o(i.USART_Init)
    USART_ReceiveData                        0x08002559   Thumb Code    10  stm32f10x_usart.o(i.USART_ReceiveData)
    UsageFault_Handler                       0x08002563   Thumb Code     4  stm32f10x_it.o(i.UsageFault_Handler)
    WriteCmd                                 0x08002567   Thumb Code    14  oled_i2c.o(i.WriteCmd)
    WriteDat                                 0x08002575   Thumb Code    14  oled_i2c.o(i.WriteDat)
    __ARM_fpclassify                         0x08002583   Thumb Code    40  fpclassify.o(i.__ARM_fpclassify)
    _is_digit                                0x080025ab   Thumb Code    14  __printf_wp.o(i._is_digit)
    _sys_exit                                0x080025b9   Thumb Code     6  usart.o(i._sys_exit)
    fputc                                    0x080025c1   Thumb Code    24  usart.o(i.fputc)
    main                                     0x080025dd   Thumb Code    98  main.o(i.main)
    uart_init                                0x0800268d   Thumb Code   160  usart.o(i.uart_init)
    _get_lc_numeric                          0x08002735   Thumb Code    44  lc_numeric_c.o(locale$$code)
    __fpl_dretinf                            0x08002761   Thumb Code    12  dretinf.o(x$fpl$dretinf)
    __aeabi_f2d                              0x0800276d   Thumb Code     0  f2d.o(x$fpl$f2d)
    _f2d                                     0x0800276d   Thumb Code    86  f2d.o(x$fpl$f2d)
    __aeabi_fadd                             0x080027c5   Thumb Code     0  faddsub_clz.o(x$fpl$fadd)
    _fadd                                    0x080027c5   Thumb Code   196  faddsub_clz.o(x$fpl$fadd)
    __aeabi_fdiv                             0x08002889   Thumb Code     0  fdiv.o(x$fpl$fdiv)
    _fdiv                                    0x08002889   Thumb Code   384  fdiv.o(x$fpl$fdiv)
    __aeabi_f2iz                             0x08002a0d   Thumb Code     0  ffix.o(x$fpl$ffix)
    _ffix                                    0x08002a0d   Thumb Code    54  ffix.o(x$fpl$ffix)
    __aeabi_f2uiz                            0x08002a45   Thumb Code     0  ffixu.o(x$fpl$ffixu)
    _ffixu                                   0x08002a45   Thumb Code    62  ffixu.o(x$fpl$ffixu)
    __aeabi_ui2f                             0x08002a85   Thumb Code     0  fflt_clz.o(x$fpl$ffltu)
    _ffltu                                   0x08002a85   Thumb Code    38  fflt_clz.o(x$fpl$ffltu)
    __aeabi_fmul                             0x08002aad   Thumb Code     0  fmul.o(x$fpl$fmul)
    _fmul                                    0x08002aad   Thumb Code   258  fmul.o(x$fpl$fmul)
    __fpl_fnaninf                            0x08002baf   Thumb Code   140  fnaninf.o(x$fpl$fnaninf)
    __fpl_fretinf                            0x08002c3b   Thumb Code    10  fretinf.o(x$fpl$fretinf)
    __aeabi_fsub                             0x08002c45   Thumb Code     0  faddsub_clz.o(x$fpl$fsub)
    _fsub                                    0x08002c45   Thumb Code   234  faddsub_clz.o(x$fpl$fsub)
    _printf_fp_dec                           0x08002d2f   Thumb Code     4  printf1.o(x$fpl$printf1)
    F6x8                                     0x08002d32   Data         552  oled_i2c.o(.constdata)
    __I$use$fp                               0x08002d32   Number         0  usenofp.o(x$fpl$usenofp)
    F8X16                                    0x08002f5a   Data        1520  oled_i2c.o(.constdata)
    Region$$Table$$Base                      0x080035f0   Number         0  anon$$obj.o(Region$$Table)
    Region$$Table$$Limit                     0x08003610   Number         0  anon$$obj.o(Region$$Table)
    UsCount                                  0x20000014   Data           1  delay.o(.data)
    MsCount                                  0x20000016   Data           2  delay.o(.data)
    led_status                               0x20000018   Data           4  led.o(.data)
    USART3_RX_STA                            0x2000001c   Data           1  usart2.o(.data)
    __stdout                                 0x20000020   Data           4  usart.o(.data)
    USART_RX_STA                             0x20000024   Data           1  usart.o(.data)
    temp_avrg                                0x20000028   Data           4  main.o(.data)
    temp_LL                                  0x2000002c   Data           4  main.o(.data)
    shidu                                    0x20000030   Data           4  main.o(.data)
    num                                      0x20000034   Data           4  main.o(.data)
    num_adj                                  0x20000038   Data           4  main.o(.data)
    j                                        0x2000003c   Data           4  main.o(.data)
    times                                    0x20000040   Data           4  main.o(.data)
    total                                    0x20000044   Data           4  main.o(.data)
    USART3_RX_BUF                            0x20000048   Data          64  usart2.o(.bss)
    USART3_TX_BUF                            0x20000088   Data          64  usart2.o(.bss)
    USART_RX_BUF                             0x200000c8   Data          64  usart.o(.bss)
    __libspace_start                         0x20000108   Data          96  libspace.o(.bss)
    __temporary_stack_top$libspace           0x20000168   Data           0  libspace.o(.bss)



==============================================================================

Memory Map of the image

  Image Entry point : 0x080000ed

  Load Region LR_IROM1 (Base: 0x08000000, Size: 0x00003674, Max: 0x00010000, ABSOLUTE)

    Execution Region ER_IROM1 (Base: 0x08000000, Size: 0x0000362c, Max: 0x00010000, ABSOLUTE)

    Base Addr    Size         Type   Attr      Idx    E Section Name        Object

    0x08000000   0x000000ec   Data   RO          206    RESET               startup_stm32f10x_md.o
    0x080000ec   0x00000008   Code   RO         3746  * !!!main             c_w.l(__main.o)
    0x080000f4   0x00000034   Code   RO         4064    !!!scatter          c_w.l(__scatter.o)
    0x08000128   0x0000001a   Code   RO         4066    !!handler_copy      c_w.l(__scatter_copy.o)
    0x08000142   0x00000002   PAD
    0x08000144   0x0000001c   Code   RO         4068    !!handler_zi        c_w.l(__scatter_zi.o)
    0x08000160   0x00000000   Code   RO         3739    .ARM.Collect$$_printf_percent$$00000000  c_w.l(_printf_percent.o)
    0x08000160   0x00000006   Code   RO         3738    .ARM.Collect$$_printf_percent$$00000003  c_w.l(_printf_f.o)
    0x08000166   0x00000006   Code   RO         3737    .ARM.Collect$$_printf_percent$$00000009  c_w.l(_printf_d.o)
    0x0800016c   0x00000004   Code   RO         3841    .ARM.Collect$$_printf_percent$$00000017  c_w.l(_printf_percent_end.o)
    0x08000170   0x00000002   Code   RO         3938    .ARM.Collect$$libinit$$00000000  c_w.l(libinit.o)
    0x08000172   0x00000000   Code   RO         3940    .ARM.Collect$$libinit$$00000002  c_w.l(libinit2.o)
    0x08000172   0x00000000   Code   RO         3942    .ARM.Collect$$libinit$$00000004  c_w.l(libinit2.o)
    0x08000172   0x00000000   Code   RO         3945    .ARM.Collect$$libinit$$0000000A  c_w.l(libinit2.o)
    0x08000172   0x00000000   Code   RO         3947    .ARM.Collect$$libinit$$0000000C  c_w.l(libinit2.o)
    0x08000172   0x00000000   Code   RO         3949    .ARM.Collect$$libinit$$0000000E  c_w.l(libinit2.o)
    0x08000172   0x00000006   Code   RO         3950    .ARM.Collect$$libinit$$0000000F  c_w.l(libinit2.o)
    0x08000178   0x00000000   Code   RO         3952    .ARM.Collect$$libinit$$00000011  c_w.l(libinit2.o)
    0x08000178   0x00000000   Code   RO         3954    .ARM.Collect$$libinit$$00000013  c_w.l(libinit2.o)
    0x08000178   0x00000000   Code   RO         3956    .ARM.Collect$$libinit$$00000015  c_w.l(libinit2.o)
    0x08000178   0x0000000a   Code   RO         3957    .ARM.Collect$$libinit$$00000016  c_w.l(libinit2.o)
    0x08000182   0x00000000   Code   RO         3958    .ARM.Collect$$libinit$$00000017  c_w.l(libinit2.o)
    0x08000182   0x00000000   Code   RO         3960    .ARM.Collect$$libinit$$00000019  c_w.l(libinit2.o)
    0x08000182   0x00000000   Code   RO         3962    .ARM.Collect$$libinit$$0000001B  c_w.l(libinit2.o)
    0x08000182   0x00000000   Code   RO         3964    .ARM.Collect$$libinit$$0000001D  c_w.l(libinit2.o)
    0x08000182   0x00000000   Code   RO         3966    .ARM.Collect$$libinit$$0000001F  c_w.l(libinit2.o)
    0x08000182   0x00000000   Code   RO         3968    .ARM.Collect$$libinit$$00000021  c_w.l(libinit2.o)
    0x08000182   0x00000000   Code   RO         3970    .ARM.Collect$$libinit$$00000023  c_w.l(libinit2.o)
    0x08000182   0x00000000   Code   RO         3972    .ARM.Collect$$libinit$$00000025  c_w.l(libinit2.o)
    0x08000182   0x00000000   Code   RO         3976    .ARM.Collect$$libinit$$0000002C  c_w.l(libinit2.o)
    0x08000182   0x00000000   Code   RO         3978    .ARM.Collect$$libinit$$0000002E  c_w.l(libinit2.o)
    0x08000182   0x00000000   Code   RO         3980    .ARM.Collect$$libinit$$00000030  c_w.l(libinit2.o)
    0x08000182   0x00000000   Code   RO         3982    .ARM.Collect$$libinit$$00000032  c_w.l(libinit2.o)
    0x08000182   0x00000002   Code   RO         3983    .ARM.Collect$$libinit$$00000033  c_w.l(libinit2.o)
    0x08000184   0x00000002   Code   RO         4014    .ARM.Collect$$libshutdown$$00000000  c_w.l(libshutdown.o)
    0x08000186   0x00000000   Code   RO         4023    .ARM.Collect$$libshutdown$$00000002  c_w.l(libshutdown2.o)
    0x08000186   0x00000000   Code   RO         4025    .ARM.Collect$$libshutdown$$00000004  c_w.l(libshutdown2.o)
    0x08000186   0x00000000   Code   RO         4028    .ARM.Collect$$libshutdown$$00000007  c_w.l(libshutdown2.o)
    0x08000186   0x00000000   Code   RO         4031    .ARM.Collect$$libshutdown$$0000000A  c_w.l(libshutdown2.o)
    0x08000186   0x00000000   Code   RO         4033    .ARM.Collect$$libshutdown$$0000000C  c_w.l(libshutdown2.o)
    0x08000186   0x00000000   Code   RO         4036    .ARM.Collect$$libshutdown$$0000000F  c_w.l(libshutdown2.o)
    0x08000186   0x00000002   Code   RO         4037    .ARM.Collect$$libshutdown$$00000010  c_w.l(libshutdown2.o)
    0x08000188   0x00000000   Code   RO         3780    .ARM.Collect$$rtentry$$00000000  c_w.l(__rtentry.o)
    0x08000188   0x00000000   Code   RO         3859    .ARM.Collect$$rtentry$$00000002  c_w.l(__rtentry2.o)
    0x08000188   0x00000006   Code   RO         3871    .ARM.Collect$$rtentry$$00000004  c_w.l(__rtentry4.o)
    0x0800018e   0x00000000   Code   RO         3861    .ARM.Collect$$rtentry$$00000009  c_w.l(__rtentry2.o)
    0x0800018e   0x00000004   Code   RO         3862    .ARM.Collect$$rtentry$$0000000A  c_w.l(__rtentry2.o)
    0x08000192   0x00000000   Code   RO         3864    .ARM.Collect$$rtentry$$0000000C  c_w.l(__rtentry2.o)
    0x08000192   0x00000008   Code   RO         3865    .ARM.Collect$$rtentry$$0000000D  c_w.l(__rtentry2.o)
    0x0800019a   0x00000002   Code   RO         3984    .ARM.Collect$$rtexit$$00000000  c_w.l(rtexit.o)
    0x0800019c   0x00000000   Code   RO         3994    .ARM.Collect$$rtexit$$00000002  c_w.l(rtexit2.o)
    0x0800019c   0x00000004   Code   RO         3995    .ARM.Collect$$rtexit$$00000003  c_w.l(rtexit2.o)
    0x080001a0   0x00000006   Code   RO         3996    .ARM.Collect$$rtexit$$00000004  c_w.l(rtexit2.o)
    0x080001a6   0x00000002   PAD
    0x080001a8   0x00000040   Code   RO          207    .text               startup_stm32f10x_md.o
    0x080001e8   0x00000002   Code   RO         3702    .text               c_w.l(use_no_semi_2.o)
    0x080001ea   0x00000002   PAD
    0x080001ec   0x00000018   Code   RO         3706    .text               c_w.l(__2printf.o)
    0x08000204   0x00000078   Code   RO         3714    .text               c_w.l(_printf_dec.o)
    0x0800027c   0x00000188   Code   RO         3733    .text               c_w.l(__printf_flags_ss_wp.o)
    0x08000404   0x00000080   Code   RO         3742    .text               c_w.l(strcmpv7m.o)
    0x08000484   0x00000006   Code   RO         3744    .text               c_w.l(heapauxi.o)
    0x0800048a   0x00000002   Code   RO         3778    .text               c_w.l(use_no_semi.o)
    0x0800048c   0x000000b2   Code   RO         3785    .text               c_w.l(_printf_intcommon.o)
    0x0800053e   0x0000041e   Code   RO         3789    .text               c_w.l(_printf_fp_dec.o)
    0x0800095c   0x00000030   Code   RO         3791    .text               c_w.l(_printf_char_common.o)
    0x0800098c   0x00000024   Code   RO         3797    .text               c_w.l(_printf_char_file.o)
    0x080009b0   0x00000008   Code   RO         3876    .text               c_w.l(rt_locale_intlibspace.o)
    0x080009b8   0x0000008a   Code   RO         3878    .text               c_w.l(lludiv10.o)
    0x08000a42   0x00000002   PAD
    0x08000a44   0x00000080   Code   RO         3880    .text               c_w.l(_printf_fp_infnan.o)
    0x08000ac4   0x000000e4   Code   RO         3886    .text               c_w.l(bigflt0.o)
    0x08000ba8   0x00000008   Code   RO         3911    .text               c_w.l(ferror.o)
    0x08000bb0   0x00000008   Code   RO         3924    .text               c_w.l(libspace.o)
    0x08000bb8   0x0000004a   Code   RO         3927    .text               c_w.l(sys_stackheap_outer.o)
    0x08000c02   0x00000012   Code   RO         3931    .text               c_w.l(exit.o)
    0x08000c14   0x0000003e   Code   RO         3889    CL$$btod_d2e        c_w.l(btod.o)
    0x08000c52   0x00000046   Code   RO         3891    CL$$btod_d2e_denorm_low  c_w.l(btod.o)
    0x08000c98   0x00000060   Code   RO         3890    CL$$btod_d2e_norm_op1  c_w.l(btod.o)
    0x08000cf8   0x00000338   Code   RO         3899    CL$$btod_div_common  c_w.l(btod.o)
    0x08001030   0x000000dc   Code   RO         3896    CL$$btod_e2e        c_w.l(btod.o)
    0x0800110c   0x0000002a   Code   RO         3893    CL$$btod_ediv       c_w.l(btod.o)
    0x08001136   0x0000002a   Code   RO         3892    CL$$btod_emul       c_w.l(btod.o)
    0x08001160   0x00000244   Code   RO         3898    CL$$btod_mult_common  c_w.l(btod.o)
    0x080013a4   0x00000016   Code   RO          253    i.ADC_Cmd           stm32f10x_adc.o
    0x080013ba   0x00000002   PAD
    0x080013bc   0x0000005c   Code   RO          255    i.ADC_DeInit        stm32f10x_adc.o
    0x08001418   0x00000014   Code   RO          261    i.ADC_GetCalibrationStatus  stm32f10x_adc.o
    0x0800142c   0x00000008   Code   RO          262    i.ADC_GetConversionValue  stm32f10x_adc.o
    0x08001434   0x00000012   Code   RO          264    i.ADC_GetFlagStatus  stm32f10x_adc.o
    0x08001446   0x00000014   Code   RO          267    i.ADC_GetResetCalibrationStatus  stm32f10x_adc.o
    0x0800145a   0x00000002   PAD
    0x0800145c   0x00000050   Code   RO          271    i.ADC_Init          stm32f10x_adc.o
    0x080014ac   0x000000b8   Code   RO          275    i.ADC_RegularChannelConfig  stm32f10x_adc.o
    0x08001564   0x0000000a   Code   RO          276    i.ADC_ResetCalibration  stm32f10x_adc.o
    0x0800156e   0x00000016   Code   RO          278    i.ADC_SoftwareStartConvCmd  stm32f10x_adc.o
    0x08001584   0x0000000a   Code   RO          280    i.ADC_StartCalibration  stm32f10x_adc.o
    0x0800158e   0x00000002   PAD
    0x08001590   0x00000094   Code   RO         3676    i.Adc_Init          adc.o
    0x08001624   0x00000038   Code   RO         3664    i.BEEP_Init         beep.o
    0x0800165c   0x00000004   Code   RO           17    i.BusFault_Handler  stm32f10x_it.o
    0x08001660   0x00000002   Code   RO           18    i.DebugMon_Handler  stm32f10x_it.o
    0x08001662   0x0000003c   Code   RO         3178    i.DelayMs           delay.o
    0x0800169e   0x00000002   PAD
    0x080016a0   0x00000048   Code   RO         3180    i.DelayXms          delay.o
    0x080016e8   0x00000038   Code   RO         3181    i.Delay_Init        delay.o
    0x08001720   0x00000002   Code   RO           19    i.EXTI0_IRQHandler  stm32f10x_it.o
    0x08001722   0x00000002   PAD
    0x08001724   0x00000070   Code   RO         3400    i.EXTI2_IRQHandler  exti.o
    0x08001794   0x00000050   Code   RO         3401    i.EXTI3_IRQHandler  exti.o
    0x080017e4   0x00000050   Code   RO         3402    i.EXTI4_IRQHandler  exti.o
    0x08001834   0x000000ae   Code   RO         3403    i.EXTIX_Init        exti.o
    0x080018e2   0x00000002   PAD
    0x080018e4   0x0000000c   Code   RO         1009    i.EXTI_ClearITPendingBit  stm32f10x_exti.o
    0x080018f0   0x00000094   Code   RO         1014    i.EXTI_Init         stm32f10x_exti.o
    0x08001984   0x00000040   Code   RO         1359    i.GPIO_EXTILineConfig  stm32f10x_gpio.o
    0x080019c4   0x00000116   Code   RO         1362    i.GPIO_Init         stm32f10x_gpio.o
    0x08001ada   0x00000012   Code   RO         1366    i.GPIO_ReadInputDataBit  stm32f10x_gpio.o
    0x08001aec   0x0000000a   Code   RO         1373    i.GPIO_WriteBit     stm32f10x_gpio.o
    0x08001af6   0x00000002   PAD
    0x08001af8   0x00000034   Code   RO         3677    i.Get_Adc           adc.o
    0x08001b2c   0x00000078   Code   RO         3678    i.Get_Adc_Average   adc.o
    0x08001ba4   0x00000004   Code   RO           20    i.HardFault_Handler  stm32f10x_it.o
    0x08001ba8   0x00000028   Code   RO         3482    i.Hardware_Init     main.o
    0x08001bd0   0x0000002a   Code   RO         1473    i.I2C_CheckEvent    stm32f10x_i2c.o
    0x08001bfa   0x00000018   Code   RO         1483    i.I2C_GenerateSTART  stm32f10x_i2c.o
    0x08001c12   0x00000018   Code   RO         1484    i.I2C_GenerateSTOP  stm32f10x_i2c.o
    0x08001c2a   0x0000003a   Code   RO         1485    i.I2C_GetFlagStatus  stm32f10x_i2c.o
    0x08001c64   0x00000012   Code   RO         1497    i.I2C_Send7bitAddress  stm32f10x_i2c.o
    0x08001c76   0x00000004   Code   RO         1498    i.I2C_SendData      stm32f10x_i2c.o
    0x08001c7a   0x00000002   PAD
    0x08001c7c   0x0000008c   Code   RO         3521    i.I2C_WriteByte     oled_i2c.o
    0x08001d08   0x00000024   Code   RO         3291    i.KEY_Init          key.o
    0x08001d2c   0x00000016   Code   RO         3522    i.LCD_Pow           oled_i2c.o
    0x08001d42   0x00000002   PAD
    0x08001d44   0x00000030   Code   RO         3261    i.Led2_Set          led.o
    0x08001d74   0x00000030   Code   RO         3262    i.Led3_Set          led.o
    0x08001da4   0x00000038   Code   RO         3263    i.Led_Init          led.o
    0x08001ddc   0x00000004   Code   RO           21    i.MemManage_Handler  stm32f10x_it.o
    0x08001de0   0x00000002   Code   RO           22    i.NMI_Handler       stm32f10x_it.o
    0x08001de2   0x00000002   PAD
    0x08001de4   0x00000070   Code   RO          211    i.NVIC_Init         misc.o
    0x08001e54   0x00000014   Code   RO          212    i.NVIC_PriorityGroupConfig  misc.o
    0x08001e68   0x00000028   Code   RO         3529    i.OLED_SetPos       oled_i2c.o
    0x08001e90   0x000000b8   Code   RO         3531    i.OLED_ShowChar     oled_i2c.o
    0x08001f48   0x00000078   Code   RO         3532    i.OLED_ShowNum      oled_i2c.o
    0x08001fc0   0x00000018   Code   RO         1776    i.RCC_ADCCLKConfig  stm32f10x_rcc.o
    0x08001fd8   0x00000020   Code   RO         1780    i.RCC_APB2PeriphClockCmd  stm32f10x_rcc.o
    0x08001ff8   0x00000020   Code   RO         1781    i.RCC_APB2PeriphResetCmd  stm32f10x_rcc.o
    0x08002018   0x000000dc   Code   RO         1788    i.RCC_GetClocksFreq  stm32f10x_rcc.o
    0x080020f4   0x00000002   Code   RO           23    i.RTC_IRQHandler    stm32f10x_it.o
    0x080020f6   0x00000002   Code   RO           24    i.SVC_Handler       stm32f10x_it.o
    0x080020f8   0x00000008   Code   RO          170    i.SetSysClock       system_stm32f10x.o
    0x08002100   0x000000e0   Code   RO          171    i.SetSysClockTo72   system_stm32f10x.o
    0x080021e0   0x00000002   Code   RO           25    i.SysTick_Handler   stm32f10x_it.o
    0x080021e2   0x00000002   PAD
    0x080021e4   0x00000060   Code   RO          173    i.SystemInit        system_stm32f10x.o
    0x08002244   0x00000016   Code   RO         3214    i.TIM2_IRQHandler   timer.o
    0x0800225a   0x00000002   PAD
    0x0800225c   0x00000034   Code   RO         3215    i.TIM3_IRQHandler   timer.o
    0x08002290   0x00000006   Code   RO         2407    i.TIM_ClearITPendingBit  stm32f10x_tim.o
    0x08002296   0x00000018   Code   RO         2412    i.TIM_Cmd           stm32f10x_tim.o
    0x080022ae   0x00000022   Code   RO         2433    i.TIM_GetITStatus   stm32f10x_tim.o
    0x080022d0   0x00000004   Code   RO         2477    i.TIM_SetCounter    stm32f10x_tim.o
    0x080022d4   0x00000088   Code   RO         3434    i.USART1_IRQHandler  usart.o
    0x0800235c   0x0000006c   Code   RO         3313    i.USART3_IRQHandler  usart2.o
    0x080023c8   0x00000018   Code   RO         2948    i.USART_Cmd         stm32f10x_usart.o
    0x080023e0   0x00000054   Code   RO         2952    i.USART_GetITStatus  stm32f10x_usart.o
    0x08002434   0x0000004a   Code   RO         2954    i.USART_ITConfig    stm32f10x_usart.o
    0x0800247e   0x00000002   PAD
    0x08002480   0x000000d8   Code   RO         2955    i.USART_Init        stm32f10x_usart.o
    0x08002558   0x0000000a   Code   RO         2962    i.USART_ReceiveData  stm32f10x_usart.o
    0x08002562   0x00000004   Code   RO           26    i.UsageFault_Handler  stm32f10x_it.o
    0x08002566   0x0000000e   Code   RO         3534    i.WriteCmd          oled_i2c.o
    0x08002574   0x0000000e   Code   RO         3535    i.WriteDat          oled_i2c.o
    0x08002582   0x00000028   Code   RO         3922    i.__ARM_fpclassify  m_ws.l(fpclassify.o)
    0x080025aa   0x0000000e   Code   RO         3726    i._is_digit         c_w.l(__printf_wp.o)
    0x080025b8   0x00000006   Code   RO         3436    i._sys_exit         usart.o
    0x080025be   0x00000002   PAD
    0x080025c0   0x0000001c   Code   RO         3437    i.fputc             usart.o
    0x080025dc   0x000000b0   Code   RO         3484    i.main              main.o
    0x0800268c   0x000000a8   Code   RO         3438    i.uart_init         usart.o
    0x08002734   0x0000002c   Code   RO         3918    locale$$code        c_w.l(lc_numeric_c.o)
    0x08002760   0x0000000c   Code   RO         3851    x$fpl$dretinf       fz_ws.l(dretinf.o)
    0x0800276c   0x00000056   Code   RO         3748    x$fpl$f2d           fz_ws.l(f2d.o)
    0x080027c2   0x00000002   PAD
    0x080027c4   0x000000c4   Code   RO         3750    x$fpl$fadd          fz_ws.l(faddsub_clz.o)
    0x08002888   0x00000184   Code   RO         3757    x$fpl$fdiv          fz_ws.l(fdiv.o)
    0x08002a0c   0x00000036   Code   RO         3760    x$fpl$ffix          fz_ws.l(ffix.o)
    0x08002a42   0x00000002   PAD
    0x08002a44   0x0000003e   Code   RO         3764    x$fpl$ffixu         fz_ws.l(ffixu.o)
    0x08002a82   0x00000002   PAD
    0x08002a84   0x00000026   Code   RO         3768    x$fpl$ffltu         fz_ws.l(fflt_clz.o)
    0x08002aaa   0x00000002   PAD
    0x08002aac   0x00000102   Code   RO         3774    x$fpl$fmul          fz_ws.l(fmul.o)
    0x08002bae   0x0000008c   Code   RO         3853    x$fpl$fnaninf       fz_ws.l(fnaninf.o)
    0x08002c3a   0x0000000a   Code   RO         3855    x$fpl$fretinf       fz_ws.l(fretinf.o)
    0x08002c44   0x000000ea   Code   RO         3752    x$fpl$fsub          fz_ws.l(faddsub_clz.o)
    0x08002d2e   0x00000004   Code   RO         3776    x$fpl$printf1       fz_ws.l(printf1.o)
    0x08002d32   0x00000000   Code   RO         3857    x$fpl$usenofp       fz_ws.l(usenofp.o)
    0x08002d32   0x00000818   Data   RO         3536    .constdata          oled_i2c.o
    0x0800354a   0x00000011   Data   RO         3734    .constdata          c_w.l(__printf_flags_ss_wp.o)
    0x0800355b   0x00000001   PAD
    0x0800355c   0x00000094   Data   RO         3887    .constdata          c_w.l(bigflt0.o)
    0x080035f0   0x00000020   Data   RO         4062    Region$$Table       anon$$obj.o
    0x08003610   0x0000001c   Data   RO         3917    locale$$data        c_w.l(lc_numeric_c.o)


    Execution Region RW_IRAM1 (Base: 0x20000000, Size: 0x00000968, Max: 0x00005000, ABSOLUTE)

    Base Addr    Size         Type   Attr      Idx    E Section Name        Object

    0x20000000   0x00000014   Data   RW         1808    .data               stm32f10x_rcc.o
    0x20000014   0x00000004   Data   RW         3182    .data               delay.o
    0x20000018   0x00000004   Data   RW         3264    .data               led.o
    0x2000001c   0x00000001   Data   RW         3318    .data               usart2.o
    0x2000001d   0x00000003   PAD
    0x20000020   0x00000005   Data   RW         3440    .data               usart.o
    0x20000025   0x00000003   PAD
    0x20000028   0x00000020   Data   RW         3485    .data               main.o
    0x20000048   0x00000080   Zero   RW         3317    .bss                usart2.o
    0x200000c8   0x00000040   Zero   RW         3439    .bss                usart.o
    0x20000108   0x00000060   Zero   RW         3925    .bss                c_w.l(libspace.o)
    0x20000168   0x00000400   Zero   RW          205    HEAP                startup_stm32f10x_md.o
    0x20000568   0x00000400   Zero   RW          204    STACK               startup_stm32f10x_md.o


==============================================================================

Image component sizes


      Code (inc. data)   RO Data    RW Data    ZI Data      Debug   Object Name

       320         34          0          0          0       1847   adc.o
        56         10          0          0          0        516   beep.o
         0          0          0          0          0       4540   core_cm3.o
       188         14          0          4          0       2036   delay.o
       446         36          0          0          0       2194   exti.o
        36          4          0          0          0        495   key.o
       152         26          0          4          0       2242   led.o
       216         78          0         32          0       1447   main.o
       132         22          0          0          0       1607   misc.o
       534         22       2072          0          0       5347   oled_i2c.o
        64         26        236          0       2048        844   startup_stm32f10x_md.o
       486         24          0          0          0       8886   stm32f10x_adc.o
       160         12          0          0          0       1573   stm32f10x_exti.o
       370          4          0          0          0       3906   stm32f10x_gpio.o
       170          0          0          0          0       5413   stm32f10x_i2c.o
        28          0          0          0          0     270841   stm32f10x_it.o
       308         46          0         20          0       5121   stm32f10x_rcc.o
        68          0          0          0          0       2937   stm32f10x_tim.o
       408          6          0          0          0       5146   stm32f10x_usart.o
       328         28          0          0          0       1969   system_stm32f10x.o
        74         10          0          0          0        980   timer.o
       338         26          0          5         64       4428   usart.o
       108         16          0          1        128       1572   usart2.o

    ----------------------------------------------------------------------
      5018        444       2340         72       2240     335887   Object Totals
         0          0         32          0          0          0   (incl. Generated)
        28          0          0          6          0          0   (incl. Padding)

    ----------------------------------------------------------------------

      Code (inc. data)   RO Data    RW Data    ZI Data      Debug   Library Member Name

        24          4          0          0          0         84   __2printf.o
         8          0          0          0          0         68   __main.o
       392          4         17          0          0         92   __printf_flags_ss_wp.o
        14          0          0          0          0         68   __printf_wp.o
         0          0          0          0          0          0   __rtentry.o
        12          0          0          0          0          0   __rtentry2.o
         6          0          0          0          0          0   __rtentry4.o
        52          8          0          0          0          0   __scatter.o
        26          0          0          0          0          0   __scatter_copy.o
        28          0          0          0          0          0   __scatter_zi.o
        48          6          0          0          0         96   _printf_char_common.o
        36          4          0          0          0         80   _printf_char_file.o
         6          0          0          0          0          0   _printf_d.o
       120         16          0          0          0         92   _printf_dec.o
         6          0          0          0          0          0   _printf_f.o
      1054          0          0          0          0        216   _printf_fp_dec.o
       128         16          0          0          0         84   _printf_fp_infnan.o
       178          0          0          0          0         88   _printf_intcommon.o
         0          0          0          0          0          0   _printf_percent.o
         4          0          0          0          0          0   _printf_percent_end.o
       228          4        148          0          0         96   bigflt0.o
      1936        128          0          0          0        672   btod.o
        18          0          0          0          0         80   exit.o
         8          0          0          0          0         68   ferror.o
         6          0          0          0          0        152   heapauxi.o
        44         10         28          0          0         76   lc_numeric_c.o
         2          0          0          0          0          0   libinit.o
        18          0          0          0          0          0   libinit2.o
         2          0          0          0          0          0   libshutdown.o
         2          0          0          0          0          0   libshutdown2.o
         8          4          0          0         96         68   libspace.o
       138          0          0          0          0         80   lludiv10.o
         8          4          0          0          0         68   rt_locale_intlibspace.o
         2          0          0          0          0          0   rtexit.o
        10          0          0          0          0          0   rtexit2.o
       128          0          0          0          0         68   strcmpv7m.o
        74          0          0          0          0         80   sys_stackheap_outer.o
         2          0          0          0          0         68   use_no_semi.o
         2          0          0          0          0         68   use_no_semi_2.o
        12          0          0          0          0         68   dretinf.o
        86          4          0          0          0         84   f2d.o
       430          8          0          0          0        168   faddsub_clz.o
       388         76          0          0          0         96   fdiv.o
        54          4          0          0          0         84   ffix.o
        62          4          0          0          0         84   ffixu.o
        38          0          0          0          0         68   fflt_clz.o
       258          4          0          0          0         84   fmul.o
       140          4          0          0          0         84   fnaninf.o
        10          0          0          0          0         68   fretinf.o
         4          0          0          0          0         68   printf1.o
         0          0          0          0          0          0   usenofp.o
        40          0          0          0          0         68   fpclassify.o

    ----------------------------------------------------------------------
      6316        312        194          0         96       3636   Library Totals
        16          0          1          0          0          0   (incl. Padding)

    ----------------------------------------------------------------------

      Code (inc. data)   RO Data    RW Data    ZI Data      Debug   Library Name

      4778        208        193          0         96       2612   c_w.l
      1482        104          0          0          0        956   fz_ws.l
        40          0          0          0          0         68   m_ws.l

    ----------------------------------------------------------------------
      6316        312        194          0         96       3636   Library Totals

    ----------------------------------------------------------------------

==============================================================================


      Code (inc. data)   RO Data    RW Data    ZI Data      Debug   

     11334        756       2534         72       2336     333383   Grand Totals
     11334        756       2534         72       2336     333383   ELF Image Totals
     11334        756       2534         72          0          0   ROM Totals

==============================================================================

    Total RO  Size (Code + RO Data)                13868 (  13.54kB)
    Total RW  Size (RW Data + ZI Data)              2408 (   2.35kB)
    Total ROM Size (Code + RO Data + RW Data)      13940 (  13.61kB)

==============================================================================

