:020000040800F2
:1000000068090020A9010008E11D0008A51B0008DF
:10001000DD1D00085D1600086325000800000000D3
:10002000000000000000000000000000F7200008B1
:100030006116000800000000BF010008E12100086F
:10004000C3010008C3010008C3010008F52000082F
:10005000C3010008C301000821170008C3010008FC
:100060002517000895170008E5170008C3010008C8
:10007000C3010008C3010008C3010008C301000850
:10008000C3010008C3010008C3010008C301000840
:10009000C3010008C3010008C3010008C301000830
:1000A000C3010008C3010008C3010008C301000820
:1000B000452200085D220008C3010008C3010008B2
:1000C000C3010008C3010008C3010008C301000800
:1000D000C3010008D5220008C30100085D23000801
:1000E000C3010008C3010008C301000800F002F8C2
:1000F00000F04AF80AA090E8000C82448344AAF178
:100100000107DA4501D100F03FF8AFF2090EBAE875
:100110000F0013F0010F18BFFB1A43F0010318473B
:10012000D0340000F0340000103A24BF78C878C101
:10013000FAD8520724BF30C830C144BF04680C60ED
:10014000704700000023002400250026103A28BF35
:1001500078C1FBD8520728BF30C148BF0B60704739
:10016000662902F0E485642900F04C800020704785
:100170001FB500F01DFC04000020002102F0DAFA97
:10018000E0601FBD10B510BD00F016FD1146FFF771
:10019000EFFF02F023FA00F034FD03B4FFF7F2FFA3
:1001A00003BC02F009FA00000948804709480047EB
:1001B000FEE7FEE7FEE7FEE7FEE7FEE7FEE7FEE717
:1001C000FEE7FEE704480549054A064B7047000074
:1001D000E5210008ED000008680100206809002002
:1001E0006805002068050020704700000FB404492E
:1001F00010B503AA029800F0C9FB10BC5DF814FB0F
:10020000200000202DE9F0410646002410687529E1
:10021000314616A510D0AFF30080002802DA404224
:1002200013A507E031688A0701D512A502E0490746
:1002300004D511A5012401E0AFF3008000210A22BA
:1002400006F1240709E0B0FBF2FCB0FBF2F302FB7D
:100250001C00303078541846491C0028F3D123463E
:100260002A463046BDE8F04100F010B90000000019
:100270002D0000002B000000200000002DE9F05FA1
:10028000894604464FF0000ADFF874B1FB44C0F819
:1002900020A02046E1688847002874D0252806D091
:1002A000D4E901219047206A401C2062F1E7002632
:1002B0005F462046E16888472028054607DB312D48
:1002C00005D2781910F8200C08B10643F1E7B00701
:1002D00001D526F00406C4F81CA00027C4F818A015
:1002E0002A2D09D0284602F060F938B304EB8708BC
:1002F000303DC8F8185019E059F8041B204604EBAB
:1003000087029161E1688847012F054618D1E069AD
:10031000002820DA26F020061DE0D8F8180000EBAF
:10032000800005EB40003038C8F818002046E1682E
:100330008847054602F039F90028EED1012F0AD08E
:100340002E2D08D12046E16888477F1C0546022FE4
:1003500046F02006C4DBA069002803DA404246F0DC
:100360000106A061F00701D026F010066C2D0BD01D
:10037000682D09D04C2D39D06A2D35D0742D35D04B
:100380007A2D33D016E038E0E1682F4620468847C2
:10039000B842054609D16C2F26D04FF48060E16841
:1003A000064320468847054604E06C2F1AD04FF4D8
:1003B000807006430DB3A5F14100192802D82035FD
:1003C00046F400664A462946204626604E46FFF718
:1003D000C7FE80B101280BD0F61D26F0070000F102
:1003E000080956E74020E4E78020D8E70020D6E758
:1003F00006F104094DE7284652E7206ABDE8F09F60
:10040000BA3200004FF0013C50F8042B51F8043B85
:100410009A4221D1A2EB0C03934313EACC1317D1D8
:1004200050F8042B51F8043B9A4215D1A2EB0C036F
:10043000934313EACC130BD150F8042B51F8043B2F
:100440009A4209D1A2EB0C03934313EACC13DBD0FD
:100450004FF00000704700BFD01A01BAB1FA81F125
:1004600001F0180122FA01F0CB40C1F12001DBB20A
:10047000C0B2C01A2CFA01F3D11A914311EAC31188
:10048000E6D1704770477047704770472DE9F047D5
:100490000D4699469246044600F1240801688806F4
:1004A00004D5E06921F01001216000E00120A8429C
:1004B00001DD471B00E00027A1697A1902EB090062
:1004C000081AA0612078C00602D42046AFF300804D
:1004D000002608E0D4E901211AF806009047206AB6
:1004E000401C761C20624E45F4DB2078C0060AD5FD
:1004F0002046AFF3008006E0D4E901213020904788
:10050000206A401C2062381EA7F10107F4DC07E0D6
:10051000D4E9012118F805009047206A401C2062A8
:10052000281EA5F10105F3DC2046AFF300802078FA
:10053000000602D50220BDE8F0870120FBE77047E6
:100540002DE9FF4F0C461E464FF0FF378BB0D2E926
:100550000001DDF860800A908A46C1F30A5505B9AA
:100560003D46002108464FF00000BAF1000F00F4AC
:10057000400005DA00EB80004FF4400101EA500032
:100580004FEA9059B9F1010F00DDB9460A9850EAD7
:100590004A000ED044F61050A5F2FF3545432F1403
:1005A000B8F1000F1ED07542291E1EDDC9F10002F0
:1005B0001CE0B8F1010F4FF0000001D0302103E042
:1005C000F24305E02154401CB042FBDB30460022E0
:1005D000002121540B99C1F80880C1E900200FB017
:1005E000BDE8F08FBD1B6D1CDEE74A4600DA6942AC
:1005F00006A800F067FA06AB93E8070003AB83E8B0
:10060000070050460A9900F005FB8DE80700A0F5A9
:1006100000501F3800900398002D0ADD42F21F01A0
:100620004A460844002303A90390684600F06EFD83
:1006300009E0A0F500504A461F38002303A90390A3
:10064000684600F078FD8DE807000004000C03D038
:100650004FF0FF30410800E01046B8F1000F03D022
:100660000022009215461EE0751E05D400F0A4F984
:10067000303262556D1EF9D5B3460122084302D0CF
:1006800000227F1C04E02078302801D100227F1E48
:10069000002A099784D01DE0112D07DA00F08CF9AB
:1006A000303262556D1C50EA0102F5D1084302D088
:1006B0000098C8B10EE00021681E05E0235C625C72
:1006C00063542254401E491C8142F7DBAB46A81BF1
:1006D000401E0990002004F80B000B98099AC0F8FE
:1006E0000880C0E9002B7AE711264FF0000857E791
:1006F0002DE9F04F88460446D21D22F0070191B043
:10070000D1E90001CDE90A0101F03BFF02460B9857
:10071000C00F01D02D2007E02068810701D52B20D4
:1007200002E0202101EAC000032A099001D0072A33
:1007300005DB03464146204600F084F90BE12078B2
:10074000800601D5E06900E00620B8F1650F81461A
:1007500006D0B8F1660F18D0B8F1670F70D131E04C
:100760000020B9F1110F009001DB112301E009F124
:1007700001030AAA01A90CA8FFF7E2FEDDE90C704B
:10078000002609F10105834647E001204B46009011
:100790004FF000470AAA01A90CA8FFF7D1FEDDE936
:1007A0000DB00C995D46002610B909F101000D1835
:1007B000B9EB050003D4C0F1FF3609F10105A5EB43
:1007C00009002BE0B9F1010F01DA4FF00109002017
:1007D000B9F1110F0090484601DD112300E00346F6
:1007E0000AAA01A90CA8FFF7ABFEDDE90C704D4683
:1007F00000268346207800070AD4AB4500DA5D4620
:1008000001A8012D04DD411911F8011C302907D080
:100810004F4502DA17F1040F04DA012082460FE097
:100820006D1EEEE7002F02DCED1B3E4403E0781C5A
:10083000A84200DD7D1CB81B00F1010A4FF0004703
:100840002078000703D4AA4501DB4FF0FF3A0021CE
:10085000B7F1004F0DF143088DF8431024D002206A
:100860002B23002F01DA7F422D230A21021EA0F143
:10087000010000DC5FB197FBF1FC97FBF1F201FB9B
:100880001C7C17460CF1300C08F801CDEEE7A8F1FE
:10089000010003702188090501D5452100E065218B
:1008A000A0F1010800F8011C09980FA9A1EB0807A5
:1008B000FF1D00B10120411901EBEA70A169384424
:1008C000081A401EA0612078C00602D42046AFF36B
:1008D0000080099828B1D4E901219047206A401C82
:1008E00020622078C00622D52046AFF300801EE0AB
:1008F000002E04DBB34502DD01A8805D00E030205E
:10090000D4E901219047206A401C2062761CAAF19C
:1009100001005FEA000A0AD100F04AF8C0680168E5
:10092000405CD4E901219047206A401C2062281EC7
:10093000A5F10105DCDC07E0D4E9012118F8010B81
:100940009047206A401C2062381EA7F10107F3DCA3
:100950002046AFF30080032011B041E601694A1C34
:1009600002610878704700B58FB0CDE901310021F0
:10097000059105497944CDE9031011466846FFF712
:100980007DFC0FB000BD0000E5FFFFFF074B70B519
:100990000D467B44FFF7E7FF0446284600F004F9C4
:1009A00010B14FF0FF3070BD204670BD2B1C000011
:1009B000004870472801002030B5B0F10A024FEA24
:1009C000900E71F100034EEA817EB0EB0E0061EBF8
:1009D00091014FEA101E4EEA017E10EB0E0041EB32
:1009E00011114FEA102E4EEA016E10EB0E0041EB92
:1009F00011214FEA104E4EEA014E10EB0E0041EB72
:100A00001141401841F100014FEAD00040EA417025
:100A10004FEAD10110EB80054FEA810444EA90745B
:100A200044EB01046D1944EB0404521BA3414FF045
:100A3000000348BF0A3200D530BD401C41F100011F
:100A400030BD00002DE9F0411F4604460326016831
:100A5000072A01F4006004DB08B116A505E016A51D
:100A600003E008B115A500E015A521F010002060F5
:100A7000A069C01EA0610FB1401EA0612046AFF367
:100A800000804FB1D4E9012138469047206A401CCC
:100A90002062C01C206206E0206AFAE7D4E9012146
:100AA00015F8010B9047761EF8D22046AFF3008070
:100AB000BDE8F0814E414E006E616E00494E460029
:100AC000696E66002DE9F047814616468AB03548C2
:100AD00078440DC88DE80D0032487844801C03AC82
:100AE0000DC884E80D0041F69B300844372190FB87
:100AF000F1F290FBF1F5A5F1800501FB12041B3C1E
:100B000002D56442012000E00020DFF898A0804672
:100B10000027FA44AAF1BE0A0EE0E0070AD03246E6
:100B2000684607EB470101230AEB810100F003FB54
:100B30008DE8070064107F1C002CEED1194F7F4414
:100B4000AE3F19E0E80715D007EB04100DF1180AC5
:100B500090E80E008AE80E00C068F04201D19819B2
:100B600008903246012306A903A800F0E4FA03AB7B
:100B700083E807006D10641C002DE3D14FF00103E2
:100B800032466946B8F1000F03A802D000F0BEFA61
:100B900001E000F0D0FAC9E90001C9F808200AB064
:100BA000BDE8F087042B0000007B00F08000704758
:100BB00000487047080100207546FFF7F9FFAE4670
:100BC00005006946534620F00700854618B020B559
:100BD000FFF7F8FABDE820404FF000064FF000079D
:100BE0004FF000084FF0000B21F00701AC46ACE8D5
:100BF000C009ACE8C009ACE8C009ACE8C0098D4642
:100C0000704710B50446AFF300802046BDE81040A1
:100C1000FFF7C3BA5FEA400C08BF91F0000F4FEA3C
:100C20008C234FEAC12243EA51514FEA1C5018BFAE
:100C300000F5F0404FEA300018BF41F000415FEA94
:100C40006C5C00F02980BCF1FF3F08BF40F08040A1
:100C50007047130C06BF12044FF0100C4FF0000C3D
:100C6000130E04BF12020CF1080C130F04BF120183
:100C70000CF1040C930F04BF92000CF1020CD30F83
:100C800004BF52000CF1010C11464FF00002A0F11C
:100C90001F00A0EB0C00704711F0004F08BF704719
:100CA00031F000413FF4D5AF0B0C06BF09044FF003
:100CB000100C4FF0000C0B0E04BF09020CF1080CD5
:100CC0000B0F04BF09010CF1040C8B0F04BF89004A
:100CD0000CF1020CCB0F04BF49000CF1010CCCF15C
:100CE0002003A0EB0C0022FA03F302FA0CF241EA13
:100CF000030100F10100704720F07F4C80EA0300FF
:100D000023F07F47ACEB070303F57C5300F0004072
:100D100003F1FF032DE980494FEA154B09B44FEA6F
:100D2000144325EA0B4E24EA03480FF2042606EB8F
:100D3000132749083E785FEA320203FB0667C7F5CE
:100D4000000707FB06F64FEA54374FEAD64606F18E
:100D5000020607FB066CCCF1005C4FEA1C472CEA4C
:100D6000074C07FB06F40CFB06F504EB15464FEAAF
:100D7000961634BF00204FF000404FEAD13706FBF3
:100D800007FC4FEA1C4C0CFB0BF7D21B03FB0CF7C8
:100D900061EB07010CFB0EF7B0EB074072EB17425B
:100DA0000CFB08F734BFA2EB0742B2EB074261EB42
:100DB00017414FEA0C444FEA910706FB07FC4FEA44
:100DC0001C4C0CFB0BF7B0EBC74072EB573203FB2C
:100DD0000CF734BFA2EBC742B2EBC74261EB57310D
:100DE0000CFB0EF7B0EBC70072EB57720CFB08F769
:100DF00034BFA2EBC702B2EBC70261EB5771039F8E
:100E00004FEA816141EA921104EBCC044FEAD137F9
:100E10004FEA826206FB07FC42EA90124FEA8060CA
:100E20004FEA1C4C0CFB0BF7D21B03FB0CF761EBDE
:100E300007010CFB0EF7B0EB074072EB17420CFBFF
:100E400008F734BFA2EB0742B2EB074261EB174150
:100E50004FEA8C554FEA910704EB9C2406FB07FCF4
:100E60004FEA1C4C0CFB0BF7B0EBC74072EB573250
:100E700003FB0CF734BFA2EBC742B2EBC74261EBF6
:100E800057310CFB0EF7B0EBC70072EB57720CFB3F
:100E900008F734BFA2EBC702B2EBC70261EB577190
:100EA00015EB4C254FEA816141EA92114FEA8262CB
:100EB0004FEAD13742EA901206FB07FC44F10004E6
:100EC0004FEA80604FEA1C4C0CFB0BF7D21B03FB74
:100ED0000CF761EB07010CFB0EF7B0EB074072EB70
:100EE00017420CFB08F734BFA2EB0742B2EB0742F4
:100EF00061EB174115EB1C154FEA813141EA924134
:100F00004FEA823242EA90424FEA80304FEA0C7652
:100F100044F1000448EA03434EEA0B484FF0000E48
:100F2000B2EB080C71EB030724BF624639464EEB67
:100F30000E0E4FF0000B0018524149414BEB0B0BCA
:100F4000B2EB080C71EB03077BF1000B24BF624688
:100F500039464EEB0E0E4FF0000B0018524149413E
:100F60004BEB0B0BB2EB080C71EB03077BF1000BA7
:100F700024BF624639464EEB0E0E51EA020718BFF7
:100F800046F0010616EB0E7655F1000254F1000111
:100F900003D5BDE88901BDE80088BDE88901BDE849
:100FA0000048B619524141EB0101A3F1010370471A
:100FB00080807F7E7D7C7B7A797877767675747396
:100FC000727171706F6E6E6D6C6C6B6A6A69686855
:100FD000676666656464636362616160605F5F5EEB
:100FE0005E5D5D5C5C5B5B5A5A5959585857575661
:100FF00056555555545453535252525151505050C6
:101000004F4F4F4E4E4D4D4D4C4C4C4B4B4B4A4A17
:101010004A4949494848484747474746464645455B
:101020004544444444434343434242424241414194
:10103000002B9C4630D477002BD01CB54FEA3707E5
:1010400003B44FF010004FF01001BAF1000F06D0BA
:10105000BCF1000FDCBF40F0080040F008014FF089
:1010600000000FBCBDE810400BF1010BBBF1010FFC
:1010700008BF5FEA170722BF12F1010211F1010157
:101080004FF0004143F1000300F0004043EA00004C
:101090007047F9D35708D0E746EA064613F1400FE8
:1010A0004FEA16461FDD13F1200FDFBF16430A4635
:1010B000002120335B42BED0C3F1200746EA06463A
:1010C00002FA07F74FEA164646EA0706C3F1200779
:1010D00022FA03F201FA07F721FA03F14FF00003B5
:1010E00042EA0702A7E746EA020646EA06464FEA50
:1010F000164646EA0106BCBF46EA0646360C4FF0E5
:1011000000034FF000024FF0000194E72DE9804CFE
:101110009A46934670B491E8380007C831EA400C0B
:1011200048BF34EA430C03D5FFF7E6FDFFF780FF25
:10113000F0BCBDE8008C2DE9804C9A46934670B413
:1011400091E8380007C810F0804F08BF13F0804FB7
:1011500003D100F005F8FFF76BFFF0BCBDE8008C91
:1011600020F07F4780EA030023F07F4C07EB0C035D
:10117000A3F57C5300F00040A3F1FE0392F0000FB2
:1011800000F0B38095F0000F00F077802DE9014961
:101190004FEA11404FEA144621EA004800FB06FCE2
:1011A00024EA064708FB06F607FB08F800FB07F7EA
:1011B00018EB06484CEB164C4FEA124B18EB07485D
:1011C0004FEA15464CEB174022EA0B4E0BFB06FC90
:1011D00025EA06470EFB06F607FB0EFE0BFB07F79C
:1011E0001EEB064E4CEB164C4FF000061EEB074E66
:1011F0004CEB174B18EB0B0840F1000018EB0E0BF3
:1012000058EB000840F100008F1A4FF000013CBF7E
:10121000C943661B14BFB5EB040C00213CBFC94396
:10122000F61B4FEA17444EEA8E0E27EA04454FEAB2
:101230001C4704FB07622CEA074C05FB07F70CFB75
:1012400005F604FB0CFC16EB074642EB174216EBC7
:101250000C4642EB1C421BEB060658EB02024141D6
:1012600046EA9E0601D5BDE80189B619524141EB17
:101270000101A3F10103BDE801894FEA14454FEADA
:10128000114724EA054621EA074C05FB07F406FB53
:1012900007F70CFB06F105FB0CFC11EB074144EBD7
:1012A00017444FEA124711EB0C4144EB1C4422EA6D
:1012B000074C05FB07F206FB07F70CFB06F605FBE0
:1012C0000CFC16EB074642EB174216EB0C4642EBC2
:1012D0001C456A1854F1000148BF7047B6195241C5
:1012E00041EB0101A3F10103704795F0000F37D0E6
:1012F0004FEA11424FEA144721EA024624EA074C1A
:1013000002FB07F106FB07F70CFB06F402FB0CFCE3
:1013100014EB074441EB17414FEA154714EB0C441B
:1013200041EB1C4125EA074C02FB07F506FB07F7DA
:101330000CFB06F602FB0CFC16EB074645EB1745CB
:1013400016EB0C4645EB1C42121951F1000148BF47
:101350007047B619524141EB0101A3F101037047F7
:101360004FEA14454FEA114724EA054621EA074CA3
:1013700005FB07F106FB07F70CFB06F24FF0000632
:1013800005FB0CFC12EB074241EB174112EB0C4240
:1013900051EB1C4148BF7047921841EB0101A3F18A
:1013A0000103704721B1826842F00102826003E0CC
:1013B000826822F0010282607047000010B5044686
:1013C0001248844208D10121401500F015FE002189
:1013D000601500F011FE17E00D48844208D101218C
:1013E000001500F009FE0021201500F005FE0BE0BD
:1013F0000848844208D10121C80300F0FDFD002106
:101400004FF4004000F0F8FD10BD00000024014042
:1014100000280140003C0140014600208A6802F09B
:1014200004020AB1012000E0002070470146C86CA8
:1014300080B270470246002013680B400BB10120B8
:1014400000E000207047014600208A6802F0080290
:101450000AB1012000E000207047000030B50246CC
:101460000020002350680F4C20400D790C6844EA9E
:1014700005242043506090680B4C2040D1E9025471
:101480002C434D7944EA450420439060D06A20F40F
:1014900070000C7C641EE4B2234340EA0350D06227
:1014A00030BD0000FFFEF0FFFDF7F1FFF0B5044690
:1014B0000D4600200021092D11DDE068A5F10A0686
:1014C00006EB4607072606FA07F18843A5F10A0648
:1014D00006EB460603FA06F10843E0600CE02069DB
:1014E00005EB4507072606FA07F1884305EB450695
:1014F00003FA06F108432061072A0FDA606B561ED3
:1015000006EB86071F2606FA07F18843561E06EBF0
:10151000860605FA06F10843606322E00D2A0FDA19
:10152000206BD61F06EB86071F2606FA07F18843B5
:10153000D61F06EB860605FA06F10843206310E085
:10154000E06AA2F10D0606EB86071F2606FA07F1F0
:101550008843A2F10D0606EB860605FA06F108435C
:10156000E062F0BD816841F008018160704721B1FF
:10157000826842F4A002826003E0826822F4A00242
:1015800082607047816841F004018160704700000B
:1015900000B587B001214FF4027000F01DFD02205C
:1015A000ADF8180000208DF81B0003208DF81A00FC
:1015B00006A91A4800F006FA4FF4004000F000FDBA
:1015C0001748FFF7FBFE00208DF8090004904FF448
:1015D000602003900020019001208DF8140000206D
:1015E0008DF8080001A90E48FFF738FF01210C48CB
:1015F000FFF7D8FE0A48FFF7B5FF00BF0848FFF71E
:1016000022FF0028FAD10648FFF7BCFF00BF0448BC
:10161000FFF702FF0028FAD107B000BD0008014023
:101620000024014008B50121082000F0D5FC4FF44A
:101630000040ADF8000010208DF8030003208DF865
:1016400002006946034800F0BDF901200249086024
:1016500008BD0000000C0140BC81214200BFFEE734
:10166000704770B50446002600254FF4FA7094FBCD
:10167000F0F0C6B24FF4FA7094FBF0F100FB1140A9
:1016800085B205E04FF4FA7000F00AF8701EC6B299
:10169000002EF7D115B1284600F002F870BD000009
:1016A000002100B9704720F07F400E4A1288424363
:1016B0004FF0E0235A6100229A6101221A6100BFB3
:1016C0004FF0E022116901F001021AB101F48032F9
:1016D000002AF5D000224FF0E0231A619A6100BF82
:1016E000E0E70000160000204FF0E020006920F045
:1016F00004004FF0E02108610920074908700846FE
:10170000007800EB4001C1EBC0104FF6FF7101EA19
:10171000C000024908807047140000201600002015
:101720007047000010B56420FFF79BFF04211648A6
:1017300000F0D3F978B91548006860B9144800681A
:1017400000EB800040001249086010480068401C0F
:101750000E49086014E004210B4800F0BEF978B986
:101760000A48006801280BD1094800680A2190FB4B
:10177000F1F00749086005480068401E0349086009
:10178000042000F0AFF810BD000801403C0000202C
:101790003800002010B56420FFF763FF08210E48D1
:1017A00000F09BF9A0B90D480068002802DA00207B
:1017B0000A4908600948006809490968401A074948
:1017C000086001230846072102684B2000F0BCFB9B
:1017D000082000F087F810BD000801402C00002010
:1017E0003800002010B56420FFF73BFF10210E48A1
:1017F00000F073F9A0B90D480068642802DD642088
:101800000A49086009480068094909680844074905
:10181000086001230846072102684B2000F094FB72
:10182000102000F05FF810BD000801402C000020DF
:10183000380000200EB500F067FA0121084600F0DC
:10184000CBFB0221002000F09DF804200190002035
:101850008DF808000C208DF8090001208DF80A0091
:1018600001A800F045F80321002000F08BF80820C3
:10187000019001A800F03CF80421002000F082F85B
:101880001020019001A800F033F80A208DF8000024
:1018900002208DF801008DF8020001208DF8030070
:1018A000684600F09FFA09208DF8000002208DF8AC
:1018B000010001208DF802008DF80300684600F059
:1018C00091FA08208DF8000002208DF80100002018
:1018D0008DF8020001208DF80300684600F082FABE
:1018E0000EBD00000149086070470000140401406B
:1018F000002123498279002A3AD00A4612680368F7
:101900009A430B461A600A1D126803689A430B1D1E
:101910001A60027911440A6803681A430A60184A77
:101920000832126803689A43154B08331A601A1D6F
:10193000126803689A43124B0C331A604279102ADA
:101940000ED11A1F126803681A430D4B08331A6030
:101950001A1D126803681A43094B0C331A600DE014
:101960000749427911440A6803681A430A6005E08E
:10197000027911440A6803689A430A6070470000BC
:101980000004014030B500228B071C0F0F2303FA1F
:1019900004F20B4B8C1053F824309343084C8D10F9
:1019A00044F8253023468C1053F824308C07240F3C
:1019B00000FA04F42343024C8D1044F8253030BD66
:1019C000080001402DE9F0410246002500260020D4
:1019D00000230024002791F803C00CF00F0591F8B4
:1019E00003C00CF0100CBCF1000F03D091F802C042
:1019F0004CEA050591F800C0BCF1000F31D0146825
:101A000000202BE04FF0010C0CFA00F3B1F800C0FD
:101A10000CEA03069E4220D183004FF00F0C0CFA13
:101A200003F7BC4305FA03FC4CEA040491F803C035
:101A3000BCF1280F06D14FF0010C0CFA00FCC2F8E3
:101A400014C00AE091F803C0BCF1480F05D14FF073
:101A5000010C0CFA00FCC2F810C0401C0828D1D3BD
:101A60001460B1F800C0BCF1FF0F34DD54680020F1
:101A70002EE000F1080C4FF0010808FA0CF3B1F861
:101A800000C00CEA03069E4221D183004FF00F0CE8
:101A90000CFA03F7BC4305FA03FC4CEA040491F882
:101AA00003C0BCF1280F05D100F1080C08FA0CF8AE
:101AB000C2F8148091F803C0BCF1480F07D100F1BF
:101AC000080C4FF0010808FA0CF8C2F81080401C0E
:101AD0000828CED35460BDE8F08102460020936808
:101AE0000B400BB1012000E0002070470AB10161FA
:101AF00000E041617047000010B504460723012251
:101B000021460948FFF7D2FC01210748FFF72FFDC6
:101B100000BF02210448FFF78DFC0028F9D00248DD
:101B2000FFF784FC10BD0000002401402DE9F047C0
:101B300007460C460025002608E03846FFF7DCFF84
:101B400005440120FFF78DFD701CC6B2A642F4DBF0
:101B5000B5FBF4F8404600F095FF0D4908600846D3
:101B600001680C4801F06EF882460B4900F08CFECB
:101B700081460A4900F09AFF804600F047FF084975
:101B800008600348006800F05DFF80B2BDE8F087A0
:101B90002800002000C07F4500C04D4500401C4685
:101BA0003000002000BFFEE710B5FFF79DFD4FF4A9
:101BB000A06000F04FF900F0F5F84FF4165000F077
:101BC00065FDFFF7E5FCFFF735FEFFF72BFD10BDC8
:101BD00070B502460024002500230020958A138B4F
:101BE0001B0445EA030626F07F4404EA01068E4200
:101BF00001D1012000E0002070BD21B1028842F433
:101C00008072028004E002884FF6FF631A4002806F
:101C1000704721B1028842F40072028004E0028819
:101C20004FF6FF531A40028070470CB50246002061
:101C300000230193009300920B0F019321F07F4149
:101C4000019B1BB1009B1433009303E0090C009B24
:101C500018330093009B1B680B400BB1012000E080
:101C600000200CBD12B141F0010102E04FF6FE73FD
:101C700019400182704701827047000070B5044628
:101C80000D4600BF4FF400311C48FFF7CEFF00287F
:101C9000F8D101211948FFF7B0FF00BF18491748D4
:101CA000FFF796FF0028F9D0002278211348FFF7AC
:101CB000D9FF00BF13491148FFF78AFF0028F9D068
:101CC00021460E48FFF7D7FF00BF0E49891C0B487D
:101CD000FFF77EFF0028F8D029460848FFF7CBFF22
:101CE00000BF0849891C0548FFF772FF0028F8D09B
:101CF00001210248FFF78DFF70BD00000058004031
:101D0000010003008200070008B50121042000F053
:101D100063F91C20ADF8000048208DF803006946E7
:101D20000148FFF74FFE08BD0008014010B502460C
:101D3000012000E050430B1EA1F10104E1B2F9D1F2
:101D400010BD000010B50446012C01D0012000E0B8
:101D50000020024640210548FFF7C8FE0CB10120D3
:101D600000E000200249087010BD0000000C014096
:101D70001800002010B50446012C01D0012000E01D
:101D80000020024680210548FFF7B0FE0CB101207B
:101D900000E000200249487010BD0000000C014026
:101DA0001800002008B50121082000F015F91020C6
:101DB0008DF80300C020ADF8000003208DF802006C
:101DC00069460548FFF7FEFD0020FFF7BBFF002036
:101DD000FFF7D0FF08BD0000000C014000BFFEE788
:101DE0007047000070B5002100230F22C47804B3AF
:101DF000154C246804F4E064C4F5E064210AC1F1E0
:101E00000403CA40447804FA03F18478144021435F
:101E100009010E4C0678A155047804F01F05012431
:101E2000AC4005786D11AD0005F1E025C5F8004125
:101E300009E0047804F01F050124AC40044D067845
:101E4000761145F8264070BD0CED00E000E400E09E
:101E500080E100E002490143024A1160704700003E
:101E60000000FA050CED00E070B504460D4605F1E2
:101E7000B001C8B200F077FB102141EA141000F065
:101E800072FB04F00F0141F0010000F06CFB70BD2B
:101E90002DE9F04707460E46904699460025002456
:101EA000B9F1010F03D0B9F1020F46D11AE008F1E0
:101EB0001000C5B27E2F02DD0027701CC6B231466D
:101EC0003846FFF7D1FF002409E005EB45011C4A25
:101ED00002EB4101085D00F04DFB601CC4B2062C12
:101EE000F3DB2AE008F11000C5B2782F02DD0027ED
:101EF000701CC6B231463846FFF7B6FF002407E033
:101F000004EB05110F4A505C00F034FB601CC4B2B6
:101F1000082CF5DB701CC1B23846FFF7A5FF002482
:101F200008E004EB05110831064A505C00F022FB82
:101F3000601CC4B2082CF4DB00BF00BFBDE8F08712
:101F4000322D00085A2F00082DE9F05F054689461A
:101F500090469B4604274FF0000A00242CE0381BD3
:101F6000401EC1B20A20FFF7E1FEB8FBF0F00A21E3
:101F7000B0FBF1F201FB1206BAF1000F10D1781E8E
:101F8000A0420DDD56B9062101FB0451C8B2012360
:101F90006FF00F024946FFF77BFF0BE04FF0010A9D
:101FA000062101FB0451C8B2012332464946FFF71E
:101FB0006FFF00BF601CC4B2BC42D0DBBDE8F09F25
:101FC00001460020034A506820F440400843506016
:101FD000704700000010024029B1064A926902438E
:101FE000044B9A6104E0034A92698243014B9A616F
:101FF000704700000010024029B1064AD26802432F
:10200000044BDA6004E0034AD2688243014BDA6091
:10201000704700000010024030B50021002200246B
:1020200000232D4D6D6805F00C0121B1042905D068
:10203000082923D105E0294D056022E0284D0560DF
:102040001FE0254D6D6805F47012234D6D6805F491
:102050008034022505EB92421CB9224D55430560A0
:102060000BE01D4D6D6805F400351DB11E4D554347
:10207000056002E01A4D5543056002E0174D05600A
:1020800000BF00BF144D6D6805F0F0010909174D40
:102090006B5C0568DD4045600F4D6D6805F4E061DF
:1020A000090A124D6B5C4568DD4085600A4D6D681C
:1020B00005F46051C90A0D4D6B5C4568DD40C56093
:1020C000054D6D6805F44041890B094D6B5CC56891
:1020D000B5FBF3F5056130BD0010024000127A0037
:1020E000001BB70000093D00808D5B000000002050
:1020F000100000207047704710B500F001F810BDC7
:102100000CB50020019000903348006840F4803006
:102110003149086000BF3048006800F4003000908A
:102120000198401C0190009818B90198B0F5A06F73
:10213000F1D12948006800F4003010B1012000906E
:1021400001E0002000900098012843D12348006856
:1021500040F01000214908600846006820F00300A4
:1021600008600846006840F0020008601A484068AD
:10217000194948600846406848600846406840F48D
:10218000806048600846406820F47C10486008463B
:10219000406840F4881048600846006840F080704D
:1021A000086000BF0C48006800F000700028F9D0FB
:1021B0000948406820F00300074948600846406825
:1021C00040F00200486000BF0348406800F00C0087
:1021D0000828F9D10CBD0000001002400020024088
:1021E0007047000010B51348006840F00100114925
:1021F000086008464068104908400E494860084693
:1022000000680E4908400B4908600846006820F441
:10221000802008600846406820F4FE0048604FF4C3
:102220001F008860FFF768FF4FF0006004490860F6
:1022300010BD0000001002400000FFF8FFFFF6FE96
:1022400008ED00E010B50121880700F030F818B162
:102250000121880700F01CF810BD000010B5012115
:10226000094800F024F868B10848007840F0800080
:10227000064908700121044800F00AF800210248CC
:1022800000F009F810BD0000000400401C00002010
:10229000CA430282704721B1028842F001020280E3
:1022A00004E002884FF6FE731A400280704730B592
:1022B0000246002000230024158A05EA01039589BF
:1022C00005EA010413B10CB1012000E0002030BD8B
:1022D0008184704710B540F225511D4800F080F808
:1022E00010B31B4800F038F9C4B21A48007800F067
:1022F0008000C8B91748007800F0400060B10A2C8F
:1023000003D000201349087020E01248007840F004
:1023100080001049087019E00D2C06D10D48007896
:1023200040F040000B49087010E00A48007800F0C7
:102330003F0009490C5407480078401C05490870C3
:10234000084600783F2801DD0020087010BD00001D
:102350000038014024000020C800002010B540F2E1
:102360002551154800F03CF828B3134800F0F4F864
:10237000C4B21248007800F08000E0B90F4800783D
:10238000402812DA00210E48FFF7A2FF0B48007820
:1023900018B901210A48FFF77EFF08490878411C57
:1023A000064A117007490C5405E00448007840F0D3
:1023B00080000249087010BD004800401C00002049
:1023C000000400404800002021B1828942F40052FC
:1023D000828104E082894DF6FF731A408281704742
:1023E00070B50246002400230025002040F66A163E
:1023F000B14200D100BFC1F3421501F01F03012615
:1024000006FA03F3012D02D19689334006E0022D2E
:1024100002D1168A334001E0968A33400C1201261D
:1024200006FA04F41688344013B10CB1012000E020
:10243000002070BDF0B503460024002600250020D2
:1024400040F66A17B94200D100BF1846C1F34214E2
:1024500001F01F06012707FA06F5012C01D10C3007
:1024600004E0022C01D1103000E014301AB10768EA
:102470002F43076002E00768AF430760F0BD00002C
:102480002DE9F04786B005460E460024A24600BF5F
:10249000A1460027B08900B100BF2F462C8A4CF618
:1024A000FF700440F08804432C82AC894EF6F31090
:1024B0000440B08831890843718908430443AC81E2
:1024C000AC8A4FF6FF400440B0890443AC8201A8B7
:1024D000FFF7A2FD1F48874202D1DDF810A001E0FE
:1024E000DDF80CA0A88900F4004040B10AEBCA0056
:1024F00000EB0A1031684900B0FBF1F807E00AEB85
:10250000CA0000EB0A1031688900B0FBF1F86420C2
:10251000B8FBF0F004012009642101FB1089A889AF
:1025200000F4004040B1322000EBC900B0FBF1F0F4
:1025300000F00700044308E0322000EB091064219A
:10254000B0FBF1F000F00F0004432C8106B0BDE8B1
:10255000F08700000038014001468888C0F3080079
:10256000704700BFFEE710B5044621460020FFF784
:1025700085FB10BD10B5044621464020FFF77EFBC9
:1025800010BD490050EAC12018BF04204A0D18BFF1
:1025900040F0010040F2FF72B2EB515F08BF40F023
:1025A0000200012808BF0520704730380A2801D2F0
:1025B0000120704700207047014600BF70470000AF
:1025C00000BF054A128802F04002002AF9D0C2B2C8
:1025D000014B1B1D1A8070470038014032201849FA
:1025E0000860FFF7E1FA17A0FDF700FE26E00A21D8
:1025F0000120FFF79BFA4FF4FA70FFF732F8154805
:10260000006842F21071884202DD084611490860F4
:1026100010480068002802DA00200E4908600E48C1
:10262000006800F0A3F8044622460B460BA0FDF715
:10263000DDFD084801680FA0FDF7D8FDD7E70000D1
:10264000340000200D0AB3F5CABCBBAFCDEAB3C954
:102650000D0A000030000020280000200D0AC4FAF6
:10266000B7A2CBCDB5C4CFFBCFA2CEAA3A25660D7B
:102670000A0D0A000D0AC4FAB7A2CBCDB5C4CFFB30
:10268000CFA2CEAA3A25640D0A0D0A0010B586B075
:102690000446012144F20400FFF79EFC4FF4007051
:1026A000ADF8140003208DF8160018208DF81700DF
:1026B00005A91E48FFF786F94FF48060ADF81400B5
:1026C00004208DF8170003208DF8160005A917487F
:1026D000FFF778F925208DF8000000208DF8010023
:1026E00003208DF8020001208DF803006846FFF7F3
:1026F00079FB01940020ADF80800ADF80A00ADF8B0
:102700000C00ADF810000C20ADF80E0001A908482F
:10271000FFF7B6FE012240F225510548FFF78AFE79
:1027200001210348FFF750FE06B010BD000801402C
:102730000038014010B500290AD00878002807D0D9
:1027400005487844FDF75EFE002801D0002010BD4A
:102750000248784410BD0000CE0E0000C60E0000F6
:102760000808A0F500114FEA3101704743004FEA15
:10277000D30C4FEA3C0C43401FBF40070CF16051A3
:1027800013F0FE4F70471CF0006F03D100200CF0D7
:10279000004170470CF0004343EA507010B540EA26
:1027A000CC0000F004FA00BF000000924FEA0001E4
:1027B000FFF7D6BF4FF000414FF00000A1F5002118
:1027C0007047000090EA010F48BF81F0004100F11E
:1027D0004082421A3CBF801A89184FEAD0524FF00B
:1027E0007F4C1CEA410FA2EBD15318BF9CEA026F49
:1027F00000F03B804FF0004C4CEA00204CEA0121F5
:1028000021FA03FC10EB0C0C1ED202F1FF325FEA3E
:102810001C2040EBC25038BF70471CF07F0F4FEABE
:10282000400C18BFBCF17F4F38BF7047C3F1200385
:10283000994008BF20F00100BCF17F4F38BF7047BE
:10284000A0F1C04000F0F9B94FEA3C00000A40EBAB
:10285000C25028BF1CF0FF0F4FEA400CE6D018BF53
:10286000BCF17F4F38BF7047EAE79CEA026F05D0A2
:1028700010EA5C0F08BF00F00040704710B500F090
:1028800096F900BF64FBBE3E4FF47F0C1CEAD012E9
:102890001EBF1CEAD11392EA0C0F93EA0C0F00F052
:1028A000858090EA010F48BF42F4807240F4000C2A
:1028B00041F400002CF07F4120F07F4000B58142C0
:1028C000A2EB03020FF2081CACEB504EC0F100006B
:1028D0009EF800E04FEA4E0E00FB0EFC38BF4900A8
:1028E0004FEA2C1C02F5FA020CFB0EF34FEACE1E47
:1028F0004FEA112C4FEAC1210EEB635E42EB2242FC
:102900000EFB0CFC4FEA1C5300FB03114FEA112C89
:102910004FEA01310EFB0CFC4FEADC4C00FB0C11C2
:10292000C14228BF09184CEB03335DF804EB10EBF0
:10293000410143EBC250B2F57C0F38BF704729D537
:1029400012F0F00F1CBF00F1C04000F000407047D3
:10295000008182838485868788898B8C8D8E8F9178
:102960009293959697999A9C9D9FA0A2A3A5A7A89C
:10297000AAACAEB0B2B3B5B7B9BCBEC0C2C5C7C9C8
:10298000CCCED1D4D7D9DCDFE2E6E9ECF0F3F7FA2C
:10299000FE0000004FEA400C0CF1807CBCF17E4F41
:1029A00028BF7047B0F1C04000F047B990EA010F6E
:1029B0000CEAD11348BF42F48072624538BF6345C8
:1029C00007D213F47F0F16D080EA010000F0004018
:1029D000704710B500F0EBF8097EFC3E00F005B83A
:1029E00080EA010000F00040704780EA010000F03A
:1029F000004000F022B912F47F0F04BF0248704774
:102A000080EA010000F019B90000C07F41000B0E00
:102A1000D3F19E0208D950F400034FEA032323FAAE
:102A200002F048BF4042704710B500F0C0F800BF48
:102A300049922480002070476FF0004282EA200013
:102A400070470000C10DD1F19E0206DB4FEA002362
:102A500043F0004323FA02F07047004207D54FEAE3
:102A60004001B1F1FE4F02D24FF00000704710B5A7
:102A700000F09DF849922480002070476FEA200002
:102A800070470000B0FA80F310FA03F2C3F19D031F
:102A90000AD0D90501EB1220530638BF704700F168
:102AA000010008BF20F00100704700004FF47F0CC8
:102AB0001CEAD0121EBF1CEAD11392EA0C0F93EA53
:102AC0000C0F00F0478090EA010F48BF42F480727B
:102AD0004FF0004C4CEA00204CEA012102EB0302CB
:102AE000A0FB0113A2F50002002918BF43F0010367
:102AF0005B0028BF4FEA330342EB22425FEA132C0C
:102B00004CEBC2502EBFBCEB436FB2F57C0F70474D
:102B10004FEA036CBCF1004F08BF20F00100B2F592
:102B20007C0F38BF70470BD582F0FF0212F5803F53
:102B3000C8BF704700F1C040D8BF00F000407047E8
:102B400000F5000C5FEA4C0C48BF7047B0F1C04084
:102B500000F073B890EA010F0CEAD11348BF42F4B9
:102B60008072624538BF634504D280EA010000F0FC
:102B70000040704710B500F01AF800BF8900013E10
:102B800000F007B800F009B85FEA410C5FEA1C6C7E
:102B900008D080EA010000F050B85FEA400C5FEA1C
:102BA0001C6CF6D14FF00040A0F5800070470EF18C
:102BB000020E2EF0030E5EF8044B244204D44FEABA
:102BC0004102B2F17F4F11D84FEA4003B3F17F4F7A
:102BD0000CD80ED14FEAD07CB2F17F4F0CEB4C0CED
:102BE0000CF1020C08BF4CEBD17C04E04FF0080C58
:102BF00001E04FEAD17C0CEB4C0324FA03F404F01F
:102C00000704B4F1040C06D20EEB840CBDE81040AE
:102C10004CF0010C6047DFE80CF0070802024FF0AF
:102C20000040A0F5800010BD0846420018BFD2F158
:102C3000807288BF00F0004010BDFF2141EAD050F3
:102C4000C005704790EA010F48BF81F000413FF591
:102C5000C0AD421A04D882F00042A0EB0200114439
:102C60004FEAD0524FF07F4C1CEA410FA2EBD153F8
:102C700018BF9CEA026F4AD04FF0004C4CEA00208B
:102C80004CEA012121FA03FCB0EB0C0C0FD412F03A
:102C9000FE0F36D05FEA4C001DD5001240EBC2504B
:102CA00038BF70471CF03F0F18BF70470BE0A2F110
:102CB00001025FEA1C2040EBC25038BF70471CF095
:102CC0007F0F18BF7047C3F12003994014BF401E07
:102CD00020F00100704780084FEA122308BF7047B8
:102CE000B0FA80FCA2EB0C02CCF1280C60FA0CF0DC
:102CF00093EA122F04BF00EBC25070474FEAC37033
:102D00007047130A5FEADC1008BF7047F6E79CEAD9
:102D1000026F04D010EA5C0F08BF0020704710B5A6
:102D2000FFF745FF40DFF63E81F000407047FDF7BA
:102D3000DFBC0000000000000000002F00000000C9
:102D40000700070000147F147F1400242A7F2A1232
:102D50000062640813230036495522500000050321
:102D6000000000001C224100000041221C00001451
:102D7000083E08140008083E0808000000A0600093
:102D80000008080808080000606000000020100823
:102D90000402003E5149453E0000427F400000428F
:102DA00061514946002141454B31001814127F10F2
:102DB000002745454539003C4A4949300001710921
:102DC000050300364949493600064949291E0000D5
:102DD000363600000000563600000008142241007C
:102DE00000141414141400004122140800020151AC
:102DF000090600324959513E007C1211127C007FB5
:102E000049494936003E41414122007F4141221C4F
:102E1000007F49494941007F09090901003E4149B4
:102E2000497A007F0808087F0000417F41000020A8
:102E300040413F01007F08142241007F4040404054
:102E4000007F020C027F007F0408107F003E41419A
:102E5000413E007F09090906003E4151215E007F85
:102E6000091929460046494949310001017F0101FC
:102E7000003F4040403F001F2040201F003F40389F
:102E8000403F0063140814630007087008070061DE
:102E90005149454300007F41410000552A552A55BC
:102EA000000041417F000004020102040040404054
:102EB0004040000001020400002054545478007F78
:102EC0004844443800384444442000384444487F4F
:102ED00000385454541800087E0901020018A4A4B4
:102EE000A47C007F080404780000447D400000407A
:102EF00080847D00007F102844000000417F400056
:102F0000007C04180478007C0804047800384444E9
:102F1000443800FC242424180018242418FC007CC5
:102F20000804040800485454542000043F4440203E
:102F3000003C4040207C001C2040201C003C4030D5
:102F4000403C004428102844001CA0A0A07C004461
:102F500064544C44141414141414000000000000B1
:102F600000000000000000000000000000F8000069
:102F70000000000000333000000000100C06100CB0
:102F80000600000000000000000040C07840C0784B
:102F90004000043F04043F040400007088FC083033
:102FA0000000001820FF211E0000F008F000E018CB
:102FB000000000211C031E211E0000F00888700084
:102FC00000001E2123241927211010160E000000D6
:102FD00000000000000000000000000000E01804F5
:102FE0000200000000071820400000020418E00062
:102FF00000000040201807000000404080F08040A2
:1030000040000202010F01020200000000F0000077
:1030100000000101011F010101000000000000008B
:10302000000080B070000000000000000000000000
:103030000000000101010101010100000000000089
:103040000000003030000000000000000000806040
:103050001804006018060100000000E010080810C5
:10306000E000000F102020100F00001010F80000EA
:1030700000000020203F2020000000700808088881
:103080007000003028242221300000300888884851
:1030900030000018202020110E000000C02010F881
:1030A000000000070424243F240000F80888880852
:1030B00008000019212020110E0000E01088881857
:1030C0000000000F112020110E0000380808C83839
:1030D00008000000003F0000000000708808088819
:1030E0007000001C222121221C0000E010080810A2
:1030F000E0000000312222110F00000000C0C000DB
:1031000000000000003030000000000000800000DF
:1031100000000000806000000000000080402010DF
:1031200008000001020408102000404040404040D8
:10313000400004040404040404000008102040803B
:103140000000002010080402010000704808080870
:10315000F0000000003036010000C030C828E81040
:10316000E0000718272423140B000000C038E000FB
:103170000000203C23020227382008F88888887045
:103180000000203F202020110E00C0300808080851
:103190003800071820202010080008F80808081038
:1031A000E000203F202020100F0008F88888E80861
:1031B0001000203F20202320180008F88888E80805
:1031C0001000203F200003000000C030080808382D
:1031D000000007182020221E020008F8080000083E
:1031E000F808203F210101213F20000808F80808C5
:1031F00000000020203F2020000000000808F80800
:103200000800C08080807F00000008F888C028186F
:103210000800203F20012638200008F808000000A0
:103220000000203F20202020300008F8F800F8F8A7
:103230000800203F003F003F200008F830C0000891
:10324000F808203F200007183F00E0100808081089
:10325000E0000F10202020100F0008F808080808D0
:10326000F000203F210101010000E01008080810D3
:10327000E0000F18242438504F0008F88888888808
:103280007000203F2000030C3020007088080808E0
:1032900038000038202121221C00180808F80808EE
:1032A00018000000203F2000000008F80800000877
:1032B000F808001F202020201F000878880000C880
:1032C0003808000007380E010000F80800F8000870
:1032D000F800033C0700073C03000818688080687A
:1032E000180820302C03032C30200838C800C838B8
:1032F00008000000203F2000000010080808C8381F
:1033000008002038262120201800000000FE0202BC
:1033100002000000007F40404000000C30C0000070
:103320000000000000010638C00000020202FE009A
:103330000000004040407F00000000000402020244
:103340000400000000000000000000000000000079
:103350000000808080808080808000020204000065
:10336000000000000000000000000000808080805D
:1033700000000019242222223F2008F8008080004B
:103380000000003F112020110E000000008080800E
:103390000000000E11202020110000000080808815
:1033A000F800000E112020103F2000008080808057
:1033B0000000001F222222221300008080F0888853
:1033C00088180020203F202000000000808080809E
:1033D0008000006B94949493600008F800808080D3
:1033E0000000203F210000203F200080989800002E
:1033F00000000020203F202000000000008098985E
:10340000000000C08080807F000008F800008080FD
:103410008000203F24022D302000000808F8000022
:1034200000000020203F20200000808080808080DD
:103430008000203F20003F20003F8080008080806F
:103440000000203F210000203F200000808080807D
:103450000000001F202020201F00808000808000AE
:10346000000080FFA12020110E000000008080805D
:103470008000000E112020A0FF80808080008080CE
:10348000800020203F2120000100000080808080FB
:1034900080000033242424241900008080E08080F0
:1034A00000000000001F202000008080000000803D
:1034B0008000001F202020103F208080800000809E
:1034C000808000010E3008060100808000800080AE
:1034D00080800F300C030C300F0000808000808053
:1034E00080000020312E0E3120008080800000807E
:1034F000808080818E70180601000080808080802E
:1035000080000021302C2221300000000000807C4F
:10351000020200000000003F404000000000FF00E9
:10352000000000000000FF0000000002027C80009C
:1035300000000040403F00000000000601010202C0
:103540000404000000000000000004000008000067
:103550000000000000020001000010000240000016
:10356000000000A00000000005400000000000C8AE
:10357000000000000C4000000000409C0000000023
:10358000194000000020BCBE0000000034400000D4
:10359000BFC91B8E00000004B5400000504BCFD0C7
:1035A0006607E2CF010000006C4100003E8251AA94
:1035B000DFEEA73401000000D9420000DCB5A0E234
:1035C0003A301F97FFFFFFFFB4450000FD25A0C85C
:1035D000E9A3C14FFFFFFFFFFF3F00000000008095
:1035E00000000000FF3F000000000080000000001D
:1035F0002C360008000000204800000028010008C8
:10360000743600084800002020090000440100082A
:103610001C00000043000000F8FFFFFF0C0000004A
:103620000E0000000F0000002E000000000000004F
:103630000102030401020304060708090204060844
:10364000000000000000000000000000000000007A
:103650000000000000000000280000000000000042
:103660000000000001000000000000000000000059
:043670000000000056
:04000005080000ED02
:00000001FF
